{
  "contractName": "SupermarketRole",
  "abi": [
    {
      "inputs": [],
      "payable": false,
      "stateMutability": "nonpayable",
      "type": "constructor"
    },
    {
      "anonymous": false,
      "inputs": [
        {
          "indexed": true,
          "name": "account",
          "type": "address"
        }
      ],
      "name": "SupermarketAdded",
      "type": "event"
    },
    {
      "anonymous": false,
      "inputs": [
        {
          "indexed": true,
          "name": "account",
          "type": "address"
        }
      ],
      "name": "SupermarketRemoved",
      "type": "event"
    },
    {
      "constant": true,
      "inputs": [
        {
          "name": "account",
          "type": "address"
        }
      ],
      "name": "isSupermarket",
      "outputs": [
        {
          "name": "",
          "type": "bool"
        }
      ],
      "payable": false,
      "stateMutability": "view",
      "type": "function"
    },
    {
      "constant": false,
      "inputs": [
        {
          "name": "account",
          "type": "address"
        }
      ],
      "name": "addSupermarket",
      "outputs": [],
      "payable": false,
      "stateMutability": "nonpayable",
      "type": "function"
    },
    {
      "constant": false,
      "inputs": [],
      "name": "renounceSupermarket",
      "outputs": [],
      "payable": false,
      "stateMutability": "nonpayable",
      "type": "function"
    }
  ],
  "bytecode": "0x608060405234801561001057600080fd5b506100203361002560201b60201c565b6101df565b61003d81600061007460201b6102d21790919060201c565b6040516001600160a01b038216907f3e8b6c25714070dcebd930fe0d9592c40580e5afd0b4e8e3727181b801e733f590600090a250565b6001600160a01b0381166100d3576040517f08c379a000000000000000000000000000000000000000000000000000000000815260040180806020018281038252603f815260200180610790603f913960400191505060405180910390fd5b6100e3828261015e60201b60201c565b15610139576040517f08c379a000000000000000000000000000000000000000000000000000000000815260040180806020018281038252604f815260200180610741604f913960600191505060405180910390fd5b6001600160a01b0316600090815260209190915260409020805460ff19166001179055565b60006001600160a01b0382166101bf576040517f08c379a000000000000000000000000000000000000000000000000000000000815260040180806020018281038252603d8152602001806107cf603d913960400191505060405180910390fd5b506001600160a01b03166000908152602091909152604090205460ff1690565b610553806101ee6000396000f3fe608060405234801561001057600080fd5b50600436106100415760003560e01c806314f6c37114610046578063a2d7e56114610050578063d3fc786f1461008a575b600080fd5b61004e6100b0565b005b6100766004803603602081101561006657600080fd5b50356001600160a01b03166100bb565b604080519115158252519081900360200190f35b61004e600480360360208110156100a057600080fd5b50356001600160a01b03166100d3565b6100b933610126565b565b60006100cd818363ffffffff61016e16565b92915050565b6100dc336100bb565b61011a57604051600160e51b62461bcd02815260040180806020018281038252603f815260200180610389603f913960400191505060405180910390fd5b610123816101d8565b50565b61013760008263ffffffff61022016565b6040516001600160a01b038216907f15d2b381eb4092b28724b6b0527f13de7431b61db9e6f8ad6c171c35afbfb54490600090a250565b60006001600160a01b0382166101b857604051600160e51b62461bcd02815260040180806020018281038252603d815260200180610456603d913960400191505060405180910390fd5b506001600160a01b03166000908152602091909152604090205460ff1690565b6101e960008263ffffffff6102d216565b6040516001600160a01b038216907f3e8b6c25714070dcebd930fe0d9592c40580e5afd0b4e8e3727181b801e733f590600090a250565b6001600160a01b03811661026857604051600160e51b62461bcd0281526004018080602001828103825260438152602001806104936043913960600191505060405180910390fd5b610272828261016e565b6102b057604051600160e51b62461bcd0281526004018080602001828103825260528152602001806104d66052913960600191505060405180910390fd5b6001600160a01b0316600090815260209190915260409020805460ff19169055565b6001600160a01b03811661031a57604051600160e51b62461bcd02815260040180806020018281038252603f815260200180610417603f913960400191505060405180910390fd5b610324828261016e565b1561036357604051600160e51b62461bcd02815260040180806020018281038252604f8152602001806103c8604f913960600191505060405180910390fd5b6001600160a01b0316600090815260209190915260409020805460ff1916600117905556fe4552524f52204d6573736167653a20546865206164647265737320646f65736ec2b474206d61746368207769746820616e792073757065726d61726b65742e4552524f52204d6573736167653a2054686520616464647265737320676976656e2068617320616c72656164792074686520726f6c6520696e2066756e6374696f6e20616464206e657720726f6c654552524f52204d6573736167653a2041646472657373206163636f756e74206973206e756c6c20696e2066756e6374696f6e20616464206e657720726f6c654552524f52204d6573736167653a2041646472657373206163636f756e74206e756c6c20696e2066756e6374696f6e206861732074686520726f6c652e4552524f52204d6573736167653a204164647265737373206163636f756e74206973206e756c6c20696e2066756e6374696f6e2072656d6f7665207468652072756c654552524f52204d6573736167653a20546865206164647265737320676976656e20646f6573206e6f74206861732074686520726f6c6520696e2066756e6374696f6e2072656d6f76652074686520726f6c65a165627a7a723058207320faf345d03900ec539f227c3a54d9a2a572f6cae9423818534352a20a522800294552524f52204d6573736167653a2054686520616464647265737320676976656e2068617320616c72656164792074686520726f6c6520696e2066756e6374696f6e20616464206e657720726f6c654552524f52204d6573736167653a2041646472657373206163636f756e74206973206e756c6c20696e2066756e6374696f6e20616464206e657720726f6c654552524f52204d6573736167653a2041646472657373206163636f756e74206e756c6c20696e2066756e6374696f6e206861732074686520726f6c652e",
  "source": "pragma solidity ^0.5.0;\n\n// Import the library 'Roles'\nimport \"./Roles.sol\";\n\n// Define a contract 'SupermarketRole' to manage this role - add, remove, check\ncontract SupermarketRole {\n  using Roles for Roles.Role;\n\n  // Define 2 events, one for Adding, and other for Removing\n  event SupermarketAdded(address indexed account);\n  event SupermarketRemoved(address indexed account);\n\n  // Define a struct 'supermarkets' by inheriting from 'Roles' library, struct Role\n  Roles.Role private supermarkets;\n\n  // In the constructor make the address that deploys this contract the 1st farmer\n  constructor() public {\n    _addSupermarket(msg.sender);\n  }\n\n  // Define a modifier that checks to see if msg.sender has the appropriate role\n  modifier onlySupermarket() {\n    require(isSupermarket(msg.sender),\"ERROR Message: The address doesn´t match with any supermarket.\");\n    _;\n  }\n\n  // Define a function 'isSupermarket' to check this role\n  function isSupermarket(address account) public view returns (bool) {\n    return supermarkets.has(account);\n  }\n\n  // Define a function 'addSupermarket' that adds this role\n  function addSupermarket(address account) public onlySupermarket {\n    _addSupermarket(account);\n  }\n\n  // Define a function 'renounceSupermarket' to renounce this role\n  function renounceSupermarket() public {\n    _removeSupermarket(msg.sender);\n  }\n\n  // Define an internal function '_addSupermarket' to add this role, called by 'addSupermarket'\n  function _addSupermarket(address account) internal {\n    supermarkets.add(account);\n    emit SupermarketAdded(account);\n  }\n\n  // Define an internal function '_removeSupermarket' to remove this role, called by 'removeSupermarket'\n  function _removeSupermarket(address account) internal {\n    supermarkets.remove(account);\n    emit SupermarketRemoved(account);\n  }\n}",
  "sourcePath": "E:\\Udacity\\Blockchain\\Second Term\\Second Project\\project-6\\contracts\\milkaccesscontrol\\SupermarketRole.sol",
  "compiler": {
    "name": "solc",
    "version": "0.5.8+commit.23d335f2.Emscripten.clang"
  },
  "schemaVersion": "3.0.9",
  "updatedAt": "2019-05-24T01:11:46.304Z",
  "devdoc": {
    "methods": {}
  },
  "userdoc": {
    "methods": {}
  }
}