{
  "contractName": "SupplyChain",
  "abi": [
    {
      "constant": false,
      "inputs": [
        {
          "name": "account",
          "type": "address"
        }
      ],
      "name": "addConsumer",
      "outputs": [],
      "payable": false,
      "stateMutability": "nonpayable",
      "type": "function"
    },
    {
      "constant": false,
      "inputs": [],
      "name": "renounceSupermarket",
      "outputs": [],
      "payable": false,
      "stateMutability": "nonpayable",
      "type": "function"
    },
    {
      "constant": true,
      "inputs": [
        {
          "name": "account",
          "type": "address"
        }
      ],
      "name": "isRetailer",
      "outputs": [
        {
          "name": "",
          "type": "bool"
        }
      ],
      "payable": false,
      "stateMutability": "view",
      "type": "function"
    },
    {
      "constant": false,
      "inputs": [],
      "name": "renounceConsumer",
      "outputs": [],
      "payable": false,
      "stateMutability": "nonpayable",
      "type": "function"
    },
    {
      "constant": false,
      "inputs": [],
      "name": "renounceDistributor",
      "outputs": [],
      "payable": false,
      "stateMutability": "nonpayable",
      "type": "function"
    },
    {
      "constant": false,
      "inputs": [],
      "name": "renounceOwnership",
      "outputs": [],
      "payable": false,
      "stateMutability": "nonpayable",
      "type": "function"
    },
    {
      "constant": false,
      "inputs": [
        {
          "name": "account",
          "type": "address"
        }
      ],
      "name": "addDistributor",
      "outputs": [],
      "payable": false,
      "stateMutability": "nonpayable",
      "type": "function"
    },
    {
      "constant": true,
      "inputs": [
        {
          "name": "account",
          "type": "address"
        }
      ],
      "name": "isDairyfactory",
      "outputs": [
        {
          "name": "",
          "type": "bool"
        }
      ],
      "payable": false,
      "stateMutability": "view",
      "type": "function"
    },
    {
      "constant": false,
      "inputs": [
        {
          "name": "account",
          "type": "address"
        }
      ],
      "name": "addPoulterer",
      "outputs": [],
      "payable": false,
      "stateMutability": "nonpayable",
      "type": "function"
    },
    {
      "constant": true,
      "inputs": [
        {
          "name": "account",
          "type": "address"
        }
      ],
      "name": "isConsumer",
      "outputs": [
        {
          "name": "",
          "type": "bool"
        }
      ],
      "payable": false,
      "stateMutability": "view",
      "type": "function"
    },
    {
      "constant": false,
      "inputs": [
        {
          "name": "account",
          "type": "address"
        }
      ],
      "name": "addDairyfactory",
      "outputs": [],
      "payable": false,
      "stateMutability": "nonpayable",
      "type": "function"
    },
    {
      "constant": false,
      "inputs": [],
      "name": "renounceDairyfactory",
      "outputs": [],
      "payable": false,
      "stateMutability": "nonpayable",
      "type": "function"
    },
    {
      "constant": true,
      "inputs": [],
      "name": "owner",
      "outputs": [
        {
          "name": "",
          "type": "address"
        }
      ],
      "payable": false,
      "stateMutability": "view",
      "type": "function"
    },
    {
      "constant": false,
      "inputs": [
        {
          "name": "account",
          "type": "address"
        }
      ],
      "name": "addRetailer",
      "outputs": [],
      "payable": false,
      "stateMutability": "nonpayable",
      "type": "function"
    },
    {
      "constant": true,
      "inputs": [
        {
          "name": "account",
          "type": "address"
        }
      ],
      "name": "isDistributor",
      "outputs": [
        {
          "name": "",
          "type": "bool"
        }
      ],
      "payable": false,
      "stateMutability": "view",
      "type": "function"
    },
    {
      "constant": true,
      "inputs": [],
      "name": "isOwner",
      "outputs": [
        {
          "name": "",
          "type": "bool"
        }
      ],
      "payable": false,
      "stateMutability": "view",
      "type": "function"
    },
    {
      "constant": true,
      "inputs": [
        {
          "name": "account",
          "type": "address"
        }
      ],
      "name": "isSupermarket",
      "outputs": [
        {
          "name": "",
          "type": "bool"
        }
      ],
      "payable": false,
      "stateMutability": "view",
      "type": "function"
    },
    {
      "constant": true,
      "inputs": [
        {
          "name": "account",
          "type": "address"
        }
      ],
      "name": "isPoulterer",
      "outputs": [
        {
          "name": "",
          "type": "bool"
        }
      ],
      "payable": false,
      "stateMutability": "view",
      "type": "function"
    },
    {
      "constant": false,
      "inputs": [],
      "name": "renouncePoulterer",
      "outputs": [],
      "payable": false,
      "stateMutability": "nonpayable",
      "type": "function"
    },
    {
      "constant": false,
      "inputs": [
        {
          "name": "account",
          "type": "address"
        }
      ],
      "name": "addSupermarket",
      "outputs": [],
      "payable": false,
      "stateMutability": "nonpayable",
      "type": "function"
    },
    {
      "constant": false,
      "inputs": [],
      "name": "renounceRetailer",
      "outputs": [],
      "payable": false,
      "stateMutability": "nonpayable",
      "type": "function"
    },
    {
      "constant": false,
      "inputs": [
        {
          "name": "newOwner",
          "type": "address"
        }
      ],
      "name": "transferOwnership",
      "outputs": [],
      "payable": false,
      "stateMutability": "nonpayable",
      "type": "function"
    },
    {
      "inputs": [],
      "payable": true,
      "stateMutability": "payable",
      "type": "constructor"
    },
    {
      "anonymous": false,
      "inputs": [
        {
          "indexed": false,
          "name": "upc",
          "type": "uint256"
        },
        {
          "indexed": false,
          "name": "emiter",
          "type": "address"
        }
      ],
      "name": "Obtained",
      "type": "event"
    },
    {
      "anonymous": false,
      "inputs": [
        {
          "indexed": false,
          "name": "upc",
          "type": "uint256"
        },
        {
          "indexed": false,
          "name": "emiter",
          "type": "address"
        }
      ],
      "name": "Stored",
      "type": "event"
    },
    {
      "anonymous": false,
      "inputs": [
        {
          "indexed": false,
          "name": "upc",
          "type": "uint256"
        },
        {
          "indexed": false,
          "name": "emiter",
          "type": "address"
        },
        {
          "indexed": false,
          "name": "price",
          "type": "uint256"
        }
      ],
      "name": "ForSaleToDairyfactory",
      "type": "event"
    },
    {
      "anonymous": false,
      "inputs": [
        {
          "indexed": false,
          "name": "upc",
          "type": "uint256"
        },
        {
          "indexed": false,
          "name": "emiter",
          "type": "address"
        }
      ],
      "name": "SoldToDairyfactory",
      "type": "event"
    },
    {
      "anonymous": false,
      "inputs": [
        {
          "indexed": false,
          "name": "upc",
          "type": "uint256"
        },
        {
          "indexed": false,
          "name": "emiter",
          "type": "address"
        }
      ],
      "name": "ShippedToDairyfactory",
      "type": "event"
    },
    {
      "anonymous": false,
      "inputs": [
        {
          "indexed": false,
          "name": "upc",
          "type": "uint256"
        },
        {
          "indexed": false,
          "name": "emiter",
          "type": "address"
        }
      ],
      "name": "ReceivedByDairyfactory",
      "type": "event"
    },
    {
      "anonymous": false,
      "inputs": [
        {
          "indexed": false,
          "name": "upc",
          "type": "uint256"
        },
        {
          "indexed": false,
          "name": "emiter",
          "type": "address"
        },
        {
          "indexed": false,
          "name": "testResult",
          "type": "bool"
        }
      ],
      "name": "Tested",
      "type": "event"
    },
    {
      "anonymous": false,
      "inputs": [
        {
          "indexed": false,
          "name": "upc",
          "type": "uint256"
        },
        {
          "indexed": false,
          "name": "emiter",
          "type": "address"
        }
      ],
      "name": "Processed",
      "type": "event"
    },
    {
      "anonymous": false,
      "inputs": [
        {
          "indexed": false,
          "name": "upc",
          "type": "uint256"
        },
        {
          "indexed": false,
          "name": "emiter",
          "type": "address"
        }
      ],
      "name": "Returned",
      "type": "event"
    },
    {
      "anonymous": false,
      "inputs": [
        {
          "indexed": false,
          "name": "upc",
          "type": "uint256"
        },
        {
          "indexed": false,
          "name": "emiter",
          "type": "address"
        }
      ],
      "name": "Retaken",
      "type": "event"
    },
    {
      "anonymous": false,
      "inputs": [
        {
          "indexed": false,
          "name": "upc",
          "type": "uint256"
        },
        {
          "indexed": false,
          "name": "emiter",
          "type": "address"
        }
      ],
      "name": "ShippedToPoulterer",
      "type": "event"
    },
    {
      "anonymous": false,
      "inputs": [
        {
          "indexed": false,
          "name": "upc",
          "type": "uint256"
        },
        {
          "indexed": false,
          "name": "emiter",
          "type": "address"
        }
      ],
      "name": "ReceivedByPoulterer",
      "type": "event"
    },
    {
      "anonymous": false,
      "inputs": [
        {
          "indexed": false,
          "name": "upc",
          "type": "uint256"
        },
        {
          "indexed": false,
          "name": "emiter",
          "type": "address"
        }
      ],
      "name": "Destroyed",
      "type": "event"
    },
    {
      "anonymous": false,
      "inputs": [
        {
          "indexed": false,
          "name": "upc",
          "type": "uint256"
        },
        {
          "indexed": false,
          "name": "emiter",
          "type": "address"
        }
      ],
      "name": "Packed",
      "type": "event"
    },
    {
      "anonymous": false,
      "inputs": [
        {
          "indexed": false,
          "name": "upc",
          "type": "uint256"
        },
        {
          "indexed": false,
          "name": "emiter",
          "type": "address"
        },
        {
          "indexed": false,
          "name": "price",
          "type": "uint256"
        }
      ],
      "name": "ForSaleToDistributor",
      "type": "event"
    },
    {
      "anonymous": false,
      "inputs": [
        {
          "indexed": false,
          "name": "upc",
          "type": "uint256"
        },
        {
          "indexed": false,
          "name": "emiter",
          "type": "address"
        }
      ],
      "name": "SoldToDistributor",
      "type": "event"
    },
    {
      "anonymous": false,
      "inputs": [
        {
          "indexed": false,
          "name": "upc",
          "type": "uint256"
        },
        {
          "indexed": false,
          "name": "emiter",
          "type": "address"
        }
      ],
      "name": "ShippedToDistributor",
      "type": "event"
    },
    {
      "anonymous": false,
      "inputs": [
        {
          "indexed": false,
          "name": "upc",
          "type": "uint256"
        },
        {
          "indexed": false,
          "name": "emiter",
          "type": "address"
        }
      ],
      "name": "ReceivedByDistributor",
      "type": "event"
    },
    {
      "anonymous": false,
      "inputs": [
        {
          "indexed": false,
          "name": "upc",
          "type": "uint256"
        },
        {
          "indexed": false,
          "name": "emiter",
          "type": "address"
        },
        {
          "indexed": false,
          "name": "price",
          "type": "uint256"
        }
      ],
      "name": "ForSaleToRetailer",
      "type": "event"
    },
    {
      "anonymous": false,
      "inputs": [
        {
          "indexed": false,
          "name": "upc",
          "type": "uint256"
        },
        {
          "indexed": false,
          "name": "emiter",
          "type": "address"
        }
      ],
      "name": "SoldToRetailer",
      "type": "event"
    },
    {
      "anonymous": false,
      "inputs": [
        {
          "indexed": false,
          "name": "upc",
          "type": "uint256"
        },
        {
          "indexed": false,
          "name": "emiter",
          "type": "address"
        }
      ],
      "name": "ShippedToRetailer",
      "type": "event"
    },
    {
      "anonymous": false,
      "inputs": [
        {
          "indexed": false,
          "name": "upc",
          "type": "uint256"
        },
        {
          "indexed": false,
          "name": "emiter",
          "type": "address"
        }
      ],
      "name": "ReceivedByRetailer",
      "type": "event"
    },
    {
      "anonymous": false,
      "inputs": [
        {
          "indexed": false,
          "name": "upc",
          "type": "uint256"
        },
        {
          "indexed": false,
          "name": "emiter",
          "type": "address"
        },
        {
          "indexed": false,
          "name": "price",
          "type": "uint256"
        }
      ],
      "name": "ForSaleToSupermarket",
      "type": "event"
    },
    {
      "anonymous": false,
      "inputs": [
        {
          "indexed": false,
          "name": "upc",
          "type": "uint256"
        },
        {
          "indexed": false,
          "name": "emiter",
          "type": "address"
        }
      ],
      "name": "SoldToSupermarket",
      "type": "event"
    },
    {
      "anonymous": false,
      "inputs": [
        {
          "indexed": false,
          "name": "upc",
          "type": "uint256"
        },
        {
          "indexed": false,
          "name": "emiter",
          "type": "address"
        }
      ],
      "name": "ShippedToSupermarket",
      "type": "event"
    },
    {
      "anonymous": false,
      "inputs": [
        {
          "indexed": false,
          "name": "upc",
          "type": "uint256"
        },
        {
          "indexed": false,
          "name": "emiter",
          "type": "address"
        }
      ],
      "name": "ReceivedBySupermarket",
      "type": "event"
    },
    {
      "anonymous": false,
      "inputs": [
        {
          "indexed": false,
          "name": "upc",
          "type": "uint256"
        },
        {
          "indexed": false,
          "name": "emiter",
          "type": "address"
        },
        {
          "indexed": false,
          "name": "price",
          "type": "uint256"
        }
      ],
      "name": "ForSaleToConsumer",
      "type": "event"
    },
    {
      "anonymous": false,
      "inputs": [
        {
          "indexed": false,
          "name": "upc",
          "type": "uint256"
        },
        {
          "indexed": false,
          "name": "emiter",
          "type": "address"
        }
      ],
      "name": "SoldToConsumer",
      "type": "event"
    },
    {
      "anonymous": false,
      "inputs": [
        {
          "indexed": false,
          "name": "upc",
          "type": "uint256"
        },
        {
          "indexed": false,
          "name": "emiter",
          "type": "address"
        }
      ],
      "name": "PurchasedByConsumer",
      "type": "event"
    },
    {
      "anonymous": false,
      "inputs": [
        {
          "indexed": true,
          "name": "account",
          "type": "address"
        }
      ],
      "name": "ConsumerAdded",
      "type": "event"
    },
    {
      "anonymous": false,
      "inputs": [
        {
          "indexed": true,
          "name": "account",
          "type": "address"
        }
      ],
      "name": "ConsumerRemoved",
      "type": "event"
    },
    {
      "anonymous": false,
      "inputs": [
        {
          "indexed": true,
          "name": "account",
          "type": "address"
        }
      ],
      "name": "SupermarketAdded",
      "type": "event"
    },
    {
      "anonymous": false,
      "inputs": [
        {
          "indexed": true,
          "name": "account",
          "type": "address"
        }
      ],
      "name": "SupermarketRemoved",
      "type": "event"
    },
    {
      "anonymous": false,
      "inputs": [
        {
          "indexed": true,
          "name": "account",
          "type": "address"
        }
      ],
      "name": "RetailerAdded",
      "type": "event"
    },
    {
      "anonymous": false,
      "inputs": [
        {
          "indexed": true,
          "name": "account",
          "type": "address"
        }
      ],
      "name": "RetailerRemoved",
      "type": "event"
    },
    {
      "anonymous": false,
      "inputs": [
        {
          "indexed": true,
          "name": "account",
          "type": "address"
        }
      ],
      "name": "DistributorAdded",
      "type": "event"
    },
    {
      "anonymous": false,
      "inputs": [
        {
          "indexed": true,
          "name": "account",
          "type": "address"
        }
      ],
      "name": "DistributorRemoved",
      "type": "event"
    },
    {
      "anonymous": false,
      "inputs": [
        {
          "indexed": true,
          "name": "account",
          "type": "address"
        }
      ],
      "name": "DairyfactoryAdded",
      "type": "event"
    },
    {
      "anonymous": false,
      "inputs": [
        {
          "indexed": true,
          "name": "account",
          "type": "address"
        }
      ],
      "name": "DairyfactoryRemoved",
      "type": "event"
    },
    {
      "anonymous": false,
      "inputs": [
        {
          "indexed": true,
          "name": "account",
          "type": "address"
        }
      ],
      "name": "PoultererAdded",
      "type": "event"
    },
    {
      "anonymous": false,
      "inputs": [
        {
          "indexed": true,
          "name": "account",
          "type": "address"
        }
      ],
      "name": "PoultererRemoved",
      "type": "event"
    },
    {
      "anonymous": false,
      "inputs": [
        {
          "indexed": true,
          "name": "oldOwner",
          "type": "address"
        },
        {
          "indexed": true,
          "name": "newOwner",
          "type": "address"
        }
      ],
      "name": "TransferOwnership",
      "type": "event"
    },
    {
      "constant": false,
      "inputs": [],
      "name": "kill",
      "outputs": [],
      "payable": false,
      "stateMutability": "nonpayable",
      "type": "function"
    },
    {
      "constant": false,
      "inputs": [
        {
          "name": "_upc",
          "type": "uint256"
        },
        {
          "name": "_originPoultererID",
          "type": "address"
        },
        {
          "name": "_originFarmName",
          "type": "string"
        },
        {
          "name": "_originFarmInformation",
          "type": "string"
        },
        {
          "name": "_originFarmLatitude",
          "type": "string"
        },
        {
          "name": "_originFarmLongitude",
          "type": "string"
        },
        {
          "name": "_productNotes",
          "type": "string"
        }
      ],
      "name": "obtainItem",
      "outputs": [],
      "payable": false,
      "stateMutability": "nonpayable",
      "type": "function"
    },
    {
      "constant": false,
      "inputs": [
        {
          "name": "_upc",
          "type": "uint256"
        }
      ],
      "name": "storeItem",
      "outputs": [],
      "payable": false,
      "stateMutability": "nonpayable",
      "type": "function"
    },
    {
      "constant": false,
      "inputs": [
        {
          "name": "_upc",
          "type": "uint256"
        },
        {
          "name": "_price",
          "type": "uint256"
        }
      ],
      "name": "sellToDairyfactory",
      "outputs": [],
      "payable": false,
      "stateMutability": "nonpayable",
      "type": "function"
    },
    {
      "constant": false,
      "inputs": [
        {
          "name": "_upc",
          "type": "uint256"
        }
      ],
      "name": "buyItemByDairyfactory",
      "outputs": [],
      "payable": true,
      "stateMutability": "payable",
      "type": "function"
    },
    {
      "constant": false,
      "inputs": [
        {
          "name": "_upc",
          "type": "uint256"
        }
      ],
      "name": "shipItemToDairyfactory",
      "outputs": [],
      "payable": false,
      "stateMutability": "nonpayable",
      "type": "function"
    },
    {
      "constant": false,
      "inputs": [
        {
          "name": "_upc",
          "type": "uint256"
        }
      ],
      "name": "receiveItemByDairyfactory",
      "outputs": [],
      "payable": false,
      "stateMutability": "nonpayable",
      "type": "function"
    },
    {
      "constant": false,
      "inputs": [
        {
          "name": "_upc",
          "type": "uint256"
        },
        {
          "name": "_testResult",
          "type": "bool"
        }
      ],
      "name": "testMilk",
      "outputs": [],
      "payable": false,
      "stateMutability": "nonpayable",
      "type": "function"
    },
    {
      "constant": false,
      "inputs": [
        {
          "name": "_upc",
          "type": "uint256"
        }
      ],
      "name": "processMilk",
      "outputs": [],
      "payable": false,
      "stateMutability": "nonpayable",
      "type": "function"
    },
    {
      "constant": false,
      "inputs": [
        {
          "name": "_upc",
          "type": "uint256"
        }
      ],
      "name": "returnMilk",
      "outputs": [],
      "payable": false,
      "stateMutability": "nonpayable",
      "type": "function"
    },
    {
      "constant": false,
      "inputs": [
        {
          "name": "_upc",
          "type": "uint256"
        }
      ],
      "name": "retakeMilk",
      "outputs": [],
      "payable": false,
      "stateMutability": "nonpayable",
      "type": "function"
    },
    {
      "constant": false,
      "inputs": [
        {
          "name": "_upc",
          "type": "uint256"
        }
      ],
      "name": "shipItemToPoulterer",
      "outputs": [],
      "payable": false,
      "stateMutability": "nonpayable",
      "type": "function"
    },
    {
      "constant": false,
      "inputs": [
        {
          "name": "_upc",
          "type": "uint256"
        }
      ],
      "name": "receiveItemByPoulterer",
      "outputs": [],
      "payable": false,
      "stateMutability": "nonpayable",
      "type": "function"
    },
    {
      "constant": false,
      "inputs": [
        {
          "name": "_upc",
          "type": "uint256"
        }
      ],
      "name": "destroyMilk",
      "outputs": [],
      "payable": false,
      "stateMutability": "nonpayable",
      "type": "function"
    },
    {
      "constant": false,
      "inputs": [
        {
          "name": "_upc",
          "type": "uint256"
        }
      ],
      "name": "packMilk",
      "outputs": [],
      "payable": false,
      "stateMutability": "nonpayable",
      "type": "function"
    },
    {
      "constant": false,
      "inputs": [
        {
          "name": "_upc",
          "type": "uint256"
        },
        {
          "name": "_price",
          "type": "uint256"
        }
      ],
      "name": "sellToDistributor",
      "outputs": [],
      "payable": false,
      "stateMutability": "nonpayable",
      "type": "function"
    },
    {
      "constant": false,
      "inputs": [
        {
          "name": "_upc",
          "type": "uint256"
        }
      ],
      "name": "buyItemByDistributor",
      "outputs": [],
      "payable": true,
      "stateMutability": "payable",
      "type": "function"
    },
    {
      "constant": false,
      "inputs": [
        {
          "name": "_upc",
          "type": "uint256"
        }
      ],
      "name": "shipItemToDistributor",
      "outputs": [],
      "payable": false,
      "stateMutability": "nonpayable",
      "type": "function"
    },
    {
      "constant": false,
      "inputs": [
        {
          "name": "_upc",
          "type": "uint256"
        }
      ],
      "name": "receiveItemByDistributor",
      "outputs": [],
      "payable": false,
      "stateMutability": "nonpayable",
      "type": "function"
    },
    {
      "constant": false,
      "inputs": [
        {
          "name": "_upc",
          "type": "uint256"
        },
        {
          "name": "_price",
          "type": "uint256"
        }
      ],
      "name": "sellToRetailer",
      "outputs": [],
      "payable": false,
      "stateMutability": "nonpayable",
      "type": "function"
    },
    {
      "constant": false,
      "inputs": [
        {
          "name": "_upc",
          "type": "uint256"
        }
      ],
      "name": "buyItemByRetailer",
      "outputs": [],
      "payable": true,
      "stateMutability": "payable",
      "type": "function"
    },
    {
      "constant": false,
      "inputs": [
        {
          "name": "_upc",
          "type": "uint256"
        }
      ],
      "name": "shipItemToRetailer",
      "outputs": [],
      "payable": false,
      "stateMutability": "nonpayable",
      "type": "function"
    },
    {
      "constant": false,
      "inputs": [
        {
          "name": "_upc",
          "type": "uint256"
        }
      ],
      "name": "receiveItemByRetailer",
      "outputs": [],
      "payable": false,
      "stateMutability": "nonpayable",
      "type": "function"
    },
    {
      "constant": false,
      "inputs": [
        {
          "name": "_upc",
          "type": "uint256"
        },
        {
          "name": "_price",
          "type": "uint256"
        }
      ],
      "name": "sellToSuperMarket",
      "outputs": [],
      "payable": false,
      "stateMutability": "nonpayable",
      "type": "function"
    },
    {
      "constant": false,
      "inputs": [
        {
          "name": "_upc",
          "type": "uint256"
        }
      ],
      "name": "buyItemBySupermarket",
      "outputs": [],
      "payable": true,
      "stateMutability": "payable",
      "type": "function"
    },
    {
      "constant": false,
      "inputs": [
        {
          "name": "_upc",
          "type": "uint256"
        }
      ],
      "name": "shipItemToSupermarket",
      "outputs": [],
      "payable": false,
      "stateMutability": "nonpayable",
      "type": "function"
    },
    {
      "constant": false,
      "inputs": [
        {
          "name": "_upc",
          "type": "uint256"
        }
      ],
      "name": "receiveItemBySupermarket",
      "outputs": [],
      "payable": false,
      "stateMutability": "nonpayable",
      "type": "function"
    },
    {
      "constant": false,
      "inputs": [
        {
          "name": "_upc",
          "type": "uint256"
        },
        {
          "name": "_price",
          "type": "uint256"
        }
      ],
      "name": "sellToConsumer",
      "outputs": [],
      "payable": false,
      "stateMutability": "nonpayable",
      "type": "function"
    },
    {
      "constant": false,
      "inputs": [
        {
          "name": "_upc",
          "type": "uint256"
        }
      ],
      "name": "buyItemByConsumer",
      "outputs": [],
      "payable": true,
      "stateMutability": "payable",
      "type": "function"
    },
    {
      "constant": false,
      "inputs": [
        {
          "name": "_upc",
          "type": "uint256"
        }
      ],
      "name": "purchaseItemByConsumer",
      "outputs": [],
      "payable": false,
      "stateMutability": "nonpayable",
      "type": "function"
    },
    {
      "constant": true,
      "inputs": [
        {
          "name": "_upc",
          "type": "uint256"
        }
      ],
      "name": "fetchItemBufferPublic",
      "outputs": [
        {
          "name": "itemSKU",
          "type": "uint256"
        },
        {
          "name": "itemUPC",
          "type": "uint256"
        },
        {
          "name": "ownerID",
          "type": "address"
        },
        {
          "name": "originPoultererID",
          "type": "address"
        },
        {
          "name": "originFarmName",
          "type": "string"
        },
        {
          "name": "originFarmInformation",
          "type": "string"
        },
        {
          "name": "originFarmLatitude",
          "type": "string"
        },
        {
          "name": "originFarmLongitude",
          "type": "string"
        },
        {
          "name": "itemState",
          "type": "uint8"
        },
        {
          "name": "productPrice",
          "type": "uint256"
        },
        {
          "name": "distributorID",
          "type": "address"
        }
      ],
      "payable": false,
      "stateMutability": "view",
      "type": "function"
    },
    {
      "constant": true,
      "inputs": [
        {
          "name": "_upc",
          "type": "uint256"
        }
      ],
      "name": "fetchItemBufferDistributor",
      "outputs": [
        {
          "name": "itemSKU",
          "type": "uint256"
        },
        {
          "name": "itemUPC",
          "type": "uint256"
        },
        {
          "name": "ownerID",
          "type": "address"
        },
        {
          "name": "originPoultererID",
          "type": "address"
        },
        {
          "name": "originFarmName",
          "type": "string"
        },
        {
          "name": "originFarmInformation",
          "type": "string"
        },
        {
          "name": "originFarmLatitude",
          "type": "string"
        },
        {
          "name": "originFarmLongitude",
          "type": "string"
        },
        {
          "name": "productNotes",
          "type": "string"
        },
        {
          "name": "itemState",
          "type": "uint8"
        }
      ],
      "payable": false,
      "stateMutability": "view",
      "type": "function"
    },
    {
      "constant": true,
      "inputs": [
        {
          "name": "_upc",
          "type": "uint256"
        }
      ],
      "name": "fetchItemBufferConsumer",
      "outputs": [
        {
          "name": "itemSKU",
          "type": "uint256"
        },
        {
          "name": "itemUPC",
          "type": "uint256"
        },
        {
          "name": "ownerID",
          "type": "address"
        },
        {
          "name": "originPoultererID",
          "type": "address"
        },
        {
          "name": "originFarmName",
          "type": "string"
        },
        {
          "name": "productNotes",
          "type": "string"
        },
        {
          "name": "distributorID",
          "type": "address"
        },
        {
          "name": "itemState",
          "type": "uint8"
        }
      ],
      "payable": false,
      "stateMutability": "view",
      "type": "function"
    }
  ],
  "bytecode": "0x6080604052336000806101000a81548173ffffffffffffffffffffffffffffffffffffffff021916908373ffffffffffffffffffffffffffffffffffffffff1602179055506000809054906101000a900473ffffffffffffffffffffffffffffffffffffffff1673ffffffffffffffffffffffffffffffffffffffff16600073ffffffffffffffffffffffffffffffffffffffff167f5c486528ec3e3f0ea91181cff8116f02bfa350e03b8b6f12e00765adbb5af85c60405160405180910390a3620000da3362000172640100000000026401000000009004565b620000f433620001dc640100000000026401000000009004565b6200010e3362000246640100000000026401000000009004565b6200012833620002b0640100000000026401000000009004565b62000142336200031a640100000000026401000000009004565b6200015c3362000384640100000000026401000000009004565b6001600881905550600160078190555062000719565b62000196816001620003ee640100000000026200b451179091906401000000009004565b8073ffffffffffffffffffffffffffffffffffffffff167f80eb921b55c0e61029c209b9cdd8e07e6c85a3ad0c9e4ae9e014e2437dbb72c260405160405180910390a250565b62000200816002620003ee640100000000026200b451179091906401000000009004565b8073ffffffffffffffffffffffffffffffffffffffff167fb158cf7b7032a567dfb9b3a9765efa092798b7cded378ed4ae353ef385f2e73560405160405180910390a250565b6200026a816003620003ee640100000000026200b451179091906401000000009004565b8073ffffffffffffffffffffffffffffffffffffffff167fddbf200aa634dc3fb81cfd68583dd1040d1c751d335e1d86b631bde3e977fea860405160405180910390a250565b620002d4816004620003ee640100000000026200b451179091906401000000009004565b8073ffffffffffffffffffffffffffffffffffffffff167f71ae26cad02663e3d92efd6ec56031a80d74a20c0ab4183faa8bf262261c9baa60405160405180910390a250565b6200033e816005620003ee640100000000026200b451179091906401000000009004565b8073ffffffffffffffffffffffffffffffffffffffff167f3e8b6c25714070dcebd930fe0d9592c40580e5afd0b4e8e3727181b801e733f560405160405180910390a250565b620003a8816006620003ee640100000000026200b451179091906401000000009004565b8073ffffffffffffffffffffffffffffffffffffffff167f28b26e7a3d20aedbc5f8f2ebf7da671c0491723a2b78f47a097b0e46dee0714260405160405180910390a250565b600073ffffffffffffffffffffffffffffffffffffffff168173ffffffffffffffffffffffffffffffffffffffff1614151515620004ba576040517f08c379a000000000000000000000000000000000000000000000000000000000815260040180806020018281038252603f8152602001807f4552524f52204d6573736167653a2041646472657373206163636f756e74206981526020017f73206e756c6c20696e2066756e6374696f6e20616464206e657720726f6c650081525060400191505060405180910390fd5b620004d58282620005f5640100000000026401000000009004565b15151562000597576040517f08c379a000000000000000000000000000000000000000000000000000000000815260040180806020018281038252604f8152602001807f4552524f52204d6573736167653a20546865206164646472657373206769766581526020017f6e2068617320616c72656164792074686520726f6c6520696e2066756e63746981526020017f6f6e20616464206e657720726f6c65000000000000000000000000000000000081525060600191505060405180910390fd5b60018260000160008373ffffffffffffffffffffffffffffffffffffffff1673ffffffffffffffffffffffffffffffffffffffff16815260200190815260200160002060006101000a81548160ff0219169083151502179055505050565b60008073ffffffffffffffffffffffffffffffffffffffff168273ffffffffffffffffffffffffffffffffffffffff1614151515620006c2576040517f08c379a000000000000000000000000000000000000000000000000000000000815260040180806020018281038252603d8152602001807f4552524f52204d6573736167653a2041646472657373206163636f756e74206e81526020017f756c6c20696e2066756e6374696f6e206861732074686520726f6c652e00000081525060400191505060405180910390fd5b8260000160008373ffffffffffffffffffffffffffffffffffffffff1673ffffffffffffffffffffffffffffffffffffffff16815260200190815260200160002060009054906101000a900460ff16905092915050565b61ba6b80620007296000396000f3fe608060405260043610610293576000357c0100000000000000000000000000000000000000000000000000000000900463ffffffff16806303f9ee2c14610298578063112940f9146102d3578063139421351461032457806314f6c3711461035f5780631f19476c146103765780633ae6f126146103b15780633b8f3fb0146106ff57806341c0e1b51461072d578063451816ca1461074457806348a584ee146109ff5780634a40024114610a3a5780635b89318814610a685780635da09b8814610a965780635de8715814610aff57806361e6982d14610dec578063644241db14610e035780636b934ca314610e1a5780636cb1043f14610e61578063715018a614610e9c5780637250e22414610eb3578063744a71c214610f0457806375487e9c14610f495780637efc6d2014610fb2578063834ff7391461100357806384bdedf41461106c578063878e1564146110a757806387cb6fb6146110f85780638817872d1461110f578063887073791461114a57806389070e411461118f5780638b37988e146111ca5780638da5cb5b146112055780638ec4f5051461125c5780638f0c86fa146112ad5780638f32d59b1461131657806393d27ff814611345578063982849f214611380578063a2d7e561146113bb578063ad8fe8b714611424578063af310dc514611452578063af5e8dd514611497578063b2f799aa14611500578063c37cb09e14611517578063c3b714ee14611552578063d2afc84a1461172e578063d34674bd14611769578063d3fc786f146117a4578063db0e6a2f146117f5578063df74dc3a1461180c578063e352858e14611847578063e507944c1461188c578063e5f6b1be146118ba578063f2fde38b146118f5578063f7b37d1b14611946578063f7b4677d1461198b575b600080fd5b3480156102a457600080fd5b506102d1600480360360208110156102bb57600080fd5b81019080803590602001909291905050506119c6565b005b3480156102df57600080fd5b50610322600480360360208110156102f657600080fd5b81019080803573ffffffffffffffffffffffffffffffffffffffff169060200190929190505050611d63565b005b34801561033057600080fd5b5061035d6004803603602081101561034757600080fd5b8101908080359060200190929190505050611e12565b005b34801561036b57600080fd5b506103746121d6565b005b34801561038257600080fd5b506103af6004803603602081101561039957600080fd5b81019080803590602001909291905050506121e1565b005b3480156103bd57600080fd5b506106fd600480360360e08110156103d457600080fd5b8101908080359060200190929190803573ffffffffffffffffffffffffffffffffffffffff1690602001909291908035906020019064010000000081111561041b57600080fd5b82018360208201111561042d57600080fd5b8035906020019184600183028401116401000000008311171561044f57600080fd5b91908080601f016020809104026020016040519081016040528093929190818152602001838380828437600081840152601f19601f820116905080830192505050505050509192919290803590602001906401000000008111156104b257600080fd5b8201836020820111156104c457600080fd5b803590602001918460018302840111640100000000831117156104e657600080fd5b91908080601f016020809104026020016040519081016040528093929190818152602001838380828437600081840152601f19601f8201169050808301925050505050505091929192908035906020019064010000000081111561054957600080fd5b82018360208201111561055b57600080fd5b8035906020019184600183028401116401000000008311171561057d57600080fd5b91908080601f016020809104026020016040519081016040528093929190818152602001838380828437600081840152601f19601f820116905080830192505050505050509192919290803590602001906401000000008111156105e057600080fd5b8201836020820111156105f257600080fd5b8035906020019184600183028401116401000000008311171561061457600080fd5b91908080601f016020809104026020016040519081016040528093929190818152602001838380828437600081840152601f19601f8201169050808301925050505050505091929192908035906020019064010000000081111561067757600080fd5b82018360208201111561068957600080fd5b803590602001918460018302840111640100000000831117156106ab57600080fd5b91908080601f016020809104026020016040519081016040528093929190818152602001838380828437600081840152601f19601f82011690508083019250505050505050919291929050505061257e565b005b61072b6004803603602081101561071557600080fd5b8101908080359060200190929190505050612b16565b005b34801561073957600080fd5b50610742613039565b005b34801561075057600080fd5b5061077d6004803603602081101561076757600080fd5b81019080803590602001909291905050506130ee565b604051808c81526020018b81526020018a73ffffffffffffffffffffffffffffffffffffffff1673ffffffffffffffffffffffffffffffffffffffff1681526020018973ffffffffffffffffffffffffffffffffffffffff1673ffffffffffffffffffffffffffffffffffffffff1681526020018060200180602001806020018060200188601e81111561080d57fe5b60ff1681526020018781526020018673ffffffffffffffffffffffffffffffffffffffff1673ffffffffffffffffffffffffffffffffffffffff16815260200185810385528c818151815260200191508051906020019080838360005b8381101561088557808201518184015260208101905061086a565b50505050905090810190601f1680156108b25780820380516001836020036101000a031916815260200191505b5085810384528b818151815260200191508051906020019080838360005b838110156108eb5780820151818401526020810190506108d0565b50505050905090810190601f1680156109185780820380516001836020036101000a031916815260200191505b5085810383528a818151815260200191508051906020019080838360005b83811015610951578082015181840152602081019050610936565b50505050905090810190601f16801561097e5780820380516001836020036101000a031916815260200191505b50858103825289818151815260200191508051906020019080838360005b838110156109b757808201518184015260208101905061099c565b50505050905090810190601f1680156109e45780820380516001836020036101000a031916815260200191505b509f5050505050505050505050505050505060405180910390f35b348015610a0b57600080fd5b50610a3860048036036020811015610a2257600080fd5b810190808035906020019092919050505061387a565b005b610a6660048036036020811015610a5057600080fd5b8101908080359060200190929190505050613c3e565b005b610a9460048036036020811015610a7e57600080fd5b8101908080359060200190929190505050614161565b005b348015610aa257600080fd5b50610ae560048036036020811015610ab957600080fd5b81019080803573ffffffffffffffffffffffffffffffffffffffff169060200190929190505050614684565b604051808215151515815260200191505060405180910390f35b348015610b0b57600080fd5b50610b3860048036036020811015610b2257600080fd5b81019080803590602001909291905050506146a1565b604051808b81526020018a81526020018973ffffffffffffffffffffffffffffffffffffffff1673ffffffffffffffffffffffffffffffffffffffff1681526020018873ffffffffffffffffffffffffffffffffffffffff1673ffffffffffffffffffffffffffffffffffffffff168152602001806020018060200180602001806020018060200187601e811115610bcc57fe5b60ff16815260200186810386528c818151815260200191508051906020019080838360005b83811015610c0c578082015181840152602081019050610bf1565b50505050905090810190601f168015610c395780820380516001836020036101000a031916815260200191505b5086810385528b818151815260200191508051906020019080838360005b83811015610c72578082015181840152602081019050610c57565b50505050905090810190601f168015610c9f5780820380516001836020036101000a031916815260200191505b5086810384528a818151815260200191508051906020019080838360005b83811015610cd8578082015181840152602081019050610cbd565b50505050905090810190601f168015610d055780820380516001836020036101000a031916815260200191505b50868103835289818151815260200191508051906020019080838360005b83811015610d3e578082015181840152602081019050610d23565b50505050905090810190601f168015610d6b5780820380516001836020036101000a031916815260200191505b50868103825288818151815260200191508051906020019080838360005b83811015610da4578082015181840152602081019050610d89565b50505050905090810190601f168015610dd15780820380516001836020036101000a031916815260200191505b509f5050505050505050505050505050505060405180910390f35b348015610df857600080fd5b50610e01614e1f565b005b348015610e0f57600080fd5b50610e18614e2a565b005b348015610e2657600080fd5b50610e5f60048036036040811015610e3d57600080fd5b8101908080359060200190929190803515159060200190929190505050614e35565b005b348015610e6d57600080fd5b50610e9a60048036036020811015610e8457600080fd5b81019080803590602001909291905050506151d3565b005b348015610ea857600080fd5b50610eb1615597565b005b348015610ebf57600080fd5b50610f0260048036036020811015610ed657600080fd5b81019080803573ffffffffffffffffffffffffffffffffffffffff1690602001909291905050506156f8565b005b348015610f1057600080fd5b50610f4760048036036040811015610f2757600080fd5b8101908080359060200190929190803590602001909291905050506157a7565b005b348015610f5557600080fd5b50610f9860048036036020811015610f6c57600080fd5b81019080803573ffffffffffffffffffffffffffffffffffffffff169060200190929190505050615b8f565b604051808215151515815260200191505060405180910390f35b348015610fbe57600080fd5b5061100160048036036020811015610fd557600080fd5b81019080803573ffffffffffffffffffffffffffffffffffffffff169060200190929190505050615bac565b005b34801561100f57600080fd5b506110526004803603602081101561102657600080fd5b81019080803573ffffffffffffffffffffffffffffffffffffffff169060200190929190505050615c5b565b604051808215151515815260200191505060405180910390f35b34801561107857600080fd5b506110a56004803603602081101561108f57600080fd5b8101908080359060200190929190505050615c78565b005b3480156110b357600080fd5b506110f6600480360360208110156110ca57600080fd5b81019080803573ffffffffffffffffffffffffffffffffffffffff16906020019092919050505061603c565b005b34801561110457600080fd5b5061110d6160eb565b005b34801561111b57600080fd5b506111486004803603602081101561113257600080fd5b81019080803590602001909291905050506160f6565b005b34801561115657600080fd5b5061118d6004803603604081101561116d57600080fd5b810190808035906020019092919080359060200190929190505050616493565b005b34801561119b57600080fd5b506111c8600480360360208110156111b257600080fd5b810190808035906020019092919050505061687b565b005b3480156111d657600080fd5b50611203600480360360208110156111ed57600080fd5b8101908080359060200190929190505050616c3f565b005b34801561121157600080fd5b5061121a616fdc565b604051808273ffffffffffffffffffffffffffffffffffffffff1673ffffffffffffffffffffffffffffffffffffffff16815260200191505060405180910390f35b34801561126857600080fd5b506112ab6004803603602081101561127f57600080fd5b81019080803573ffffffffffffffffffffffffffffffffffffffff169060200190929190505050617005565b005b3480156112b957600080fd5b506112fc600480360360208110156112d057600080fd5b81019080803573ffffffffffffffffffffffffffffffffffffffff1690602001909291905050506170b4565b604051808215151515815260200191505060405180910390f35b34801561132257600080fd5b5061132b6170d1565b604051808215151515815260200191505060405180910390f35b34801561135157600080fd5b5061137e6004803603602081101561136857600080fd5b8101908080359060200190929190505050617128565b005b34801561138c57600080fd5b506113b9600480360360208110156113a357600080fd5b81019080803590602001909291905050506174c5565b005b3480156113c757600080fd5b5061140a600480360360208110156113de57600080fd5b81019080803573ffffffffffffffffffffffffffffffffffffffff169060200190929190505050617889565b604051808215151515815260200191505060405180910390f35b6114506004803603602081101561143a57600080fd5b81019080803590602001909291905050506178a6565b005b34801561145e57600080fd5b506114956004803603604081101561147557600080fd5b810190808035906020019092919080359060200190929190505050617dc9565b005b3480156114a357600080fd5b506114e6600480360360208110156114ba57600080fd5b81019080803573ffffffffffffffffffffffffffffffffffffffff16906020019092919050505061818a565b604051808215151515815260200191505060405180910390f35b34801561150c57600080fd5b506115156181a7565b005b34801561152357600080fd5b506115506004803603602081101561153a57600080fd5b81019080803590602001909291905050506181b2565b005b34801561155e57600080fd5b5061158b6004803603602081101561157557600080fd5b810190808035906020019092919050505061854f565b604051808981526020018881526020018773ffffffffffffffffffffffffffffffffffffffff1673ffffffffffffffffffffffffffffffffffffffff1681526020018673ffffffffffffffffffffffffffffffffffffffff1673ffffffffffffffffffffffffffffffffffffffff16815260200180602001806020018573ffffffffffffffffffffffffffffffffffffffff1673ffffffffffffffffffffffffffffffffffffffff16815260200184601e81111561164557fe5b60ff168152602001838103835287818151815260200191508051906020019080838360005b8381101561168557808201518184015260208101905061166a565b50505050905090810190601f1680156116b25780820380516001836020036101000a031916815260200191505b50838103825286818151815260200191508051906020019080838360005b838110156116eb5780820151818401526020810190506116d0565b50505050905090810190601f1680156117185780820380516001836020036101000a031916815260200191505b509a505050505050505050505060405180910390f35b34801561173a57600080fd5b506117676004803603602081101561175157600080fd5b8101908080359060200190929190505050618cb3565b005b34801561177557600080fd5b506117a26004803603602081101561178c57600080fd5b8101908080359060200190929190505050619077565b005b3480156117b057600080fd5b506117f3600480360360208110156117c757600080fd5b81019080803573ffffffffffffffffffffffffffffffffffffffff16906020019092919050505061943b565b005b34801561180157600080fd5b5061180a6194ea565b005b34801561181857600080fd5b506118456004803603602081101561182f57600080fd5b81019080803590602001909291905050506194f5565b005b34801561185357600080fd5b5061188a6004803603604081101561186a57600080fd5b810190808035906020019092919080359060200190929190505050619892565b005b6118b8600480360360208110156118a257600080fd5b8101908080359060200190929190505050619c7a565b005b3480156118c657600080fd5b506118f3600480360360208110156118dd57600080fd5b810190808035906020019092919050505061a19d565b005b34801561190157600080fd5b506119446004803603602081101561191857600080fd5b81019080803573ffffffffffffffffffffffffffffffffffffffff16906020019092919050505061a560565b005b34801561195257600080fd5b506119896004803603604081101561196957600080fd5b81019080803590602001909291908035906020019092919050505061a60e565b005b34801561199757600080fd5b506119c4600480360360208110156119ae57600080fd5b810190808035906020019092919050505061a9cf565b005b6119cf33615b8f565b1515611a69576040517f08c379a00000000000000000000000000000000000000000000000000000000081526004018080602001828103825260408152602001807f4552524f52204d6573736167653a20546865206164647265737320646f65736e81526020017fc2b474206d61746368207769746820616e79206461697279666163746f72792e81525060400191505060405180910390fd5b806009600082815260200190815260200160002060020160009054906101000a900460ff161515611b28576040517f08c379a00000000000000000000000000000000000000000000000000000000081526004018080602001828103825260298152602001807f546869732055504320646f6573206e6f7420657869737420696e206974656d7381526020017f206d617070696e672e000000000000000000000000000000000000000000000081525060400191505060405180910390fd5b6009600083815260200190815260200160002060020160019054906101000a900473ffffffffffffffffffffffffffffffffffffffff168073ffffffffffffffffffffffffffffffffffffffff163373ffffffffffffffffffffffffffffffffffffffff16141515611b9957600080fd5b8260096040805190810160405280601681526020017f4d696c6b206973206e6f742070726f636573736564210000000000000000000081525081601e811115611bde57fe5b60096000858152602001908152602001600020600b0160019054906101000a900460ff16601e811115611c0d57fe5b1481901515611cb7576040517f08c379a00000000000000000000000000000000000000000000000000000000081526004018080602001828103825283818151815260200191508051906020019080838360005b83811015611c7c578082015181840152602081019050611c61565b50505050905090810190601f168015611ca95780820380516001836020036101000a031916815260200191505b509250505060405180910390fd5b50600f60096000888152602001908152602001600020600b0160016101000a81548160ff0219169083601e811115611ceb57fe5b02179055507f808581d600d3c2d89b22159b03fea1400d722bba3ec46c85e5ade159f6fb81698633604051808381526020018273ffffffffffffffffffffffffffffffffffffffff1673ffffffffffffffffffffffffffffffffffffffff1681526020019250505060405180910390a1505050505050565b611d6c33615c5b565b1515611e06576040517f08c379a000000000000000000000000000000000000000000000000000000000815260040180806020018281038252603c8152602001807f4552524f52204d6573736167653a20546865206164647265737320646f65736e81526020017fc2b474206d61746368207769746820616e792072657461696c65722e0000000081525060400191505060405180910390fd5b611e0f8161ad93565b50565b611e1b33615b8f565b1515611eb5576040517f08c379a00000000000000000000000000000000000000000000000000000000081526004018080602001828103825260408152602001807f4552524f52204d6573736167653a20546865206164647265737320646f65736e81526020017fc2b474206d61746368207769746820616e79206461697279666163746f72792e81525060400191505060405180910390fd5b806009600082815260200190815260200160002060020160009054906101000a900460ff161515611f74576040517f08c379a00000000000000000000000000000000000000000000000000000000081526004018080602001828103825260298152602001807f546869732055504320646f6573206e6f7420657869737420696e206974656d7381526020017f206d617070696e672e000000000000000000000000000000000000000000000081525060400191505060405180910390fd5b6009600083815260200190815260200160002060030160009054906101000a900473ffffffffffffffffffffffffffffffffffffffff168073ffffffffffffffffffffffffffffffffffffffff163373ffffffffffffffffffffffffffffffffffffffff16141515611fe557600080fd5b82600b606060405190810160405280602581526020017f4d696c6b206973206e6f7420726574616b656e2062792064616972792066616381526020017f746f72792100000000000000000000000000000000000000000000000000000081525081601e81111561205157fe5b60096000858152602001908152602001600020600b0160019054906101000a900460ff16601e81111561208057fe5b148190151561212a576040517f08c379a00000000000000000000000000000000000000000000000000000000081526004018080602001828103825283818151815260200191508051906020019080838360005b838110156120ef5780820151818401526020810190506120d4565b50505050905090810190601f16801561211c5780820380516001836020036101000a031916815260200191505b509250505060405180910390fd5b50600c60096000888152602001908152602001600020600b0160016101000a81548160ff0219169083601e81111561215e57fe5b02179055507fe5d8358192f606c502a134584aaecdfc847e903576870b8a53177c2b1da324298633604051808381526020018273ffffffffffffffffffffffffffffffffffffffff1673ffffffffffffffffffffffffffffffffffffffff1681526020019250505060405180910390a1505050505050565b6121df3361aded565b565b6121ea33614684565b1515612284576040517f08c379a000000000000000000000000000000000000000000000000000000000815260040180806020018281038252603c8152602001807f4552524f52204d6573736167653a20546865206164647265737320646f65736e81526020017fc2b474206d61746368207769746820616e792072657461696c65722e0000000081525060400191505060405180910390fd5b806009600082815260200190815260200160002060020160009054906101000a900460ff161515612343576040517f08c379a00000000000000000000000000000000000000000000000000000000081526004018080602001828103825260298152602001807f546869732055504320646f6573206e6f7420657869737420696e206974656d7381526020017f206d617070696e672e000000000000000000000000000000000000000000000081525060400191505060405180910390fd5b6009600083815260200190815260200160002060020160019054906101000a900473ffffffffffffffffffffffffffffffffffffffff168073ffffffffffffffffffffffffffffffffffffffff163373ffffffffffffffffffffffffffffffffffffffff161415156123b457600080fd5b8260196040805190810160405280602081526020017f4d696c6b206973206e6f7420736f6c6420746f2073757065726d61726b65742181525081601e8111156123f957fe5b60096000858152602001908152602001600020600b0160019054906101000a900460ff16601e81111561242857fe5b14819015156124d2576040517f08c379a00000000000000000000000000000000000000000000000000000000081526004018080602001828103825283818151815260200191508051906020019080838360005b8381101561249757808201518184015260208101905061247c565b50505050905090810190601f1680156124c45780820380516001836020036101000a031916815260200191505b509250505060405180910390fd5b50601a60096000888152602001908152602001600020600b0160016101000a81548160ff0219169083601e81111561250657fe5b02179055507fee015a3ba9b08c68b9616e901511bc6d37c25b1ec9a38aa3d8f77ce3daa84b3b8633604051808381526020018273ffffffffffffffffffffffffffffffffffffffff1673ffffffffffffffffffffffffffffffffffffffff1681526020019250505060405180910390a1505050505050565b6125873361818a565b1515612621576040517f08c379a000000000000000000000000000000000000000000000000000000000815260040180806020018281038252603d8152602001807f4552524f52204d6573736167653a20546865206164647265737320646f65736e81526020017fc2b474206d61746368207769746820616e7920706f756c74657265722e00000081525060400191505060405180910390fd5b61262961b85e565b6102606040519081016040528060085481526020018981526020016001151581526020018873ffffffffffffffffffffffffffffffffffffffff1681526020018873ffffffffffffffffffffffffffffffffffffffff1681526020018781526020018681526020018581526020018481526020016008548a018152602001838152602001600081526020016000151581526020016000601e8111156126ca57fe5b8152602001600073ffffffffffffffffffffffffffffffffffffffff168152602001600073ffffffffffffffffffffffffffffffffffffffff168152602001600073ffffffffffffffffffffffffffffffffffffffff168152602001600073ffffffffffffffffffffffffffffffffffffffff168152602001600073ffffffffffffffffffffffffffffffffffffffff16815250905080600960008a8152602001908152602001600020600082015181600001556020820151816001015560408201518160020160006101000a81548160ff02191690831515021790555060608201518160020160016101000a81548173ffffffffffffffffffffffffffffffffffffffff021916908373ffffffffffffffffffffffffffffffffffffffff16021790555060808201518160030160006101000a81548173ffffffffffffffffffffffffffffffffffffffff021916908373ffffffffffffffffffffffffffffffffffffffff16021790555060a082015181600401908051906020019061285292919061b99a565b5060c082015181600501908051906020019061286f92919061b99a565b5060e082015181600601908051906020019061288c92919061b99a565b506101008201518160070190805190602001906128aa92919061b99a565b5061012082015181600801556101408201518160090190805190602001906128d392919061b99a565b5061016082015181600a015561018082015181600b0160006101000a81548160ff0219169083151502179055506101a082015181600b0160016101000a81548160ff0219169083601e81111561292557fe5b02179055506101c082015181600b0160026101000a81548173ffffffffffffffffffffffffffffffffffffffff021916908373ffffffffffffffffffffffffffffffffffffffff1602179055506101e082015181600c0160006101000a81548173ffffffffffffffffffffffffffffffffffffffff021916908373ffffffffffffffffffffffffffffffffffffffff16021790555061020082015181600d0160006101000a81548173ffffffffffffffffffffffffffffffffffffffff021916908373ffffffffffffffffffffffffffffffffffffffff16021790555061022082015181600e0160006101000a81548173ffffffffffffffffffffffffffffffffffffffff021916908373ffffffffffffffffffffffffffffffffffffffff16021790555061024082015181600f0160006101000a81548173ffffffffffffffffffffffffffffffffffffffff021916908373ffffffffffffffffffffffffffffffffffffffff1602179055509050506001600854016008819055507f982e41a935e1da21f24c2070696f99a253473f3823546ff33a7d6e74a1bfd5888833604051808381526020018273ffffffffffffffffffffffffffffffffffffffff1673ffffffffffffffffffffffffffffffffffffffff1681526020019250505060405180910390a15050505050505050565b612b1f336170b4565b1515612bb9576040517f08c379a000000000000000000000000000000000000000000000000000000000815260040180806020018281038252603f8152602001807f4552524f52204d6573736167653a20546865206164647265737320646f65736e81526020017fc2b474206d61746368207769746820616e79206469737472696275746f722e0081525060400191505060405180910390fd5b806009600082815260200190815260200160002060020160009054906101000a900460ff161515612c78576040517f08c379a00000000000000000000000000000000000000000000000000000000081526004018080602001828103825260298152602001807f546869732055504320646f6573206e6f7420657869737420696e206974656d7381526020017f206d617070696e672e000000000000000000000000000000000000000000000081525060400191505060405180910390fd5b816010606060405190810160405280602481526020017f4d696c6b206973206e6f7420666f722073616c6520746f20646973747269627581526020017f746f72210000000000000000000000000000000000000000000000000000000081525081601e811115612ce457fe5b60096000858152602001908152602001600020600b0160019054906101000a900460ff16601e811115612d1357fe5b1481901515612dbd576040517f08c379a00000000000000000000000000000000000000000000000000000000081526004018080602001828103825283818151815260200191508051906020019080838360005b83811015612d82578082015181840152602081019050612d67565b50505050905090810190601f168015612daf5780820380516001836020036101000a031916815260200191505b509250505060405180910390fd5b5060096000868152602001908152602001600020600a0154803410151515612de457600080fd5b85336009600089815260200190815260200160002060020160016101000a81548173ffffffffffffffffffffffffffffffffffffffff021916908373ffffffffffffffffffffffffffffffffffffffff1602179055503360096000898152602001908152602001600020600c0160006101000a81548173ffffffffffffffffffffffffffffffffffffffff021916908373ffffffffffffffffffffffffffffffffffffffff160217905550601160096000898152602001908152602001600020600b0160016101000a81548160ff0219169083601e811115612ec257fe5b021790555060096000888152602001908152602001600020600b0160029054906101000a900473ffffffffffffffffffffffffffffffffffffffff1673ffffffffffffffffffffffffffffffffffffffff166108fc600960008a8152602001908152602001600020600a01549081150290604051600060405180830381858888f19350505050158015612f59573d6000803e3d6000fd5b507fc0fd849215106d6dd9cfcc27ba962518764ef3fb358c372bb674c52d02e6d42b8733604051808381526020018273ffffffffffffffffffffffffffffffffffffffff1673ffffffffffffffffffffffffffffffffffffffff1681526020019250505060405180910390a1600060096000838152602001908152602001600020600a01549050600081340390503373ffffffffffffffffffffffffffffffffffffffff166108fc829081150290604051600060405180830381858888f1935050505015801561302d573d6000803e3d6000fd5b50505050505050505050565b3073ffffffffffffffffffffffffffffffffffffffff16638da5cb5b6040518163ffffffff167c010000000000000000000000000000000000000000000000000000000002815260040160206040518083038186803b15801561309b57600080fd5b505afa1580156130af573d6000803e3d6000fd5b505050506040513d60208110156130c557600080fd5b810190808051906020019092919050505073ffffffffffffffffffffffffffffffffffffffff16ff5b60008060008060608060608060008060008b6009600082815260200190815260200160002060020160009054906101000a900460ff1615156131be576040517f08c379a00000000000000000000000000000000000000000000000000000000081526004018080602001828103825260298152602001807f546869732055504320646f6573206e6f7420657869737420696e206974656d7381526020017f206d617070696e672e000000000000000000000000000000000000000000000081525060400191505060405180910390fd5b6131c661b85e565b600960008f8152602001908152602001600020610260604051908101604052908160008201548152602001600182015481526020016002820160009054906101000a900460ff161515151581526020016002820160019054906101000a900473ffffffffffffffffffffffffffffffffffffffff1673ffffffffffffffffffffffffffffffffffffffff1673ffffffffffffffffffffffffffffffffffffffff1681526020016003820160009054906101000a900473ffffffffffffffffffffffffffffffffffffffff1673ffffffffffffffffffffffffffffffffffffffff1673ffffffffffffffffffffffffffffffffffffffff168152602001600482018054600181600116156101000203166002900480601f01602080910402602001604051908101604052809291908181526020018280546001816001161561010002031660029004801561335a5780601f1061332f5761010080835404028352916020019161335a565b820191906000526020600020905b81548152906001019060200180831161333d57829003601f168201915b50505050508152602001600582018054600181600116156101000203166002900480601f0160208091040260200160405190810160405280929190818152602001828054600181600116156101000203166002900480156133fc5780601f106133d1576101008083540402835291602001916133fc565b820191906000526020600020905b8154815290600101906020018083116133df57829003601f168201915b50505050508152602001600682018054600181600116156101000203166002900480601f01602080910402602001604051908101604052809291908181526020018280546001816001161561010002031660029004801561349e5780601f106134735761010080835404028352916020019161349e565b820191906000526020600020905b81548152906001019060200180831161348157829003601f168201915b50505050508152602001600782018054600181600116156101000203166002900480601f0160208091040260200160405190810160405280929190818152602001828054600181600116156101000203166002900480156135405780601f1061351557610100808354040283529160200191613540565b820191906000526020600020905b81548152906001019060200180831161352357829003601f168201915b5050505050815260200160088201548152602001600982018054600181600116156101000203166002900480601f0160208091040260200160405190810160405280929190818152602001828054600181600116156101000203166002900480156135ec5780601f106135c1576101008083540402835291602001916135ec565b820191906000526020600020905b8154815290600101906020018083116135cf57829003601f168201915b50505050508152602001600a8201548152602001600b820160009054906101000a900460ff16151515158152602001600b820160019054906101000a900460ff16601e81111561363857fe5b601e81111561364357fe5b8152602001600b820160029054906101000a900473ffffffffffffffffffffffffffffffffffffffff1673ffffffffffffffffffffffffffffffffffffffff1673ffffffffffffffffffffffffffffffffffffffff168152602001600c820160009054906101000a900473ffffffffffffffffffffffffffffffffffffffff1673ffffffffffffffffffffffffffffffffffffffff1673ffffffffffffffffffffffffffffffffffffffff168152602001600d820160009054906101000a900473ffffffffffffffffffffffffffffffffffffffff1673ffffffffffffffffffffffffffffffffffffffff1673ffffffffffffffffffffffffffffffffffffffff168152602001600e820160009054906101000a900473ffffffffffffffffffffffffffffffffffffffff1673ffffffffffffffffffffffffffffffffffffffff1673ffffffffffffffffffffffffffffffffffffffff168152602001600f820160009054906101000a900473ffffffffffffffffffffffffffffffffffffffff1673ffffffffffffffffffffffffffffffffffffffff1673ffffffffffffffffffffffffffffffffffffffff1681525050905080600001519c5080602001519b5080606001519a50806080015199508060a0015198508060c0015197508060e0015196508061010001519550806101a0015194508061016001519350806101e0015192508c8c8c8c8c8c8c8c8c8c8c9c509c509c509c509c509c509c509c509c509c509c50505091939597999b90929496989a50565b61388333615b8f565b151561391d576040517f08c379a00000000000000000000000000000000000000000000000000000000081526004018080602001828103825260408152602001807f4552524f52204d6573736167653a20546865206164647265737320646f65736e81526020017fc2b474206d61746368207769746820616e79206461697279666163746f72792e81525060400191505060405180910390fd5b806009600082815260200190815260200160002060020160009054906101000a900460ff1615156139dc576040517f08c379a00000000000000000000000000000000000000000000000000000000081526004018080602001828103825260298152602001807f546869732055504320646f6573206e6f7420657869737420696e206974656d7381526020017f206d617070696e672e000000000000000000000000000000000000000000000081525060400191505060405180910390fd5b6009600083815260200190815260200160002060020160019054906101000a900473ffffffffffffffffffffffffffffffffffffffff168073ffffffffffffffffffffffffffffffffffffffff163373ffffffffffffffffffffffffffffffffffffffff16141515613a4d57600080fd5b826004606060405190810160405280602481526020017f4d696c6b206973206e6f74207368697070656420746f2064616972796661637481526020017f6f7279210000000000000000000000000000000000000000000000000000000081525081601e811115613ab957fe5b60096000858152602001908152602001600020600b0160019054906101000a900460ff16601e811115613ae857fe5b1481901515613b92576040517f08c379a00000000000000000000000000000000000000000000000000000000081526004018080602001828103825283818151815260200191508051906020019080838360005b83811015613b57578082015181840152602081019050613b3c565b50505050905090810190601f168015613b845780820380516001836020036101000a031916815260200191505b509250505060405180910390fd5b50600560096000888152602001908152602001600020600b0160016101000a81548160ff0219169083601e811115613bc657fe5b02179055507fc25ff97d9b1d89c7994f79e5873d0aa47574e6420094529d3911383680d8598e8633604051808381526020018273ffffffffffffffffffffffffffffffffffffffff1673ffffffffffffffffffffffffffffffffffffffff1681526020019250505060405180910390a1505050505050565b613c4733615b8f565b1515613ce1576040517f08c379a00000000000000000000000000000000000000000000000000000000081526004018080602001828103825260408152602001807f4552524f52204d6573736167653a20546865206164647265737320646f65736e81526020017fc2b474206d61746368207769746820616e79206461697279666163746f72792e81525060400191505060405180910390fd5b806009600082815260200190815260200160002060020160009054906101000a900460ff161515613da0576040517f08c379a00000000000000000000000000000000000000000000000000000000081526004018080602001828103825260298152602001807f546869732055504320646f6573206e6f7420657869737420696e206974656d7381526020017f206d617070696e672e000000000000000000000000000000000000000000000081525060400191505060405180910390fd5b816002606060405190810160405280602581526020017f4d696c6b206973206e6f7420666f722073616c6520746f20646169727966616381526020017f746f72792100000000000000000000000000000000000000000000000000000081525081601e811115613e0c57fe5b60096000858152602001908152602001600020600b0160019054906101000a900460ff16601e811115613e3b57fe5b1481901515613ee5576040517f08c379a00000000000000000000000000000000000000000000000000000000081526004018080602001828103825283818151815260200191508051906020019080838360005b83811015613eaa578082015181840152602081019050613e8f565b50505050905090810190601f168015613ed75780820380516001836020036101000a031916815260200191505b509250505060405180910390fd5b5060096000868152602001908152602001600020600a0154803410151515613f0c57600080fd5b85336009600089815260200190815260200160002060020160016101000a81548173ffffffffffffffffffffffffffffffffffffffff021916908373ffffffffffffffffffffffffffffffffffffffff1602179055503360096000898152602001908152602001600020600b0160026101000a81548173ffffffffffffffffffffffffffffffffffffffff021916908373ffffffffffffffffffffffffffffffffffffffff160217905550600360096000898152602001908152602001600020600b0160016101000a81548160ff0219169083601e811115613fea57fe5b02179055506009600088815260200190815260200160002060030160009054906101000a900473ffffffffffffffffffffffffffffffffffffffff1673ffffffffffffffffffffffffffffffffffffffff166108fc600960008a8152602001908152602001600020600a01549081150290604051600060405180830381858888f19350505050158015614081573d6000803e3d6000fd5b507f6a0c6f1a96c55d493e5cecccdcaf0e666626c84ebe4519a8badcb9e4a73cd8a38733604051808381526020018273ffffffffffffffffffffffffffffffffffffffff1673ffffffffffffffffffffffffffffffffffffffff1681526020019250505060405180910390a1600060096000838152602001908152602001600020600a01549050600081340390503373ffffffffffffffffffffffffffffffffffffffff166108fc829081150290604051600060405180830381858888f19350505050158015614155573d6000803e3d6000fd5b50505050505050505050565b61416a33614684565b1515614204576040517f08c379a000000000000000000000000000000000000000000000000000000000815260040180806020018281038252603c8152602001807f4552524f52204d6573736167653a20546865206164647265737320646f65736e81526020017fc2b474206d61746368207769746820616e792072657461696c65722e0000000081525060400191505060405180910390fd5b806009600082815260200190815260200160002060020160009054906101000a900460ff1615156142c3576040517f08c379a00000000000000000000000000000000000000000000000000000000081526004018080602001828103825260298152602001807f546869732055504320646f6573206e6f7420657869737420696e206974656d7381526020017f206d617070696e672e000000000000000000000000000000000000000000000081525060400191505060405180910390fd5b816014606060405190810160405280602181526020017f4d696c6b206973206e6f7420666f722073616c6520746f2072657461696c657281526020017f210000000000000000000000000000000000000000000000000000000000000081525081601e81111561432f57fe5b60096000858152602001908152602001600020600b0160019054906101000a900460ff16601e81111561435e57fe5b1481901515614408576040517f08c379a00000000000000000000000000000000000000000000000000000000081526004018080602001828103825283818151815260200191508051906020019080838360005b838110156143cd5780820151818401526020810190506143b2565b50505050905090810190601f1680156143fa5780820380516001836020036101000a031916815260200191505b509250505060405180910390fd5b5060096000868152602001908152602001600020600a015480341015151561442f57600080fd5b85336009600089815260200190815260200160002060020160016101000a81548173ffffffffffffffffffffffffffffffffffffffff021916908373ffffffffffffffffffffffffffffffffffffffff1602179055503360096000898152602001908152602001600020600d0160006101000a81548173ffffffffffffffffffffffffffffffffffffffff021916908373ffffffffffffffffffffffffffffffffffffffff160217905550601560096000898152602001908152602001600020600b0160016101000a81548160ff0219169083601e81111561450d57fe5b021790555060096000888152602001908152602001600020600c0160009054906101000a900473ffffffffffffffffffffffffffffffffffffffff1673ffffffffffffffffffffffffffffffffffffffff166108fc600960008a8152602001908152602001600020600a01549081150290604051600060405180830381858888f193505050501580156145a4573d6000803e3d6000fd5b507f1107334a46631f17a84bb332b2190ce4ac661bb878324dd995a9d5979f67208b8733604051808381526020018273ffffffffffffffffffffffffffffffffffffffff1673ffffffffffffffffffffffffffffffffffffffff1681526020019250505060405180910390a1600060096000838152602001908152602001600020600a01549050600081340390503373ffffffffffffffffffffffffffffffffffffffff166108fc829081150290604051600060405180830381858888f19350505050158015614678573d6000803e3d6000fd5b50505050505050505050565b600061469a82600461ae4790919063ffffffff16565b9050919050565b600080600080606080606080606060008a6009600082815260200190815260200160002060020160009054906101000a900460ff161515614770576040517f08c379a00000000000000000000000000000000000000000000000000000000081526004018080602001828103825260298152602001807f546869732055504320646f6573206e6f7420657869737420696e206974656d7381526020017f206d617070696e672e000000000000000000000000000000000000000000000081525060400191505060405180910390fd5b61477861b85e565b600960008e8152602001908152602001600020610260604051908101604052908160008201548152602001600182015481526020016002820160009054906101000a900460ff161515151581526020016002820160019054906101000a900473ffffffffffffffffffffffffffffffffffffffff1673ffffffffffffffffffffffffffffffffffffffff1673ffffffffffffffffffffffffffffffffffffffff1681526020016003820160009054906101000a900473ffffffffffffffffffffffffffffffffffffffff1673ffffffffffffffffffffffffffffffffffffffff1673ffffffffffffffffffffffffffffffffffffffff168152602001600482018054600181600116156101000203166002900480601f01602080910402602001604051908101604052809291908181526020018280546001816001161561010002031660029004801561490c5780601f106148e15761010080835404028352916020019161490c565b820191906000526020600020905b8154815290600101906020018083116148ef57829003601f168201915b50505050508152602001600582018054600181600116156101000203166002900480601f0160208091040260200160405190810160405280929190818152602001828054600181600116156101000203166002900480156149ae5780601f10614983576101008083540402835291602001916149ae565b820191906000526020600020905b81548152906001019060200180831161499157829003601f168201915b50505050508152602001600682018054600181600116156101000203166002900480601f016020809104026020016040519081016040528092919081815260200182805460018160011615610100020316600290048015614a505780601f10614a2557610100808354040283529160200191614a50565b820191906000526020600020905b815481529060010190602001808311614a3357829003601f168201915b50505050508152602001600782018054600181600116156101000203166002900480601f016020809104026020016040519081016040528092919081815260200182805460018160011615610100020316600290048015614af25780601f10614ac757610100808354040283529160200191614af2565b820191906000526020600020905b815481529060010190602001808311614ad557829003601f168201915b5050505050815260200160088201548152602001600982018054600181600116156101000203166002900480601f016020809104026020016040519081016040528092919081815260200182805460018160011615610100020316600290048015614b9e5780601f10614b7357610100808354040283529160200191614b9e565b820191906000526020600020905b815481529060010190602001808311614b8157829003601f168201915b50505050508152602001600a8201548152602001600b820160009054906101000a900460ff16151515158152602001600b820160019054906101000a900460ff16601e811115614bea57fe5b601e811115614bf557fe5b8152602001600b820160029054906101000a900473ffffffffffffffffffffffffffffffffffffffff1673ffffffffffffffffffffffffffffffffffffffff1673ffffffffffffffffffffffffffffffffffffffff168152602001600c820160009054906101000a900473ffffffffffffffffffffffffffffffffffffffff1673ffffffffffffffffffffffffffffffffffffffff1673ffffffffffffffffffffffffffffffffffffffff168152602001600d820160009054906101000a900473ffffffffffffffffffffffffffffffffffffffff1673ffffffffffffffffffffffffffffffffffffffff1673ffffffffffffffffffffffffffffffffffffffff168152602001600e820160009054906101000a900473ffffffffffffffffffffffffffffffffffffffff1673ffffffffffffffffffffffffffffffffffffffff1673ffffffffffffffffffffffffffffffffffffffff168152602001600f820160009054906101000a900473ffffffffffffffffffffffffffffffffffffffff1673ffffffffffffffffffffffffffffffffffffffff1673ffffffffffffffffffffffffffffffffffffffff1681525050905080600001519b5080602001519a5080606001519950806080015198508060a0015197508060c0015196508060e00151955080610100015194508061014001519350806101a0015192508b8b8b8b8b8b8b8b8b8b9b509b509b509b509b509b509b509b509b509b5050509193959799509193959799565b614e283361af6a565b565b614e333361afc4565b565b614e3e33615b8f565b1515614ed8576040517f08c379a00000000000000000000000000000000000000000000000000000000081526004018080602001828103825260408152602001807f4552524f52204d6573736167653a20546865206164647265737320646f65736e81526020017fc2b474206d61746368207769746820616e79206461697279666163746f72792e81525060400191505060405180910390fd5b816009600082815260200190815260200160002060020160009054906101000a900460ff161515614f97576040517f08c379a00000000000000000000000000000000000000000000000000000000081526004018080602001828103825260298152602001807f546869732055504320646f6573206e6f7420657869737420696e206974656d7381526020017f206d617070696e672e000000000000000000000000000000000000000000000081525060400191505060405180910390fd5b6009600084815260200190815260200160002060020160019054906101000a900473ffffffffffffffffffffffffffffffffffffffff168073ffffffffffffffffffffffffffffffffffffffff163373ffffffffffffffffffffffffffffffffffffffff1614151561500857600080fd5b836005606060405190810160405280602581526020017f4d696c6b206973206e6f7420726563656976656420627920646169727966616381526020017f746f72792100000000000000000000000000000000000000000000000000000081525081601e81111561507457fe5b60096000858152602001908152602001600020600b0160019054906101000a900460ff16601e8111156150a357fe5b148190151561514d576040517f08c379a00000000000000000000000000000000000000000000000000000000081526004018080602001828103825283818151815260200191508051906020019080838360005b838110156151125780820151818401526020810190506150f7565b50505050905090810190601f16801561513f5780820380516001836020036101000a031916815260200191505b509250505060405180910390fd5b50851561519157600760096000898152602001908152602001600020600b0160016101000a81548160ff0219169083601e81111561518757fe5b02179055506151ca565b600860096000898152602001908152602001600020600b0160016101000a81548160ff0219169083601e8111156151c457fe5b02179055505b50505050505050565b6151dc3361818a565b1515615276576040517f08c379a000000000000000000000000000000000000000000000000000000000815260040180806020018281038252603d8152602001807f4552524f52204d6573736167653a20546865206164647265737320646f65736e81526020017fc2b474206d61746368207769746820616e7920706f756c74657265722e00000081525060400191505060405180910390fd5b806009600082815260200190815260200160002060020160009054906101000a900460ff161515615335576040517f08c379a00000000000000000000000000000000000000000000000000000000081526004018080602001828103825260298152602001807f546869732055504320646f6573206e6f7420657869737420696e206974656d7381526020017f206d617070696e672e000000000000000000000000000000000000000000000081525060400191505060405180910390fd5b6009600083815260200190815260200160002060020160019054906101000a900473ffffffffffffffffffffffffffffffffffffffff168073ffffffffffffffffffffffffffffffffffffffff163373ffffffffffffffffffffffffffffffffffffffff161415156153a657600080fd5b82600c606060405190810160405280602181526020017f4d696c6b206973206e6f74207368697070656420746f20706f756c746572657281526020017f210000000000000000000000000000000000000000000000000000000000000081525081601e81111561541257fe5b60096000858152602001908152602001600020600b0160019054906101000a900460ff16601e81111561544157fe5b14819015156154eb576040517f08c379a00000000000000000000000000000000000000000000000000000000081526004018080602001828103825283818151815260200191508051906020019080838360005b838110156154b0578082015181840152602081019050615495565b50505050905090810190601f1680156154dd5780820380516001836020036101000a031916815260200191505b509250505060405180910390fd5b50600d60096000888152602001908152602001600020600b0160016101000a81548160ff0219169083601e81111561551f57fe5b02179055507f2dba714295451c62bec4bd6995a3dcdea9123d003ad91b2f10b3bcf84919f1598633604051808381526020018273ffffffffffffffffffffffffffffffffffffffff1673ffffffffffffffffffffffffffffffffffffffff1681526020019250505060405180910390a1505050505050565b61559f6170d1565b1515615639576040517f08c379a00000000000000000000000000000000000000000000000000000000081526004018080602001828103825260278152602001807f4552524f52204d6573736167653a2043616c6c6572206973206e6f742074686581526020017f206f776e6572210000000000000000000000000000000000000000000000000081525060400191505060405180910390fd5b600073ffffffffffffffffffffffffffffffffffffffff166000809054906101000a900473ffffffffffffffffffffffffffffffffffffffff1673ffffffffffffffffffffffffffffffffffffffff167f5c486528ec3e3f0ea91181cff8116f02bfa350e03b8b6f12e00765adbb5af85c60405160405180910390a360008060006101000a81548173ffffffffffffffffffffffffffffffffffffffff021916908373ffffffffffffffffffffffffffffffffffffffff160217905550565b615701336170b4565b151561579b576040517f08c379a000000000000000000000000000000000000000000000000000000000815260040180806020018281038252603f8152602001807f4552524f52204d6573736167653a20546865206164647265737320646f65736e81526020017fc2b474206d61746368207769746820616e79206469737472696275746f722e0081525060400191505060405180910390fd5b6157a48161b01e565b50565b6157b033617889565b151561584a576040517f08c379a000000000000000000000000000000000000000000000000000000000815260040180806020018281038252603f8152602001807f4552524f52204d6573736167653a20546865206164647265737320646f65736e81526020017fc2b474206d61746368207769746820616e792073757065726d61726b65742e0081525060400191505060405180910390fd5b816009600082815260200190815260200160002060020160009054906101000a900460ff161515615909576040517f08c379a00000000000000000000000000000000000000000000000000000000081526004018080602001828103825260298152602001807f546869732055504320646f6573206e6f7420657869737420696e206974656d7381526020017f206d617070696e672e000000000000000000000000000000000000000000000081525060400191505060405180910390fd5b6009600084815260200190815260200160002060020160019054906101000a900473ffffffffffffffffffffffffffffffffffffffff168073ffffffffffffffffffffffffffffffffffffffff163373ffffffffffffffffffffffffffffffffffffffff1614151561597a57600080fd5b83601b606060405190810160405280602481526020017f4d696c6b206973206e6f742072656365697665642062792073757065726d617281526020017f6b6574210000000000000000000000000000000000000000000000000000000081525081601e8111156159e657fe5b60096000858152602001908152602001600020600b0160019054906101000a900460ff16601e811115615a1557fe5b1481901515615abf576040517f08c379a00000000000000000000000000000000000000000000000000000000081526004018080602001828103825283818151815260200191508051906020019080838360005b83811015615a84578082015181840152602081019050615a69565b50505050905090810190601f168015615ab15780820380516001836020036101000a031916815260200191505b509250505060405180910390fd5b50601c60096000898152602001908152602001600020600b0160016101000a81548160ff0219169083601e811115615af357fe5b02179055508560096000898152602001908152602001600020600a01819055507f8d644cf87f130fab70df7f036f7be18536982c544a9824f05f517d1b1289c9d0873388604051808481526020018373ffffffffffffffffffffffffffffffffffffffff1673ffffffffffffffffffffffffffffffffffffffff168152602001828152602001935050505060405180910390a150505050505050565b6000615ba582600261ae4790919063ffffffff16565b9050919050565b615bb53361818a565b1515615c4f576040517f08c379a000000000000000000000000000000000000000000000000000000000815260040180806020018281038252603d8152602001807f4552524f52204d6573736167653a20546865206164647265737320646f65736e81526020017fc2b474206d61746368207769746820616e7920706f756c74657265722e00000081525060400191505060405180910390fd5b615c588161b078565b50565b6000615c7182600661ae4790919063ffffffff16565b9050919050565b615c8133615b8f565b1515615d1b576040517f08c379a00000000000000000000000000000000000000000000000000000000081526004018080602001828103825260408152602001807f4552524f52204d6573736167653a20546865206164647265737320646f65736e81526020017fc2b474206d61746368207769746820616e79206461697279666163746f72792e81525060400191505060405180910390fd5b806009600082815260200190815260200160002060020160009054906101000a900460ff161515615dda576040517f08c379a00000000000000000000000000000000000000000000000000000000081526004018080602001828103825260298152602001807f546869732055504320646f6573206e6f7420657869737420696e206974656d7381526020017f206d617070696e672e000000000000000000000000000000000000000000000081525060400191505060405180910390fd5b6009600083815260200190815260200160002060020160019054906101000a900473ffffffffffffffffffffffffffffffffffffffff168073ffffffffffffffffffffffffffffffffffffffff163373ffffffffffffffffffffffffffffffffffffffff16141515615e4b57600080fd5b826008606060405190810160405280602481526020017f4d696c6b206973206e6f74206661696c656420746865207175616c697479207481526020017f657374210000000000000000000000000000000000000000000000000000000081525081601e811115615eb757fe5b60096000858152602001908152602001600020600b0160019054906101000a900460ff16601e811115615ee657fe5b1481901515615f90576040517f08c379a00000000000000000000000000000000000000000000000000000000081526004018080602001828103825283818151815260200191508051906020019080838360005b83811015615f55578082015181840152602081019050615f3a565b50505050905090810190601f168015615f825780820380516001836020036101000a031916815260200191505b509250505060405180910390fd5b50600a60096000888152602001908152602001600020600b0160016101000a81548160ff0219169083601e811115615fc457fe5b02179055507f67ffb28c0e498947b5c148a385ed64809190a87d2a053c40be021f28c69181ec8633604051808381526020018273ffffffffffffffffffffffffffffffffffffffff1673ffffffffffffffffffffffffffffffffffffffff1681526020019250505060405180910390a1505050505050565b61604533615b8f565b15156160df576040517f08c379a00000000000000000000000000000000000000000000000000000000081526004018080602001828103825260408152602001807f4552524f52204d6573736167653a20546865206164647265737320646f65736e81526020017fc2b474206d61746368207769746820616e79206461697279666163746f72792e81525060400191505060405180910390fd5b6160e88161b0d2565b50565b6160f43361b12c565b565b6160ff33614684565b1515616199576040517f08c379a000000000000000000000000000000000000000000000000000000000815260040180806020018281038252603c8152602001807f4552524f52204d6573736167653a20546865206164647265737320646f65736e81526020017fc2b474206d61746368207769746820616e792072657461696c65722e0000000081525060400191505060405180910390fd5b806009600082815260200190815260200160002060020160009054906101000a900460ff161515616258576040517f08c379a00000000000000000000000000000000000000000000000000000000081526004018080602001828103825260298152602001807f546869732055504320646f6573206e6f7420657869737420696e206974656d7381526020017f206d617070696e672e000000000000000000000000000000000000000000000081525060400191505060405180910390fd5b6009600083815260200190815260200160002060020160019054906101000a900473ffffffffffffffffffffffffffffffffffffffff168073ffffffffffffffffffffffffffffffffffffffff163373ffffffffffffffffffffffffffffffffffffffff161415156162c957600080fd5b8260166040805190810160405280602081526020017f4d696c6b206973206e6f74207368697070656420746f2072657461696c65722181525081601e81111561630e57fe5b60096000858152602001908152602001600020600b0160019054906101000a900460ff16601e81111561633d57fe5b14819015156163e7576040517f08c379a00000000000000000000000000000000000000000000000000000000081526004018080602001828103825283818151815260200191508051906020019080838360005b838110156163ac578082015181840152602081019050616391565b50505050905090810190601f1680156163d95780820380516001836020036101000a031916815260200191505b509250505060405180910390fd5b50601760096000888152602001908152602001600020600b0160016101000a81548160ff0219169083601e81111561641b57fe5b02179055507fdcdeb8cd18aaef34d5f5eb155c2389bd2829cf3532de9393d37e4d840f37c9e98633604051808381526020018273ffffffffffffffffffffffffffffffffffffffff1673ffffffffffffffffffffffffffffffffffffffff1681526020019250505060405180910390a1505050505050565b61649c33614684565b1515616536576040517f08c379a000000000000000000000000000000000000000000000000000000000815260040180806020018281038252603c8152602001807f4552524f52204d6573736167653a20546865206164647265737320646f65736e81526020017fc2b474206d61746368207769746820616e792072657461696c65722e0000000081525060400191505060405180910390fd5b816009600082815260200190815260200160002060020160009054906101000a900460ff1615156165f5576040517f08c379a00000000000000000000000000000000000000000000000000000000081526004018080602001828103825260298152602001807f546869732055504320646f6573206e6f7420657869737420696e206974656d7381526020017f206d617070696e672e000000000000000000000000000000000000000000000081525060400191505060405180910390fd5b6009600084815260200190815260200160002060020160019054906101000a900473ffffffffffffffffffffffffffffffffffffffff168073ffffffffffffffffffffffffffffffffffffffff163373ffffffffffffffffffffffffffffffffffffffff1614151561666657600080fd5b836017606060405190810160405280602181526020017f4d696c6b206973206e6f742072656365697665642062792072657461696c657281526020017f210000000000000000000000000000000000000000000000000000000000000081525081601e8111156166d257fe5b60096000858152602001908152602001600020600b0160019054906101000a900460ff16601e81111561670157fe5b14819015156167ab576040517f08c379a00000000000000000000000000000000000000000000000000000000081526004018080602001828103825283818151815260200191508051906020019080838360005b83811015616770578082015181840152602081019050616755565b50505050905090810190601f16801561679d5780820380516001836020036101000a031916815260200191505b509250505060405180910390fd5b50601860096000898152602001908152602001600020600b0160016101000a81548160ff0219169083601e8111156167df57fe5b02179055508560096000898152602001908152602001600020600a01819055507f4aef2641ae9d0778279a0c5ad6af41fa2b5d543f48c22ab7f11c0c160cbc4fe0873388604051808481526020018373ffffffffffffffffffffffffffffffffffffffff1673ffffffffffffffffffffffffffffffffffffffff168152602001828152602001935050505060405180910390a150505050505050565b6168843361818a565b151561691e576040517f08c379a000000000000000000000000000000000000000000000000000000000815260040180806020018281038252603d8152602001807f4552524f52204d6573736167653a20546865206164647265737320646f65736e81526020017fc2b474206d61746368207769746820616e7920706f756c74657265722e00000081525060400191505060405180910390fd5b806009600082815260200190815260200160002060020160009054906101000a900460ff1615156169dd576040517f08c379a00000000000000000000000000000000000000000000000000000000081526004018080602001828103825260298152602001807f546869732055504320646f6573206e6f7420657869737420696e206974656d7381526020017f206d617070696e672e000000000000000000000000000000000000000000000081525060400191505060405180910390fd5b6009600083815260200190815260200160002060020160019054906101000a900473ffffffffffffffffffffffffffffffffffffffff168073ffffffffffffffffffffffffffffffffffffffff163373ffffffffffffffffffffffffffffffffffffffff16141515616a4e57600080fd5b82600d606060405190810160405280602281526020017f4d696c6b206973206e6f7420726563656976656420627920706f756c7465726581526020017f722100000000000000000000000000000000000000000000000000000000000081525081601e811115616aba57fe5b60096000858152602001908152602001600020600b0160019054906101000a900460ff16601e811115616ae957fe5b1481901515616b93576040517f08c379a00000000000000000000000000000000000000000000000000000000081526004018080602001828103825283818151815260200191508051906020019080838360005b83811015616b58578082015181840152602081019050616b3d565b50505050905090810190601f168015616b855780820380516001836020036101000a031916815260200191505b509250505060405180910390fd5b50600e60096000888152602001908152602001600020600b0160016101000a81548160ff0219169083601e811115616bc757fe5b02179055507ffb6c821edc933844040b011d310aae1f05eec43e926c3d9fd74a7c3c9a9faced8633604051808381526020018273ffffffffffffffffffffffffffffffffffffffff1673ffffffffffffffffffffffffffffffffffffffff1681526020019250505060405180910390a1505050505050565b616c483361818a565b1515616ce2576040517f08c379a000000000000000000000000000000000000000000000000000000000815260040180806020018281038252603d8152602001807f4552524f52204d6573736167653a20546865206164647265737320646f65736e81526020017fc2b474206d61746368207769746820616e7920706f756c74657265722e00000081525060400191505060405180910390fd5b806009600082815260200190815260200160002060020160009054906101000a900460ff161515616da1576040517f08c379a00000000000000000000000000000000000000000000000000000000081526004018080602001828103825260298152602001807f546869732055504320646f6573206e6f7420657869737420696e206974656d7381526020017f206d617070696e672e000000000000000000000000000000000000000000000081525060400191505060405180910390fd5b8160006040805190810160405280601581526020017f4d696c6b206973206e6f74206f627461696e656421000000000000000000000081525081601e811115616de657fe5b60096000858152602001908152602001600020600b0160019054906101000a900460ff16601e811115616e1557fe5b1481901515616ebf576040517f08c379a00000000000000000000000000000000000000000000000000000000081526004018080602001828103825283818151815260200191508051906020019080838360005b83811015616e84578082015181840152602081019050616e69565b50505050905090810190601f168015616eb15780820380516001836020036101000a031916815260200191505b509250505060405180910390fd5b506009600086815260200190815260200160002060020160019054906101000a900473ffffffffffffffffffffffffffffffffffffffff168073ffffffffffffffffffffffffffffffffffffffff163373ffffffffffffffffffffffffffffffffffffffff16141515616f3157600080fd5b600160096000888152602001908152602001600020600b0160016101000a81548160ff0219169083601e811115616f6457fe5b02179055507f72e92eb0e425b8335cb1af47d9215ead98fea0db2508f1155d0d113279dd81a68633604051808381526020018273ffffffffffffffffffffffffffffffffffffffff1673ffffffffffffffffffffffffffffffffffffffff1681526020019250505060405180910390a1505050505050565b60008060009054906101000a900473ffffffffffffffffffffffffffffffffffffffff16905090565b61700e33614684565b15156170a8576040517f08c379a000000000000000000000000000000000000000000000000000000000815260040180806020018281038252603c8152602001807f4552524f52204d6573736167653a20546865206164647265737320646f65736e81526020017fc2b474206d61746368207769746820616e792072657461696c65722e0000000081525060400191505060405180910390fd5b6170b18161b186565b50565b60006170ca82600361ae4790919063ffffffff16565b9050919050565b60008060009054906101000a900473ffffffffffffffffffffffffffffffffffffffff1673ffffffffffffffffffffffffffffffffffffffff163373ffffffffffffffffffffffffffffffffffffffff1614905090565b61713133615b8f565b15156171cb576040517f08c379a00000000000000000000000000000000000000000000000000000000081526004018080602001828103825260408152602001807f4552524f52204d6573736167653a20546865206164647265737320646f65736e81526020017fc2b474206d61746368207769746820616e79206461697279666163746f72792e81525060400191505060405180910390fd5b806009600082815260200190815260200160002060020160009054906101000a900460ff16151561728a576040517f08c379a00000000000000000000000000000000000000000000000000000000081526004018080602001828103825260298152602001807f546869732055504320646f6573206e6f7420657869737420696e206974656d7381526020017f206d617070696e672e000000000000000000000000000000000000000000000081525060400191505060405180910390fd5b6009600083815260200190815260200160002060020160019054906101000a900473ffffffffffffffffffffffffffffffffffffffff168073ffffffffffffffffffffffffffffffffffffffff163373ffffffffffffffffffffffffffffffffffffffff161415156172fb57600080fd5b8260116040805190810160405280602081526020017f4d696c6b206973206e6f7420736f6c6420746f206469737472696275746f722181525081601e81111561734057fe5b60096000858152602001908152602001600020600b0160019054906101000a900460ff16601e81111561736f57fe5b1481901515617419576040517f08c379a00000000000000000000000000000000000000000000000000000000081526004018080602001828103825283818151815260200191508051906020019080838360005b838110156173de5780820151818401526020810190506173c3565b50505050905090810190601f16801561740b5780820380516001836020036101000a031916815260200191505b509250505060405180910390fd5b50601260096000888152602001908152602001600020600b0160016101000a81548160ff0219169083601e81111561744d57fe5b02179055507f0286084355e9a81800b7148bc53bb820f41becf1122eb74b28a3e9f8e40bd4f38633604051808381526020018273ffffffffffffffffffffffffffffffffffffffff1673ffffffffffffffffffffffffffffffffffffffff1681526020019250505060405180910390a1505050505050565b6174ce33617889565b1515617568576040517f08c379a000000000000000000000000000000000000000000000000000000000815260040180806020018281038252603f8152602001807f4552524f52204d6573736167653a20546865206164647265737320646f65736e81526020017fc2b474206d61746368207769746820616e792073757065726d61726b65742e0081525060400191505060405180910390fd5b806009600082815260200190815260200160002060020160009054906101000a900460ff161515617627576040517f08c379a00000000000000000000000000000000000000000000000000000000081526004018080602001828103825260298152602001807f546869732055504320646f6573206e6f7420657869737420696e206974656d7381526020017f206d617070696e672e000000000000000000000000000000000000000000000081525060400191505060405180910390fd5b6009600083815260200190815260200160002060020160019054906101000a900473ffffffffffffffffffffffffffffffffffffffff168073ffffffffffffffffffffffffffffffffffffffff163373ffffffffffffffffffffffffffffffffffffffff1614151561769857600080fd5b82601a606060405190810160405280602381526020017f4d696c6b206973206e6f74207368697070656420746f2073757065726d61726b81526020017f657421000000000000000000000000000000000000000000000000000000000081525081601e81111561770457fe5b60096000858152602001908152602001600020600b0160019054906101000a900460ff16601e81111561773357fe5b14819015156177dd576040517f08c379a00000000000000000000000000000000000000000000000000000000081526004018080602001828103825283818151815260200191508051906020019080838360005b838110156177a2578082015181840152602081019050617787565b50505050905090810190601f1680156177cf5780820380516001836020036101000a031916815260200191505b509250505060405180910390fd5b50601b60096000888152602001908152602001600020600b0160016101000a81548160ff0219169083601e81111561781157fe5b02179055507f240f9b9df3d4b912b2b06e8c4ac33297bb90f00e437602e3e3300fa6d028b5118633604051808381526020018273ffffffffffffffffffffffffffffffffffffffff1673ffffffffffffffffffffffffffffffffffffffff1681526020019250505060405180910390a1505050505050565b600061789f82600561ae4790919063ffffffff16565b9050919050565b6178af33617889565b1515617949576040517f08c379a000000000000000000000000000000000000000000000000000000000815260040180806020018281038252603f8152602001807f4552524f52204d6573736167653a20546865206164647265737320646f65736e81526020017fc2b474206d61746368207769746820616e792073757065726d61726b65742e0081525060400191505060405180910390fd5b806009600082815260200190815260200160002060020160009054906101000a900460ff161515617a08576040517f08c379a00000000000000000000000000000000000000000000000000000000081526004018080602001828103825260298152602001807f546869732055504320646f6573206e6f7420657869737420696e206974656d7381526020017f206d617070696e672e000000000000000000000000000000000000000000000081525060400191505060405180910390fd5b816018606060405190810160405280602481526020017f4d696c6b206973206e6f7420666f722073616c6520746f2073757065726d617281526020017f6b6574210000000000000000000000000000000000000000000000000000000081525081601e811115617a7457fe5b60096000858152602001908152602001600020600b0160019054906101000a900460ff16601e811115617aa357fe5b1481901515617b4d576040517f08c379a00000000000000000000000000000000000000000000000000000000081526004018080602001828103825283818151815260200191508051906020019080838360005b83811015617b12578082015181840152602081019050617af7565b50505050905090810190601f168015617b3f5780820380516001836020036101000a031916815260200191505b509250505060405180910390fd5b5060096000868152602001908152602001600020600a0154803410151515617b7457600080fd5b85336009600089815260200190815260200160002060020160016101000a81548173ffffffffffffffffffffffffffffffffffffffff021916908373ffffffffffffffffffffffffffffffffffffffff1602179055503360096000898152602001908152602001600020600e0160006101000a81548173ffffffffffffffffffffffffffffffffffffffff021916908373ffffffffffffffffffffffffffffffffffffffff160217905550601960096000898152602001908152602001600020600b0160016101000a81548160ff0219169083601e811115617c5257fe5b021790555060096000888152602001908152602001600020600d0160009054906101000a900473ffffffffffffffffffffffffffffffffffffffff1673ffffffffffffffffffffffffffffffffffffffff166108fc600960008a8152602001908152602001600020600a01549081150290604051600060405180830381858888f19350505050158015617ce9573d6000803e3d6000fd5b507f9ffacabd4b959f342e16d587283f63fbbeff3060a30f21e052333fe2f8817c138733604051808381526020018273ffffffffffffffffffffffffffffffffffffffff1673ffffffffffffffffffffffffffffffffffffffff1681526020019250505060405180910390a1600060096000838152602001908152602001600020600a01549050600081340390503373ffffffffffffffffffffffffffffffffffffffff166108fc829081150290604051600060405180830381858888f19350505050158015617dbd573d6000803e3d6000fd5b50505050505050505050565b617dd23361818a565b1515617e6c576040517f08c379a000000000000000000000000000000000000000000000000000000000815260040180806020018281038252603d8152602001807f4552524f52204d6573736167653a20546865206164647265737320646f65736e81526020017fc2b474206d61746368207769746820616e7920706f756c74657265722e00000081525060400191505060405180910390fd5b816009600082815260200190815260200160002060020160009054906101000a900460ff161515617f2b576040517f08c379a00000000000000000000000000000000000000000000000000000000081526004018080602001828103825260298152602001807f546869732055504320646f6573206e6f7420657869737420696e206974656d7381526020017f206d617070696e672e000000000000000000000000000000000000000000000081525060400191505060405180910390fd5b6009600084815260200190815260200160002060020160019054906101000a900473ffffffffffffffffffffffffffffffffffffffff168073ffffffffffffffffffffffffffffffffffffffff163373ffffffffffffffffffffffffffffffffffffffff16141515617f9c57600080fd5b8360016040805190810160405280601381526020017f4d696c6b206973206e6f742073746f726564210000000000000000000000000081525081601e811115617fe157fe5b60096000858152602001908152602001600020600b0160019054906101000a900460ff16601e81111561801057fe5b14819015156180ba576040517f08c379a00000000000000000000000000000000000000000000000000000000081526004018080602001828103825283818151815260200191508051906020019080838360005b8381101561807f578082015181840152602081019050618064565b50505050905090810190601f1680156180ac5780820380516001836020036101000a031916815260200191505b509250505060405180910390fd5b50600260096000898152602001908152602001600020600b0160016101000a81548160ff0219169083601e8111156180ee57fe5b02179055508560096000898152602001908152602001600020600a01819055507f0a45f8859db4ccba88d90e777f8ff1cc1a0d880a7a506203949ed770c0abb757873388604051808481526020018373ffffffffffffffffffffffffffffffffffffffff1673ffffffffffffffffffffffffffffffffffffffff168152602001828152602001935050505060405180910390a150505050505050565b60006181a082600161ae4790919063ffffffff16565b9050919050565b6181b03361b1e0565b565b6181bb336170b4565b1515618255576040517f08c379a000000000000000000000000000000000000000000000000000000000815260040180806020018281038252603f8152602001807f4552524f52204d6573736167653a20546865206164647265737320646f65736e81526020017fc2b474206d61746368207769746820616e79206469737472696275746f722e0081525060400191505060405180910390fd5b806009600082815260200190815260200160002060020160009054906101000a900460ff161515618314576040517f08c379a00000000000000000000000000000000000000000000000000000000081526004018080602001828103825260298152602001807f546869732055504320646f6573206e6f7420657869737420696e206974656d7381526020017f206d617070696e672e000000000000000000000000000000000000000000000081525060400191505060405180910390fd5b6009600083815260200190815260200160002060020160019054906101000a900473ffffffffffffffffffffffffffffffffffffffff168073ffffffffffffffffffffffffffffffffffffffff163373ffffffffffffffffffffffffffffffffffffffff1614151561838557600080fd5b8260156040805190810160405280601d81526020017f4d696c6b206973206e6f7420736f6c6420746f2072657461696c65722100000081525081601e8111156183ca57fe5b60096000858152602001908152602001600020600b0160019054906101000a900460ff16601e8111156183f957fe5b14819015156184a3576040517f08c379a00000000000000000000000000000000000000000000000000000000081526004018080602001828103825283818151815260200191508051906020019080838360005b8381101561846857808201518184015260208101905061844d565b50505050905090810190601f1680156184955780820380516001836020036101000a031916815260200191505b509250505060405180910390fd5b50601660096000888152602001908152602001600020600b0160016101000a81548160ff0219169083601e8111156184d757fe5b02179055507fa71e9ff4e9a4514eae5bd33767cd86c1bcffb5a08d8ad6482f01f7790d8f37af8633604051808381526020018273ffffffffffffffffffffffffffffffffffffffff1673ffffffffffffffffffffffffffffffffffffffff1681526020019250505060405180910390a1505050505050565b600080600080606080600080886009600082815260200190815260200160002060020160009054906101000a900460ff16151561861a576040517f08c379a00000000000000000000000000000000000000000000000000000000081526004018080602001828103825260298152602001807f546869732055504320646f6573206e6f7420657869737420696e206974656d7381526020017f206d617070696e672e000000000000000000000000000000000000000000000081525060400191505060405180910390fd5b61862261b85e565b600960008c8152602001908152602001600020610260604051908101604052908160008201548152602001600182015481526020016002820160009054906101000a900460ff161515151581526020016002820160019054906101000a900473ffffffffffffffffffffffffffffffffffffffff1673ffffffffffffffffffffffffffffffffffffffff1673ffffffffffffffffffffffffffffffffffffffff1681526020016003820160009054906101000a900473ffffffffffffffffffffffffffffffffffffffff1673ffffffffffffffffffffffffffffffffffffffff1673ffffffffffffffffffffffffffffffffffffffff168152602001600482018054600181600116156101000203166002900480601f0160208091040260200160405190810160405280929190818152602001828054600181600116156101000203166002900480156187b65780601f1061878b576101008083540402835291602001916187b6565b820191906000526020600020905b81548152906001019060200180831161879957829003601f168201915b50505050508152602001600582018054600181600116156101000203166002900480601f0160208091040260200160405190810160405280929190818152602001828054600181600116156101000203166002900480156188585780601f1061882d57610100808354040283529160200191618858565b820191906000526020600020905b81548152906001019060200180831161883b57829003601f168201915b50505050508152602001600682018054600181600116156101000203166002900480601f0160208091040260200160405190810160405280929190818152602001828054600181600116156101000203166002900480156188fa5780601f106188cf576101008083540402835291602001916188fa565b820191906000526020600020905b8154815290600101906020018083116188dd57829003601f168201915b50505050508152602001600782018054600181600116156101000203166002900480601f01602080910402602001604051908101604052809291908181526020018280546001816001161561010002031660029004801561899c5780601f106189715761010080835404028352916020019161899c565b820191906000526020600020905b81548152906001019060200180831161897f57829003601f168201915b5050505050815260200160088201548152602001600982018054600181600116156101000203166002900480601f016020809104026020016040519081016040528092919081815260200182805460018160011615610100020316600290048015618a485780601f10618a1d57610100808354040283529160200191618a48565b820191906000526020600020905b815481529060010190602001808311618a2b57829003601f168201915b50505050508152602001600a8201548152602001600b820160009054906101000a900460ff16151515158152602001600b820160019054906101000a900460ff16601e811115618a9457fe5b601e811115618a9f57fe5b8152602001600b820160029054906101000a900473ffffffffffffffffffffffffffffffffffffffff1673ffffffffffffffffffffffffffffffffffffffff1673ffffffffffffffffffffffffffffffffffffffff168152602001600c820160009054906101000a900473ffffffffffffffffffffffffffffffffffffffff1673ffffffffffffffffffffffffffffffffffffffff1673ffffffffffffffffffffffffffffffffffffffff168152602001600d820160009054906101000a900473ffffffffffffffffffffffffffffffffffffffff1673ffffffffffffffffffffffffffffffffffffffff1673ffffffffffffffffffffffffffffffffffffffff168152602001600e820160009054906101000a900473ffffffffffffffffffffffffffffffffffffffff1673ffffffffffffffffffffffffffffffffffffffff1673ffffffffffffffffffffffffffffffffffffffff168152602001600f820160009054906101000a900473ffffffffffffffffffffffffffffffffffffffff1673ffffffffffffffffffffffffffffffffffffffff1673ffffffffffffffffffffffffffffffffffffffff16815250509050806000015199508060200151985080606001519750806080015196508060a001519550806101e0015193508061014001519450806101a0015192508989898989898989995099509950995099509950995099505050919395975091939597565b618cbc336170b4565b1515618d56576040517f08c379a000000000000000000000000000000000000000000000000000000000815260040180806020018281038252603f8152602001807f4552524f52204d6573736167653a20546865206164647265737320646f65736e81526020017fc2b474206d61746368207769746820616e79206469737472696275746f722e0081525060400191505060405180910390fd5b806009600082815260200190815260200160002060020160009054906101000a900460ff161515618e15576040517f08c379a00000000000000000000000000000000000000000000000000000000081526004018080602001828103825260298152602001807f546869732055504320646f6573206e6f7420657869737420696e206974656d7381526020017f206d617070696e672e000000000000000000000000000000000000000000000081525060400191505060405180910390fd5b6009600083815260200190815260200160002060020160019054906101000a900473ffffffffffffffffffffffffffffffffffffffff168073ffffffffffffffffffffffffffffffffffffffff163373ffffffffffffffffffffffffffffffffffffffff16141515618e8657600080fd5b826012606060405190810160405280602381526020017f4d696c6b206973206e6f74207368697070656420746f2064697374726962757481526020017f6f7221000000000000000000000000000000000000000000000000000000000081525081601e811115618ef257fe5b60096000858152602001908152602001600020600b0160019054906101000a900460ff16601e811115618f2157fe5b1481901515618fcb576040517f08c379a00000000000000000000000000000000000000000000000000000000081526004018080602001828103825283818151815260200191508051906020019080838360005b83811015618f90578082015181840152602081019050618f75565b50505050905090810190601f168015618fbd5780820380516001836020036101000a031916815260200191505b509250505060405180910390fd5b50601360096000888152602001908152602001600020600b0160016101000a81548160ff0219169083601e811115618fff57fe5b02179055507fcd2d1c9587a0a95c3508c624ef3d9777971750e472e0a31dd93535304c25b52f8633604051808381526020018273ffffffffffffffffffffffffffffffffffffffff1673ffffffffffffffffffffffffffffffffffffffff1681526020019250505060405180910390a1505050505050565b6190803361818a565b151561911a576040517f08c379a000000000000000000000000000000000000000000000000000000000815260040180806020018281038252603d8152602001807f4552524f52204d6573736167653a20546865206164647265737320646f65736e81526020017fc2b474206d61746368207769746820616e7920706f756c74657265722e00000081525060400191505060405180910390fd5b806009600082815260200190815260200160002060020160009054906101000a900460ff1615156191d9576040517f08c379a00000000000000000000000000000000000000000000000000000000081526004018080602001828103825260298152602001807f546869732055504320646f6573206e6f7420657869737420696e206974656d7381526020017f206d617070696e672e000000000000000000000000000000000000000000000081525060400191505060405180910390fd5b6009600083815260200190815260200160002060030160009054906101000a900473ffffffffffffffffffffffffffffffffffffffff168073ffffffffffffffffffffffffffffffffffffffff163373ffffffffffffffffffffffffffffffffffffffff1614151561924a57600080fd5b82600a606060405190810160405280602281526020017f4d696c6b206973206e6f742072657475726e656420746f20706f756c7465726581526020017f722100000000000000000000000000000000000000000000000000000000000081525081601e8111156192b657fe5b60096000858152602001908152602001600020600b0160019054906101000a900460ff16601e8111156192e557fe5b148190151561938f576040517f08c379a00000000000000000000000000000000000000000000000000000000081526004018080602001828103825283818151815260200191508051906020019080838360005b83811015619354578082015181840152602081019050619339565b50505050905090810190601f1680156193815780820380516001836020036101000a031916815260200191505b509250505060405180910390fd5b50600b60096000888152602001908152602001600020600b0160016101000a81548160ff0219169083601e8111156193c357fe5b02179055507ff1a79569b790a7395e3cd390ad58143dcffe8b4f564c75014ea667c87cb02a5e8633604051808381526020018273ffffffffffffffffffffffffffffffffffffffff1673ffffffffffffffffffffffffffffffffffffffff1681526020019250505060405180910390a1505050505050565b61944433617889565b15156194de576040517f08c379a000000000000000000000000000000000000000000000000000000000815260040180806020018281038252603f8152602001807f4552524f52204d6573736167653a20546865206164647265737320646f65736e81526020017fc2b474206d61746368207769746820616e792073757065726d61726b65742e0081525060400191505060405180910390fd5b6194e78161b23a565b50565b6194f33361b294565b565b6194fe33615c5b565b1515619598576040517f08c379a000000000000000000000000000000000000000000000000000000000815260040180806020018281038252603c8152602001807f4552524f52204d6573736167653a20546865206164647265737320646f65736e81526020017fc2b474206d61746368207769746820616e792072657461696c65722e0000000081525060400191505060405180910390fd5b806009600082815260200190815260200160002060020160009054906101000a900460ff161515619657576040517f08c379a00000000000000000000000000000000000000000000000000000000081526004018080602001828103825260298152602001807f546869732055504320646f6573206e6f7420657869737420696e206974656d7381526020017f206d617070696e672e000000000000000000000000000000000000000000000081525060400191505060405180910390fd5b6009600083815260200190815260200160002060020160019054906101000a900473ffffffffffffffffffffffffffffffffffffffff168073ffffffffffffffffffffffffffffffffffffffff163373ffffffffffffffffffffffffffffffffffffffff161415156196c857600080fd5b82601d6040805190810160405280601d81526020017f4d696c6b206973206e6f7420736f6c6420746f20636f6e73756d65722100000081525081601e81111561970d57fe5b60096000858152602001908152602001600020600b0160019054906101000a900460ff16601e81111561973c57fe5b14819015156197e6576040517f08c379a00000000000000000000000000000000000000000000000000000000081526004018080602001828103825283818151815260200191508051906020019080838360005b838110156197ab578082015181840152602081019050619790565b50505050905090810190601f1680156197d85780820380516001836020036101000a031916815260200191505b509250505060405180910390fd5b50601e60096000888152602001908152602001600020600b0160016101000a81548160ff0219169083601e81111561981a57fe5b02179055507fcc304e5cd05a694f17244e4e7bc2f3d943d9291b68844e3eb6039071f695b0958633604051808381526020018273ffffffffffffffffffffffffffffffffffffffff1673ffffffffffffffffffffffffffffffffffffffff1681526020019250505060405180910390a1505050505050565b61989b336170b4565b1515619935576040517f08c379a000000000000000000000000000000000000000000000000000000000815260040180806020018281038252603f8152602001807f4552524f52204d6573736167653a20546865206164647265737320646f65736e81526020017fc2b474206d61746368207769746820616e79206469737472696275746f722e0081525060400191505060405180910390fd5b816009600082815260200190815260200160002060020160009054906101000a900460ff1615156199f4576040517f08c379a00000000000000000000000000000000000000000000000000000000081526004018080602001828103825260298152602001807f546869732055504320646f6573206e6f7420657869737420696e206974656d7381526020017f206d617070696e672e000000000000000000000000000000000000000000000081525060400191505060405180910390fd5b6009600084815260200190815260200160002060020160019054906101000a900473ffffffffffffffffffffffffffffffffffffffff168073ffffffffffffffffffffffffffffffffffffffff163373ffffffffffffffffffffffffffffffffffffffff16141515619a6557600080fd5b836013606060405190810160405280602481526020017f4d696c6b206973206e6f7420726563656976656420627920646973747269627581526020017f746f72210000000000000000000000000000000000000000000000000000000081525081601e811115619ad157fe5b60096000858152602001908152602001600020600b0160019054906101000a900460ff16601e811115619b0057fe5b1481901515619baa576040517f08c379a00000000000000000000000000000000000000000000000000000000081526004018080602001828103825283818151815260200191508051906020019080838360005b83811015619b6f578082015181840152602081019050619b54565b50505050905090810190601f168015619b9c5780820380516001836020036101000a031916815260200191505b509250505060405180910390fd5b50601460096000898152602001908152602001600020600b0160016101000a81548160ff0219169083601e811115619bde57fe5b02179055508560096000898152602001908152602001600020600a01819055507fb26562dd29dade85de0d7fd9d81151ab4fa057a73e4506db8dd26a1c3e85798e873388604051808481526020018373ffffffffffffffffffffffffffffffffffffffff1673ffffffffffffffffffffffffffffffffffffffff168152602001828152602001935050505060405180910390a150505050505050565b619c8333615c5b565b1515619d1d576040517f08c379a000000000000000000000000000000000000000000000000000000000815260040180806020018281038252603c8152602001807f4552524f52204d6573736167653a20546865206164647265737320646f65736e81526020017fc2b474206d61746368207769746820616e792072657461696c65722e0000000081525060400191505060405180910390fd5b806009600082815260200190815260200160002060020160009054906101000a900460ff161515619ddc576040517f08c379a00000000000000000000000000000000000000000000000000000000081526004018080602001828103825260298152602001807f546869732055504320646f6573206e6f7420657869737420696e206974656d7381526020017f206d617070696e672e000000000000000000000000000000000000000000000081525060400191505060405180910390fd5b81601c606060405190810160405280602181526020017f4d696c6b206973206e6f7420666f722073616c6520746f20636f6e73756d657281526020017f210000000000000000000000000000000000000000000000000000000000000081525081601e811115619e4857fe5b60096000858152602001908152602001600020600b0160019054906101000a900460ff16601e811115619e7757fe5b1481901515619f21576040517f08c379a00000000000000000000000000000000000000000000000000000000081526004018080602001828103825283818151815260200191508051906020019080838360005b83811015619ee6578082015181840152602081019050619ecb565b50505050905090810190601f168015619f135780820380516001836020036101000a031916815260200191505b509250505060405180910390fd5b5060096000868152602001908152602001600020600a0154803410151515619f4857600080fd5b85336009600089815260200190815260200160002060020160016101000a81548173ffffffffffffffffffffffffffffffffffffffff021916908373ffffffffffffffffffffffffffffffffffffffff1602179055503360096000898152602001908152602001600020600f0160006101000a81548173ffffffffffffffffffffffffffffffffffffffff021916908373ffffffffffffffffffffffffffffffffffffffff160217905550601d60096000898152602001908152602001600020600b0160016101000a81548160ff0219169083601e81111561a02657fe5b021790555060096000888152602001908152602001600020600e0160009054906101000a900473ffffffffffffffffffffffffffffffffffffffff1673ffffffffffffffffffffffffffffffffffffffff166108fc600960008a8152602001908152602001600020600a01549081150290604051600060405180830381858888f1935050505015801561a0bd573d6000803e3d6000fd5b507f70f3c787155fbec8e11e57355c7e36179c9b3a7f042cfd2f774cd0edfbafe8218733604051808381526020018273ffffffffffffffffffffffffffffffffffffffff1673ffffffffffffffffffffffffffffffffffffffff1681526020019250505060405180910390a1600060096000838152602001908152602001600020600a01549050600081340390503373ffffffffffffffffffffffffffffffffffffffff166108fc829081150290604051600060405180830381858888f1935050505015801561a191573d6000803e3d6000fd5b50505050505050505050565b61a1a633615b8f565b151561a240576040517f08c379a00000000000000000000000000000000000000000000000000000000081526004018080602001828103825260408152602001807f4552524f52204d6573736167653a20546865206164647265737320646f65736e81526020017fc2b474206d61746368207769746820616e79206461697279666163746f72792e81525060400191505060405180910390fd5b806009600082815260200190815260200160002060020160009054906101000a900460ff16151561a2ff576040517f08c379a00000000000000000000000000000000000000000000000000000000081526004018080602001828103825260298152602001807f546869732055504320646f6573206e6f7420657869737420696e206974656d7381526020017f206d617070696e672e000000000000000000000000000000000000000000000081525060400191505060405180910390fd5b6009600083815260200190815260200160002060020160019054906101000a900473ffffffffffffffffffffffffffffffffffffffff168073ffffffffffffffffffffffffffffffffffffffff163373ffffffffffffffffffffffffffffffffffffffff1614151561a37057600080fd5b826007606060405190810160405280602781526020017f4d696c6b206973206e6f74207175616c696669656420746865207175616c697481526020017f792074657374210000000000000000000000000000000000000000000000000081525081601e81111561a3dc57fe5b60096000858152602001908152602001600020600b0160019054906101000a900460ff16601e81111561a40b57fe5b148190151561a4b5576040517f08c379a00000000000000000000000000000000000000000000000000000000081526004018080602001828103825283818151815260200191508051906020019080838360005b8381101561a47a57808201518184015260208101905061a45f565b50505050905090810190601f16801561a4a75780820380516001836020036101000a031916815260200191505b509250505060405180910390fd5b506009806000888152602001908152602001600020600b0160016101000a81548160ff0219169083601e81111561a4e857fe5b02179055507f86a9fd0241dd7d84eb1203528b8f8827adf43f721495afbbcc8f3d01d25e00b98633604051808381526020018273ffffffffffffffffffffffffffffffffffffffff1673ffffffffffffffffffffffffffffffffffffffff1681526020019250505060405180910390a1505050505050565b61a5686170d1565b151561a602576040517f08c379a00000000000000000000000000000000000000000000000000000000081526004018080602001828103825260278152602001807f4552524f52204d6573736167653a2043616c6c6572206973206e6f742074686581526020017f206f776e6572210000000000000000000000000000000000000000000000000081525060400191505060405180910390fd5b61a60b8161b2ee565b50565b61a61733615b8f565b151561a6b1576040517f08c379a00000000000000000000000000000000000000000000000000000000081526004018080602001828103825260408152602001807f4552524f52204d6573736167653a20546865206164647265737320646f65736e81526020017fc2b474206d61746368207769746820616e79206461697279666163746f72792e81525060400191505060405180910390fd5b816009600082815260200190815260200160002060020160009054906101000a900460ff16151561a770576040517f08c379a00000000000000000000000000000000000000000000000000000000081526004018080602001828103825260298152602001807f546869732055504320646f6573206e6f7420657869737420696e206974656d7381526020017f206d617070696e672e000000000000000000000000000000000000000000000081525060400191505060405180910390fd5b6009600084815260200190815260200160002060020160019054906101000a900473ffffffffffffffffffffffffffffffffffffffff168073ffffffffffffffffffffffffffffffffffffffff163373ffffffffffffffffffffffffffffffffffffffff1614151561a7e157600080fd5b83600f6040805190810160405280601381526020017f4d696c6b206973206e6f74207061636b6564210000000000000000000000000081525081601e81111561a82657fe5b60096000858152602001908152602001600020600b0160019054906101000a900460ff16601e81111561a85557fe5b148190151561a8ff576040517f08c379a00000000000000000000000000000000000000000000000000000000081526004018080602001828103825283818151815260200191508051906020019080838360005b8381101561a8c457808201518184015260208101905061a8a9565b50505050905090810190601f16801561a8f15780820380516001836020036101000a031916815260200191505b509250505060405180910390fd5b50601060096000898152602001908152602001600020600b0160016101000a81548160ff0219169083601e81111561a93357fe5b02179055508560096000898152602001908152602001600020600a01819055507fbe55594d1a1eedd30526362a86d14d6db60ca1bb7557e32d2a9ef904f1a71296873388604051808481526020018373ffffffffffffffffffffffffffffffffffffffff1673ffffffffffffffffffffffffffffffffffffffff168152602001828152602001935050505060405180910390a150505050505050565b61a9d83361818a565b151561aa72576040517f08c379a000000000000000000000000000000000000000000000000000000000815260040180806020018281038252603d8152602001807f4552524f52204d6573736167653a20546865206164647265737320646f65736e81526020017fc2b474206d61746368207769746820616e7920706f756c74657265722e00000081525060400191505060405180910390fd5b806009600082815260200190815260200160002060020160009054906101000a900460ff16151561ab31576040517f08c379a00000000000000000000000000000000000000000000000000000000081526004018080602001828103825260298152602001807f546869732055504320646f6573206e6f7420657869737420696e206974656d7381526020017f206d617070696e672e000000000000000000000000000000000000000000000081525060400191505060405180910390fd5b6009600083815260200190815260200160002060030160009054906101000a900473ffffffffffffffffffffffffffffffffffffffff168073ffffffffffffffffffffffffffffffffffffffff163373ffffffffffffffffffffffffffffffffffffffff1614151561aba257600080fd5b826003606060405190810160405280602181526020017f4d696c6b206973206e6f7420736f6c6420746f206461697279666163746f727981526020017f210000000000000000000000000000000000000000000000000000000000000081525081601e81111561ac0e57fe5b60096000858152602001908152602001600020600b0160019054906101000a900460ff16601e81111561ac3d57fe5b148190151561ace7576040517f08c379a00000000000000000000000000000000000000000000000000000000081526004018080602001828103825283818151815260200191508051906020019080838360005b8381101561acac57808201518184015260208101905061ac91565b50505050905090810190601f16801561acd95780820380516001836020036101000a031916815260200191505b509250505060405180910390fd5b50600460096000888152602001908152602001600020600b0160016101000a81548160ff0219169083601e81111561ad1b57fe5b02179055507f101cd186fb40ceb4f619025da72d8b1d5c7ca75fc004814dd7961f8ccf42ac368633604051808381526020018273ffffffffffffffffffffffffffffffffffffffff1673ffffffffffffffffffffffffffffffffffffffff1681526020019250505060405180910390a1505050505050565b61ada781600661b45190919063ffffffff16565b8073ffffffffffffffffffffffffffffffffffffffff167f28b26e7a3d20aedbc5f8f2ebf7da671c0491723a2b78f47a097b0e46dee0714260405160405180910390a250565b61ae0181600561b64590919063ffffffff16565b8073ffffffffffffffffffffffffffffffffffffffff167f15d2b381eb4092b28724b6b0527f13de7431b61db9e6f8ad6c171c35afbfb54460405160405180910390a250565b60008073ffffffffffffffffffffffffffffffffffffffff168273ffffffffffffffffffffffffffffffffffffffff161415151561af13576040517f08c379a000000000000000000000000000000000000000000000000000000000815260040180806020018281038252603d8152602001807f4552524f52204d6573736167653a2041646472657373206163636f756e74206e81526020017f756c6c20696e2066756e6374696f6e206861732074686520726f6c652e00000081525060400191505060405180910390fd5b8260000160008373ffffffffffffffffffffffffffffffffffffffff1673ffffffffffffffffffffffffffffffffffffffff16815260200190815260200160002060009054906101000a900460ff16905092915050565b61af7e81600661b64590919063ffffffff16565b8073ffffffffffffffffffffffffffffffffffffffff167fe3f5ed5f263f1f01764a96edfc7d025f511ec5f7d180e8816908b78bcf74f09860405160405180910390a250565b61afd881600361b64590919063ffffffff16565b8073ffffffffffffffffffffffffffffffffffffffff167f126174f6cf49c81cdb4a9214c6b8f037bef55b4ec31e4fc776cea2a1c8a88d5960405160405180910390a250565b61b03281600361b45190919063ffffffff16565b8073ffffffffffffffffffffffffffffffffffffffff167fddbf200aa634dc3fb81cfd68583dd1040d1c751d335e1d86b631bde3e977fea860405160405180910390a250565b61b08c81600161b45190919063ffffffff16565b8073ffffffffffffffffffffffffffffffffffffffff167f80eb921b55c0e61029c209b9cdd8e07e6c85a3ad0c9e4ae9e014e2437dbb72c260405160405180910390a250565b61b0e681600261b45190919063ffffffff16565b8073ffffffffffffffffffffffffffffffffffffffff167fb158cf7b7032a567dfb9b3a9765efa092798b7cded378ed4ae353ef385f2e73560405160405180910390a250565b61b14081600261b64590919063ffffffff16565b8073ffffffffffffffffffffffffffffffffffffffff167f75ff978eb34dd8c30ffb904cdaf6badc758c2d5b8fb971ccf126f288f447761d60405160405180910390a250565b61b19a81600461b45190919063ffffffff16565b8073ffffffffffffffffffffffffffffffffffffffff167f71ae26cad02663e3d92efd6ec56031a80d74a20c0ab4183faa8bf262261c9baa60405160405180910390a250565b61b1f481600161b64590919063ffffffff16565b8073ffffffffffffffffffffffffffffffffffffffff167fbe5a87b3f05a81f6ef57d858a56ce5e5ef680ab81756b9770ce3f43c6b57e48660405160405180910390a250565b61b24e81600561b45190919063ffffffff16565b8073ffffffffffffffffffffffffffffffffffffffff167f3e8b6c25714070dcebd930fe0d9592c40580e5afd0b4e8e3727181b801e733f560405160405180910390a250565b61b2a881600461b64590919063ffffffff16565b8073ffffffffffffffffffffffffffffffffffffffff167fdb7176e79cffef81cb01767dd0447a0b24bb72ca9778d4b245581086b2a7e6db60405160405180910390a250565b600073ffffffffffffffffffffffffffffffffffffffff168173ffffffffffffffffffffffffffffffffffffffff161415151561b393576040517f08c379a00000000000000000000000000000000000000000000000000000000081526004018080602001828103825260208152602001807f4552524f52204d6573736167653a206e65772061646472657373206e756c6c2181525060200191505060405180910390fd5b8073ffffffffffffffffffffffffffffffffffffffff166000809054906101000a900473ffffffffffffffffffffffffffffffffffffffff1673ffffffffffffffffffffffffffffffffffffffff167f5c486528ec3e3f0ea91181cff8116f02bfa350e03b8b6f12e00765adbb5af85c60405160405180910390a3806000806101000a81548173ffffffffffffffffffffffffffffffffffffffff021916908373ffffffffffffffffffffffffffffffffffffffff16021790555050565b600073ffffffffffffffffffffffffffffffffffffffff168173ffffffffffffffffffffffffffffffffffffffff161415151561b51c576040517f08c379a000000000000000000000000000000000000000000000000000000000815260040180806020018281038252603f8152602001807f4552524f52204d6573736167653a2041646472657373206163636f756e74206981526020017f73206e756c6c20696e2066756e6374696f6e20616464206e657720726f6c650081525060400191505060405180910390fd5b61b526828261ae47565b15151561b5e7576040517f08c379a000000000000000000000000000000000000000000000000000000000815260040180806020018281038252604f8152602001807f4552524f52204d6573736167653a20546865206164646472657373206769766581526020017f6e2068617320616c72656164792074686520726f6c6520696e2066756e63746981526020017f6f6e20616464206e657720726f6c65000000000000000000000000000000000081525060600191505060405180910390fd5b60018260000160008373ffffffffffffffffffffffffffffffffffffffff1673ffffffffffffffffffffffffffffffffffffffff16815260200190815260200160002060006101000a81548160ff0219169083151502179055505050565b600073ffffffffffffffffffffffffffffffffffffffff168173ffffffffffffffffffffffffffffffffffffffff161415151561b736576040517f08c379a00000000000000000000000000000000000000000000000000000000081526004018080602001828103825260438152602001807f4552524f52204d6573736167653a204164647265737373206163636f756e742081526020017f6973206e756c6c20696e2066756e6374696f6e2072656d6f766520746865207281526020017f756c65000000000000000000000000000000000000000000000000000000000081525060600191505060405180910390fd5b61b740828261ae47565b151561b800576040517f08c379a00000000000000000000000000000000000000000000000000000000081526004018080602001828103825260528152602001807f4552524f52204d6573736167653a20546865206164647265737320676976656e81526020017f20646f6573206e6f74206861732074686520726f6c6520696e2066756e63746981526020017f6f6e2072656d6f76652074686520726f6c65000000000000000000000000000081525060600191505060405180910390fd5b60008260000160008373ffffffffffffffffffffffffffffffffffffffff1673ffffffffffffffffffffffffffffffffffffffff16815260200190815260200160002060006101000a81548160ff0219169083151502179055505050565b610260604051908101604052806000815260200160008152602001600015158152602001600073ffffffffffffffffffffffffffffffffffffffff168152602001600073ffffffffffffffffffffffffffffffffffffffff168152602001606081526020016060815260200160608152602001606081526020016000815260200160608152602001600081526020016000151581526020016000601e81111561b90357fe5b8152602001600073ffffffffffffffffffffffffffffffffffffffff168152602001600073ffffffffffffffffffffffffffffffffffffffff168152602001600073ffffffffffffffffffffffffffffffffffffffff168152602001600073ffffffffffffffffffffffffffffffffffffffff168152602001600073ffffffffffffffffffffffffffffffffffffffff1681525090565b828054600181600116156101000203166002900490600052602060002090601f016020900481019282601f1061b9db57805160ff191683800117855561ba09565b8280016001018555821561ba09579182015b8281111561ba0857825182559160200191906001019061b9ed565b5b50905061ba16919061ba1a565b5090565b61ba3c91905b8082111561ba3857600081600090555060010161ba20565b5090565b9056fea165627a7a72305820b02fda577c3d54f980dab8c7eb76d5a637c9d48688b5ddd9c2470f9a4905456d0029",
  "source": "pragma solidity ^0.5.0;\n\n// Import the `Roles` library\nimport \"../milkcore/Ownable.sol\";\nimport \"../milkaccesscontrol/PoultererRole.sol\";\nimport \"../milkaccesscontrol/DairyfactoryRole.sol\";\nimport \"../milkaccesscontrol/DistributorRole.sol\";\nimport \"../milkaccesscontrol/RetailerRole.sol\";\nimport \"../milkaccesscontrol/SupermarketRole.sol\";\nimport \"../milkaccesscontrol/ConsumerRole.sol\";\n\n// Define a contract 'Supplychain'\ncontract SupplyChain is Ownable, PoultererRole, DairyfactoryRole, DistributorRole, RetailerRole, SupermarketRole, ConsumerRole {\n\n  // Define 'owner'\n  //address owner;\n\n  // Define a variable called 'upc' for Universal Product Code (UPC)\n  uint  upc;\n\n  // Define a variable called 'sku' for Stock Keeping Unit (SKU)\n  uint  sku;\n\n  // Define a public mapping 'items' that maps the UPC to an Item.\n  mapping (uint => Item) items;\n\n  // Define a public mapping 'itemsHistory' that maps the UPC to an array of TxHash, \n  // that track its journey through the supply chain -- to be sent from DApp.\n  mapping (uint => string[]) itemsHistory;\n  \n  // Define enum 'State' with the following values:\n  enum State \n  { \n    Obtained,                  // 0\n    Stored,                    // 1\n    ForSaleToDairyfactory,     // 2\n    SoldToDairyfactory,        // 3\n    ShippedToDairyfactory,     // 4\n    ReceivedByDairyfactory,    // 5\n    Tested,                    // 6\n    Qualified,                 // 7\n    Failed,                    // 8\n    Processed,                 // 9\n    Returned,                  // 10\n    Retaken,                   // 11\n    ShippedToPoulterer,        // 12\n    ReceivedByPoulterer,       // 13\n    Destroyed,                 // 14\n    Packed,                    // 15\n    ForSaleToDistributor,      // 16\n    SoldToDistributor,         // 17\n    ShippedToDistributor,      // 18\n    ReceivedByDistributor,     // 19\n    ForSaleToRetailer,         // 20\n    SoldToRetailer,            // 21\n    ShippedToRetailer,         // 22\n    ReceivedByRetailer,        // 23\n    ForSaleToSupermarket,      // 24\n    SoldToSupermarket,         // 25 \n    ShippedToSupermarket,      // 26\n    ReceivedBySupermarket,     // 27\n    ForSaleToConsumer,         // 28\n    SoldToConsumer,            // 29\n    PurchasedByConsumer        // 30\n  }\n\n  State constant defaultState = State.Obtained;\n\n  // Define a struct 'Item' with the following fields:\n  struct Item {\n    uint    sku;  // Stock Keeping Unit (SKU)\n    uint    upc; // Universal Product Code (UPC), generated by the Poulterer, goes on the package, can be verified by the Consumer\n    bool    existItem; // Boolean to check the existence of the item easily\n    address payable ownerID;  // Metamask-Ethereum address of the current owner as the product moves through 31 stages\n    address payable originPoultererID; // Metamask-Ethereum address of the Poulterer\n    string  originFarmName; // Poulterer Name\n    string  originFarmInformation;  // Poulterer Information\n    string  originFarmLatitude; // Farm Latitude\n    string  originFarmLongitude;  // Farm Longitude\n    uint    productID;  // Product ID potentially a combination of upc + sku\n    string  productNotes; // Product Notes\n    uint    productPrice; // Product Price\n    bool    isQualified; // The quality status of the milk.\n    State   itemState;  // Product State as represented in the enum above\n    address payable dairyfactoryID;  // Metamask-Ethereum address of the Dairyfactory\n    address payable distributorID;  // Metamask-Ethereum address of the Distributor\n    address payable retailerID; // Metamask-Ethereum address of the Retailer\n    address payable supermarketID;  // Metamask-Ethereum address of the Supermarket\n    address payable consumerID; // Metamask-Ethereum address of the Consumer\n  }\n\n  // Define 15 events with the same 15 state values and accept 'upc' as input argument\n  event Obtained(uint upc, address emiter);\n  event Stored(uint upc, address emiter);\n  event ForSaleToDairyfactory(uint upc, address emiter, uint price);\n  event SoldToDairyfactory(uint upc, address emiter);\n  event ShippedToDairyfactory(uint upc, address emiter);\n  event ReceivedByDairyfactory(uint upc, address emiter);\n  event Tested(uint upc, address emiter, bool testResult);\n  event Processed(uint upc, address emiter);\n  event Returned(uint upc, address emiter);\n  event Retaken(uint upc, address emiter);\n  event ShippedToPoulterer(uint upc, address emiter);\n  event ReceivedByPoulterer(uint upc, address emiter);\n  event Destroyed(uint upc, address emiter);\n  event Packed(uint upc, address emiter);\n  event ForSaleToDistributor(uint upc, address emiter, uint price);\n  event SoldToDistributor(uint upc, address emiter);\n  event ShippedToDistributor(uint upc, address emiter);\n  event ReceivedByDistributor(uint upc, address emiter);\n  event ForSaleToRetailer(uint upc, address emiter, uint price);\n  event SoldToRetailer(uint upc, address emiter);\n  event ShippedToRetailer(uint upc, address emiter);\n  event ReceivedByRetailer(uint upc, address emiter);\n  event ForSaleToSupermarket(uint upc, address emiter, uint price);\n  event SoldToSupermarket(uint upc, address emiter);\n  event ShippedToSupermarket(uint upc, address emiter);\n  event ReceivedBySupermarket(uint upc, address emiter);\n  event ForSaleToConsumer(uint upc, address emiter, uint price);\n  event SoldToConsumer(uint upc, address emiter);\n  event PurchasedByConsumer(uint upc, address emiter);\n\n  // Define a modifer that verifies the Caller\n  modifier verifyCaller (address _address) {\n    require(msg.sender == _address); \n    _;\n  }\n\n  // Define a modifier that checks if the paid amount is sufficient to cover the price\n  modifier paidEnough(uint _price) { \n    require(msg.value >= _price); \n    _;\n  }\n  \n  // Define a modifier that checks the price and refunds the remaining balance\n  modifier checkValue(uint _upc) {\n    _;\n    uint _price = items[_upc].productPrice;\n    uint amountToReturn = msg.value - _price;\n    msg.sender.transfer(amountToReturn);\n  }\n\n  // Define a modifier that checks if an item.state of a upc is Sold\n  modifier checkItemState (uint _upc, State _state, string memory _errorMessage){\n    require(items[_upc].itemState == _state, _errorMessage);\n    _;\n  }\n\n  // Define a modifier that checks if a _upc is already in the items mapping\n  modifier checkUpcInItems(uint _upc) {\n    require(items[_upc].existItem, \"This UPC does not exist in items mapping.\");\n    _;\n  }\n\n  // In the constructor set 'owner' to the address that instantiated the contract\n  // and set 'sku' to 1\n  // and set 'upc' to 1\n  constructor() public payable {\n    sku = 1;\n    upc = 1;\n  }\n\n  // Define a function 'kill' if required\n  function kill() public {\n     selfdestruct(this.owner()); \n  }\n\n  // Define a function 'obtainItem' that allows a poulterer to mark an item 'Obtained'\n  function obtainItem(\n                  uint _upc, \n                  address payable _originPoultererID, \n                  string memory _originFarmName, \n                  string memory _originFarmInformation, \n                  string memory _originFarmLatitude, \n                  string memory _originFarmLongitude, \n                  string memory _productNotes) \n                  public onlyPoulterer()\n  {\n    // Add the new item as part of Obtain\n    Item memory newItem = Item(\n      sku,                      // Stock Keeping Unit (SKU)\n      _upc,                     // Universal Product Code (UPC)\n      true,                     // Boolean to check the existence of the item easily\n      _originPoultererID,       // Metamask-Ethereum address of the current owner\n      _originPoultererID,       // Metamask-Ethereum address of the Poulterer\n      _originFarmName,          // Poulterer Name\n      _originFarmInformation,   // Poulterer Information  \n      _originFarmLatitude,      // Farm Latitude     \n      _originFarmLongitude,     // Farm Longitude   \n      _upc + sku,               // Product ID\n      _productNotes,            // Product Note\n      0,                        // Product Price\n      false,                    // The quality status of milk.\n      State.Obtained,           // Product State\n      address(0),               // Metamask-Ethereum address of the Dairyfactory\n      address(0),               // Metamask-Ethereum address of the Distributor\n      address(0),               // Metamask-Ethereum address of the Retailer\n      address(0),               // Metamask-Ethereum address of the Supermarket\n      address(0)                // Metamask-Ethereum address of the Consumer\n    );\n    items[_upc] = newItem;\n    // Increment sku\n    sku = sku + 1;\n    // Emit the appropriate event\n    emit Obtained(_upc, msg.sender);\n  }\n\n  // Define a function 'StoreItem' that allows a poulterer to mark an item 'Stored'\n  function storeItem(uint _upc) public\n          onlyPoulterer()\n          checkUpcInItems (_upc)\n          checkItemState (_upc, State.Obtained, \"Milk is not obtained!\")\n          verifyCaller(items[_upc].ownerID) // Check the caller is the owner of the item\n  {\n    // Update the appropriate fields\n    items[_upc].itemState = State.Stored;\n    \n    // Emit the appropriate event\n    emit Stored(_upc, msg.sender);\n  }\n\n  // Define a function 'sellToDairyfactory' that allows a poulterer to mark an item 'ForSaleToDairyfactory'\n  function sellToDairyfactory(uint _upc, uint _price) public\n         onlyPoulterer()\n         checkUpcInItems (_upc)\n         verifyCaller(items[_upc].ownerID) // Check if caller is the owner of the item\n         checkItemState (_upc, State.Stored, \"Milk is not stored!\")\n  {\n      // Update the appropriate fields\n      items[_upc].itemState = State.ForSaleToDairyfactory;\n      items[_upc].productPrice = _price;\n  \n      // Emit the appropriate event\n      emit ForSaleToDairyfactory(_upc, msg.sender, _price);\n  }\n\n  // Define a function 'buyItemByDairyfactory' that allows the dairyfactory to mark an item 'SoldToDairyfactory'\n  // Use the above defined modifiers to check if the item is available for sale, if the buyer has paid enough, \n  // and any excess ether sent is refunded back to the buyer\n  function buyItemByDairyfactory(uint _upc) public payable\n          onlyDairyfactory()\n          checkUpcInItems (_upc)\n          checkItemState (_upc, State.ForSaleToDairyfactory, \"Milk is not for sale to dairyfactory!\")\n          paidEnough(items[_upc].productPrice) // Check if buyer has paid enough \n          checkValue(_upc) // Send any excess Ether back to buyer\n    {\n    // Update the appropriate fields - ownerID, dairyfactoryID, itemState\n    items[_upc].ownerID = msg.sender;\n    items[_upc].dairyfactoryID = msg.sender;\n    items[_upc].itemState = State.SoldToDairyfactory;\n    \n    // Transfer money to poulterer\n    items[_upc].originPoultererID.transfer(items[_upc].productPrice);\n    \n    // emit the appropriate event\n    emit SoldToDairyfactory(_upc, msg.sender);\n  }\n\n  // Define a function 'shipItemToDairyfactory' that allows the poulterer to mark an item 'ShippedToDairyfactory'\n  // Use the above modifers to check if the item is sold\n  function shipItemToDairyfactory(uint _upc) public\n         onlyPoulterer()\n         checkUpcInItems (_upc)\n         verifyCaller(items[_upc].originPoultererID) // Check if caller is the poulterer of the item\n         checkItemState (_upc, State.SoldToDairyfactory, \"Milk is not sold to dairyfactory!\")   \n    {\n    // Update the appropriate fields\n    items[_upc].itemState = State.ShippedToDairyfactory;\n\n    // Emit the appropriate event\n    emit ShippedToDairyfactory(_upc, msg.sender);\n  }\n\n  // Define a function 'receiveItemByDairyfactory' that allows the dairyfactory to mark an item 'ReceivedByDairyfactory'\n  // Use the above modifiers to check if the item is shipped\n  function receiveItemByDairyfactory(uint _upc) public\n         onlyDairyfactory()\n         checkUpcInItems (_upc)\n         verifyCaller(items[_upc].ownerID) // Check if caller is the owner of the item\n         checkItemState (_upc, State.ShippedToDairyfactory, \"Milk is not shipped to dairyfactory!\") \n    {\n    // Update the appropriate fields - ownerID, retailerID, itemState\n    items[_upc].itemState = State.ReceivedByDairyfactory;\n\n    // Emit the appropriate event\n    emit ReceivedByDairyfactory(_upc, msg.sender);\n  }\n\n  // Define a function 'testMilk' that allows the dairyfactory to mark an item 'Qualified or Failed'\n  // Use the above modifiers to check if the item is received\n  function testMilk(uint _upc, bool _testResult) public\n         onlyDairyfactory()\n         checkUpcInItems (_upc)\n         verifyCaller(items[_upc].ownerID) // Check if caller is the owner of the item\n         checkItemState (_upc, State.ReceivedByDairyfactory, \"Milk is not received by dairyfactory!\") \n    {\n      if  (_testResult) {\n        // Update the appropriate fields - ownerID, retailerID, itemState\n        items[_upc].itemState = State.Qualified;\n        // Emit the appropriate event\n        //emit Qualified(_upc, msg.sender);\n      } else {\n        // Update the appropriate fields - ownerID, retailerID, itemState\n        items[_upc].itemState = State.Failed;\n        // Emit the appropriate event\n        //emit Failed(_upc, msg.sender);\n      }\n  }\n\n  // Define a function 'processMilk' that allows the dairyfactory to mark an item 'Processed'\n  // Use the above modifiers to check if the item is qualified\n  function processMilk(uint _upc) public\n         onlyDairyfactory()\n         checkUpcInItems (_upc)\n         verifyCaller(items[_upc].ownerID) // Check if caller is the owner of the item\n         checkItemState (_upc, State.Qualified, \"Milk is not qualified the quality test!\") \n    {\n    // Update the appropriate fields - ownerID, retailerID, itemState\n    items[_upc].itemState = State.Processed;\n\n    // Emit the appropriate event\n    emit Processed(_upc, msg.sender);\n  }\n\n  // Define a function 'returnMilk' that allows the dairyfactory to mark an item 'Returned'\n  // Use the above modifiers to check if the item is qualified\n  function returnMilk(uint _upc) public\n         onlyDairyfactory()\n         checkUpcInItems (_upc)\n         verifyCaller(items[_upc].ownerID) // Check if caller is the owner of the item\n         checkItemState (_upc, State.Failed, \"Milk is not failed the quality test!\") \n    {\n    // Update the appropriate fields - ownerID, retailerID, itemState\n    items[_upc].itemState = State.Returned;\n\n    // Emit the appropriate event\n    emit Returned(_upc, msg.sender);\n  }\n\n  // Define a function 'retakeMilk' that allows the poulterer to mark an item 'Retaken'\n  function retakeMilk(uint _upc) public \n          onlyPoulterer()\n          checkUpcInItems (_upc)\n          verifyCaller(items[_upc].originPoultererID) // Check if caller is the poulterer of the item\n          checkItemState (_upc, State.Returned, \"Milk is not returned to poulterer!\")\n    {\n    // Update the appropriate fields - ownerID, dairyfactoryID, itemState\n    items[_upc].itemState = State.Retaken;\n    \n    // emit the appropriate event\n    emit Retaken(_upc, msg.sender);\n  }\n\n  // Define a function 'shipItemToPoulterer' that allows the dairy factory to mark an item 'ShippedToPoulterer'\n  // Use the above modifers to check if the item is retaken\n  function shipItemToPoulterer(uint _upc) public\n         onlyDairyfactory()\n         checkUpcInItems (_upc)\n         verifyCaller(items[_upc].originPoultererID) // Check if caller is the poulterer of the item\n         checkItemState (_upc, State.Retaken, \"Milk is not retaken by dairy factory!\")   \n    {\n    // Update the appropriate fields\n    items[_upc].itemState = State.ShippedToPoulterer;\n\n    // Emit the appropriate event\n    emit ShippedToPoulterer(_upc, msg.sender);\n  }\n\n  // Define a function 'receiveItemByPoulterer' that allows the dairyfactory to mark an item 'ReceivedByPoulterer'\n  // Use the above modifiers to check if the item is ShippedToPoulterer\n  function receiveItemByPoulterer(uint _upc) public\n         onlyPoulterer()\n         checkUpcInItems (_upc)\n         verifyCaller(items[_upc].ownerID) // Check if caller is the owner of the item\n         checkItemState (_upc, State.ShippedToPoulterer, \"Milk is not shipped to poulterer!\") \n    {\n    // Update the appropriate fields - ownerID, retailerID, itemState\n    items[_upc].itemState = State.ReceivedByPoulterer;\n\n    // Emit the appropriate event\n    emit ReceivedByPoulterer(_upc, msg.sender);\n  }\n\n  // Define a function 'destroyMilk' that allows the poulterer to mark an item 'Destroyed'\n  // Use the above modifiers to check if the item is ReceivedByPoulterer\n  function destroyMilk(uint _upc) public\n         onlyPoulterer()\n         checkUpcInItems (_upc)\n         verifyCaller(items[_upc].ownerID) // Check if caller is the owner of the item\n         checkItemState (_upc, State.ReceivedByPoulterer, \"Milk is not received by poulterer!\") \n    {\n    // Update the appropriate fields - ownerID, retailerID, itemState\n    items[_upc].itemState = State.Destroyed;\n\n    // Emit the appropriate event\n    emit Destroyed(_upc, msg.sender);\n  }\n\n  // Define a function 'packMilk' that allows the dairy factory to mark an item 'Packed'\n  // Use the above modifiers to check if the item is processed\n  function packMilk(uint _upc) public\n         onlyDairyfactory()\n         checkUpcInItems (_upc)\n         verifyCaller(items[_upc].ownerID) // Check if caller is the owner of the item\n         checkItemState (_upc, State.Processed, \"Milk is not processed!\") \n    {\n    // Update the appropriate fields - ownerID, retailerID, itemState\n    items[_upc].itemState = State.Packed;\n\n    // Emit the appropriate event\n    emit Packed(_upc, msg.sender);\n  }\n\n  // Define a function 'sellToDistributor' that allows a dairy factory to mark an item 'ForSaleToDistributor'\n  function sellToDistributor(uint _upc, uint _price) public\n         onlyDairyfactory()\n         checkUpcInItems (_upc)\n         verifyCaller(items[_upc].ownerID) // Check if caller is the owner of the item\n         checkItemState (_upc, State.Packed, \"Milk is not packed!\")\n  {\n      // Update the appropriate fields\n      items[_upc].itemState = State.ForSaleToDistributor;\n      items[_upc].productPrice = _price;\n  \n      // Emit the appropriate event\n      emit ForSaleToDistributor(_upc, msg.sender, _price);\n  }\n\n  // Define a function 'buyItemByDistributor' that allows the distributor to mark an item 'SoldToDistributor'\n  // Use the above defined modifiers to check if the item is available for sale, if the buyer has paid enough, \n  // and any excess ether sent is refunded back to the buyer\n  function buyItemByDistributor(uint _upc) public payable\n          onlyDistributor()\n          checkUpcInItems (_upc)\n          checkItemState (_upc, State.ForSaleToDistributor, \"Milk is not for sale to distributor!\")\n          paidEnough(items[_upc].productPrice) // Check if buyer has paid enough \n          checkValue(_upc) // Send any excess Ether back to buyer\n    {\n    // Update the appropriate fields - ownerID, dairyfactoryID, itemState\n    items[_upc].ownerID = msg.sender;\n    items[_upc].distributorID = msg.sender;\n    items[_upc].itemState = State.SoldToDistributor;\n    \n    // Transfer money to poulterer\n    items[_upc].dairyfactoryID.transfer(items[_upc].productPrice);\n    \n    // emit the appropriate event\n    emit SoldToDistributor(_upc, msg.sender);\n  }\n\n  // Define a function 'shipItemToDistributor' that allows the dairy factory to mark an item 'ShippedToDistributor'\n  // Use the above modifers to check if the item is sold\n  function shipItemToDistributor(uint _upc) public\n         onlyDairyfactory()\n         checkUpcInItems (_upc)\n         verifyCaller(items[_upc].ownerID) // Check if caller is the owner of the item\n         checkItemState (_upc, State.SoldToDistributor, \"Milk is not sold to distributor!\")   \n    {\n    // Update the appropriate fields\n    items[_upc].itemState = State.ShippedToDistributor;\n\n    // Emit the appropriate event\n    emit ShippedToDistributor(_upc, msg.sender);\n  }\n\n  // Define a function 'receiveItemByDistributor' that allows the distributor to mark an item 'ReceivedByDistributor'\n  // Use the above modifiers to check if the item is shipped\n  function receiveItemByDistributor(uint _upc) public\n         onlyDistributor()\n         checkUpcInItems (_upc)\n         verifyCaller(items[_upc].ownerID) // Check if caller is the owner of the item\n         checkItemState (_upc, State.ShippedToDistributor, \"Milk is not shipped to distributor!\") \n    {\n    // Update the appropriate fields - ownerID, retailerID, itemState\n    items[_upc].itemState = State.ReceivedByDistributor;\n\n    // Emit the appropriate event\n    emit ReceivedByDistributor(_upc, msg.sender);\n  }\n\n  // Define a function 'sellToRetailer' that allows a dairy factory to mark an item 'ForSaleToRetailer'\n  function sellToRetailer(uint _upc, uint _price) public\n         onlyDistributor()\n         checkUpcInItems (_upc)\n         verifyCaller(items[_upc].ownerID) // Check if caller is the owner of the item\n         checkItemState (_upc, State.ReceivedByDistributor, \"Milk is not received by distributor!\")\n  {\n      // Update the appropriate fields\n      items[_upc].itemState = State.ForSaleToRetailer;\n      items[_upc].productPrice = _price;\n  \n      // Emit the appropriate event\n      emit ForSaleToRetailer(_upc, msg.sender, _price);\n  }\n\n  // Define a function 'buyItemByRetailer' that allows the retailer to mark an item 'SoldToRetailer'\n  // Use the above defined modifiers to check if the item is available for sale, if the buyer has paid enough, \n  // and any excess ether sent is refunded back to the buyer\n  function buyItemByRetailer(uint _upc) public payable\n          onlyRetailer()\n          checkUpcInItems (_upc)\n          checkItemState (_upc, State.ForSaleToRetailer, \"Milk is not for sale to retailer!\")\n          paidEnough(items[_upc].productPrice) // Check if buyer has paid enough \n          checkValue(_upc) // Send any excess Ether back to buyer\n    {\n    // Update the appropriate fields - ownerID, dairyfactoryID, itemState\n    items[_upc].ownerID = msg.sender;\n    items[_upc].retailerID = msg.sender;\n    items[_upc].itemState = State.SoldToRetailer;\n    \n    // Transfer money to poulterer\n    items[_upc].distributorID.transfer(items[_upc].productPrice);\n    \n    // emit the appropriate event\n    emit SoldToRetailer(_upc, msg.sender);\n  }\n\n  // Define a function 'shipItemToRetailer' that allows the distributor to mark an item 'ShippedToRetailer'\n  // Use the above modifers to check if the item is sold\n  function shipItemToRetailer(uint _upc) public\n         onlyDistributor()\n         checkUpcInItems (_upc)\n         verifyCaller(items[_upc].ownerID) // Check if caller is the owner of the item\n         checkItemState (_upc, State.SoldToRetailer, \"Milk is not sold to retailer!\")   \n    {\n    // Update the appropriate fields\n    items[_upc].itemState = State.ShippedToRetailer;\n\n    // Emit the appropriate event\n    emit ShippedToRetailer(_upc, msg.sender);\n  }\n\n  // Define a function 'receiveItemByRetailer' that allows the retailer to mark an item 'ReceivedByRetailer'\n  // Use the above modifiers to check if the item is shipped\n  function receiveItemByRetailer(uint _upc) public\n         onlyRetailer()\n         checkUpcInItems (_upc)\n         verifyCaller(items[_upc].ownerID) // Check if caller is the owner of the item\n         checkItemState (_upc, State.ShippedToRetailer, \"Milk is not shipped to retailer!\") \n    {\n    // Update the appropriate fields - ownerID, retailerID, itemState\n    items[_upc].itemState = State.ReceivedByRetailer;\n\n    // Emit the appropriate event\n    emit ReceivedByRetailer(_upc, msg.sender);\n  }\n\n  // Define a function 'sellToSuperMarket' that allows a retailer to mark an item 'ForSaleToSupermarket'\n  function sellToSuperMarket(uint _upc, uint _price) public\n         onlyRetailer()\n         checkUpcInItems (_upc)\n         verifyCaller(items[_upc].ownerID) // Check if caller is the owner of the item\n         checkItemState (_upc, State.ReceivedByRetailer, \"Milk is not received by retailer!\")\n  {\n      // Update the appropriate fields\n      items[_upc].itemState = State.ForSaleToSupermarket;\n      items[_upc].productPrice = _price;\n  \n      // Emit the appropriate event\n      emit ForSaleToSupermarket(_upc, msg.sender, _price);\n  }\n\n  // Define a function 'buyItemBySupermarket' that allows the supermarket to mark an item 'SoldToSupermarket'\n  // Use the above defined modifiers to check if the item is available for sale, if the buyer has paid enough, \n  // and any excess ether sent is refunded back to the buyer\n  function buyItemBySupermarket(uint _upc) public payable\n          onlySupermarket()\n          checkUpcInItems (_upc)\n          checkItemState (_upc, State.ForSaleToSupermarket, \"Milk is not for sale to supermarket!\")\n          paidEnough(items[_upc].productPrice) // Check if buyer has paid enough \n          checkValue(_upc) // Send any excess Ether back to buyer\n    {\n    // Update the appropriate fields - ownerID, dairyfactoryID, itemState\n    items[_upc].ownerID = msg.sender;\n    items[_upc].supermarketID = msg.sender;\n    items[_upc].itemState = State.SoldToSupermarket;\n    \n    // Transfer money to poulterer\n    items[_upc].retailerID.transfer(items[_upc].productPrice);\n    \n    // emit the appropriate event\n    emit SoldToSupermarket(_upc, msg.sender);\n  }\n\n  // Define a function 'shipItemToSupermarket' that allows the retailer to mark an item 'ShippedToSupermarket'\n  // Use the above modifers to check if the item is sold\n  function shipItemToSupermarket(uint _upc) public\n         onlyRetailer()\n         checkUpcInItems (_upc)\n         verifyCaller(items[_upc].ownerID) // Check if caller is the owner of the item\n         checkItemState (_upc, State.SoldToSupermarket, \"Milk is not sold to supermarket!\")   \n    {\n    // Update the appropriate fields\n    items[_upc].itemState = State.ShippedToSupermarket;\n\n    // Emit the appropriate event\n    emit ShippedToSupermarket(_upc, msg.sender);\n  }\n\n  // Define a function 'receiveItemBySupermarket' that allows the retailer to mark an item 'ReceivedBySupermarket'\n  // Use the above modifiers to check if the item is shipped\n  function receiveItemBySupermarket(uint _upc) public\n         onlySupermarket()\n         checkUpcInItems (_upc)\n         verifyCaller(items[_upc].ownerID) // Check if caller is the owner of the item\n         checkItemState (_upc, State.ShippedToSupermarket, \"Milk is not shipped to supermarket!\") \n    {\n    // Update the appropriate fields - ownerID, retailerID, itemState\n    items[_upc].itemState = State.ReceivedBySupermarket;\n\n    // Emit the appropriate event\n    emit ReceivedBySupermarket(_upc, msg.sender);\n  }\n\n  // Define a function 'sellToConsumer' that allows a supermarket to mark an item 'ForSaleToConsumer'\n  function sellToConsumer(uint _upc, uint _price) public\n         onlySupermarket()\n         checkUpcInItems (_upc)\n         verifyCaller(items[_upc].ownerID) // Check if caller is the owner of the item\n         checkItemState (_upc, State.ReceivedBySupermarket, \"Milk is not received by supermarket!\")\n  {\n      // Update the appropriate fields\n      items[_upc].itemState = State.ForSaleToConsumer;\n      items[_upc].productPrice = _price;\n  \n      // Emit the appropriate event\n      emit ForSaleToConsumer(_upc, msg.sender, _price);\n  }\n\n  // Define a function 'buyItemByConsumer' that allows the supermarket to mark an item 'SoldToConsumer'\n  // Use the above defined modifiers to check if the item is available for sale, if the buyer has paid enough, \n  // and any excess ether sent is refunded back to the buyer\n  function buyItemByConsumer(uint _upc) public payable\n          onlyConsumer()\n          checkUpcInItems (_upc)\n          checkItemState (_upc, State.ForSaleToConsumer, \"Milk is not for sale to consumer!\")\n          paidEnough(items[_upc].productPrice) // Check if buyer has paid enough \n          checkValue(_upc) // Send any excess Ether back to buyer\n    {\n    // Update the appropriate fields - ownerID, dairyfactoryID, itemState\n    items[_upc].ownerID = msg.sender;\n    items[_upc].consumerID = msg.sender;\n    items[_upc].itemState = State.SoldToConsumer;\n    \n    // Transfer money to poulterer\n    items[_upc].supermarketID.transfer(items[_upc].productPrice);\n    \n    // emit the appropriate event\n    emit SoldToConsumer(_upc, msg.sender);\n  }\n\n  // Define a function 'purchaseItemByConsumer' that allows the consumer to mark an item 'PurchasedByConsumer'\n  // Use the above modifiers to check if the item is received\n  function purchaseItemByConsumer(uint _upc) public\n         onlyConsumer()\n         checkUpcInItems (_upc)\n         verifyCaller(items[_upc].ownerID) // Check if caller is the owner of the item\n         checkItemState (_upc, State.SoldToConsumer, \"Milk is not sold to consumer!\")\n    {\n    // Update the appropriate fields - ownerID, retailerID, itemState\n    items[_upc].itemState = State.PurchasedByConsumer;\n\n    // Emit the appropriate event\n    emit PurchasedByConsumer(_upc, msg.sender);\n  }\n\n  // Define a function 'fetchItemBufferPublic' that fetches the public data\n  function fetchItemBufferPublic(uint _upc) public checkUpcInItems(_upc) view returns \n  (\n      uint    itemSKU,\n      uint    itemUPC,\n      address ownerID,\n      address originPoultererID,\n      string  memory originFarmName,\n      string  memory originFarmInformation,\n      string  memory originFarmLatitude,\n      string  memory originFarmLongitude,\n      State   itemState,\n      uint    productPrice,\n      address distributorID\n  ) \n  {\n      // Assign values to the parameters\n      Item memory foundedItem = items[_upc];\n      itemSKU = foundedItem.sku;\n      itemUPC = foundedItem.upc;\n      ownerID = foundedItem.ownerID;\n      originPoultererID = foundedItem.originPoultererID;\n      originFarmName = foundedItem.originFarmName;\n      originFarmInformation = foundedItem.originFarmInformation;\n      originFarmLatitude = foundedItem.originFarmLatitude;\n      originFarmLongitude = foundedItem.originFarmLongitude;\n      itemState = foundedItem.itemState;\n      productPrice = foundedItem.productPrice;\n      distributorID = foundedItem.distributorID;\n      return \n      (\n      itemSKU,\n      itemUPC,\n      ownerID,\n      originPoultererID,\n      originFarmName,\n      originFarmInformation,\n      originFarmLatitude,\n      originFarmLongitude,\n      itemState,\n      productPrice,\n      distributorID\n      );\n  }\n\n  // Define a function 'fetchItemBufferForDistributor' that fetches the data only for distributor\n  function fetchItemBufferDistributor(uint _upc) public checkUpcInItems(_upc) view returns \n  (\n      uint    itemSKU,\n      uint    itemUPC,\n      address ownerID,\n      address originPoultererID,\n      string  memory originFarmName,\n      string  memory originFarmInformation,\n      string  memory originFarmLatitude,\n      string  memory originFarmLongitude,\n      string  memory productNotes,\n      State itemState\n  ) \n  {\n      // Assign values to the parameters\n      Item memory foundedItem = items[_upc];\n      itemSKU = foundedItem.sku;\n      itemUPC = foundedItem.upc;\n      ownerID = foundedItem.ownerID;\n      originPoultererID = foundedItem.originPoultererID;\n      originFarmName = foundedItem.originFarmName;\n      originFarmInformation = foundedItem.originFarmInformation;\n      originFarmLatitude = foundedItem.originFarmLatitude;\n      originFarmLongitude = foundedItem.originFarmLongitude;\n      productNotes = foundedItem.productNotes;\n      itemState = foundedItem.itemState;\n  return \n  (\n      itemSKU,\n      itemUPC,\n      ownerID,\n      originPoultererID,\n      originFarmName,\n      originFarmInformation,\n      originFarmLatitude,\n      originFarmLongitude,\n      productNotes,\n      itemState\n  );\n  }\n\n  // Define a function 'fetchItemBufferForConsumer' that fetches the data only for consumer\n  function fetchItemBufferConsumer(uint _upc) public checkUpcInItems(_upc) view returns \n  (\n      uint    itemSKU,\n      uint    itemUPC,\n      address ownerID,\n      address originPoultererID,\n      string  memory originFarmName,\n      string  memory productNotes,\n      address distributorID,\n      State itemState\n  ) \n  {\n      // Assign values to the parameters\n      Item memory foundedItem = items[_upc];\n      itemSKU = foundedItem.sku;\n      itemUPC = foundedItem.upc;\n      ownerID = foundedItem.ownerID;\n      originPoultererID = foundedItem.originPoultererID;\n      originFarmName = foundedItem.originFarmName;\n      distributorID = foundedItem.distributorID;\n      productNotes = foundedItem.productNotes;\n      itemState = foundedItem.itemState;\n  return \n  (\n      itemSKU,\n      itemUPC,\n      ownerID,\n      originPoultererID,\n      originFarmName,\n      productNotes,\n      distributorID,\n      itemState\n  );\n  }\n}\n",
  "sourcePath": "E:/Udacity/Blockchain/Second Term/Second Project/project-6/contracts/milkbase/SupplyChain.sol",
  "compiler": {
    "name": "solc",
    "version": "0.5.0+commit.1d4f565a.Emscripten.clang"
  },
  "schemaVersion": "3.0.9",
  "updatedAt": "2019-05-23T23:44:51.622Z",
  "devdoc": {
    "methods": {}
  },
  "userdoc": {
    "methods": {
      "isOwner()": {
        "notice": "Check if the calling address is the owner of the contract"
      },
      "owner()": {
        "notice": "Look up the address of the owner"
      },
      "renounceOwnership()": {
        "notice": "Define a function to renounce ownerhip"
      },
      "transferOwnership(address)": {
        "notice": "Define a public function to transfer ownership"
      }
    }
  }
}