{
  "contractName": "DairyfactoryRole",
  "abi": [
    {
      "inputs": [],
      "payable": false,
      "stateMutability": "nonpayable",
      "type": "constructor"
    },
    {
      "anonymous": false,
      "inputs": [
        {
          "indexed": true,
          "name": "account",
          "type": "address"
        }
      ],
      "name": "DairyfactoryAdded",
      "type": "event"
    },
    {
      "anonymous": false,
      "inputs": [
        {
          "indexed": true,
          "name": "account",
          "type": "address"
        }
      ],
      "name": "DairyfactoryRemoved",
      "type": "event"
    },
    {
      "constant": true,
      "inputs": [
        {
          "name": "account",
          "type": "address"
        }
      ],
      "name": "isDairyfactory",
      "outputs": [
        {
          "name": "",
          "type": "bool"
        }
      ],
      "payable": false,
      "stateMutability": "view",
      "type": "function"
    },
    {
      "constant": false,
      "inputs": [
        {
          "name": "account",
          "type": "address"
        }
      ],
      "name": "addDairyfactory",
      "outputs": [],
      "payable": false,
      "stateMutability": "nonpayable",
      "type": "function"
    },
    {
      "constant": false,
      "inputs": [],
      "name": "renounceDairyfactory",
      "outputs": [],
      "payable": false,
      "stateMutability": "nonpayable",
      "type": "function"
    }
  ],
  "bytecode": "0x608060405234801561001057600080fd5b506100203361002560201b60201c565b6101df565b61003d81600061007460201b6102201790919060201c565b6040516001600160a01b038216907fb158cf7b7032a567dfb9b3a9765efa092798b7cded378ed4ae353ef385f2e73590600090a250565b6001600160a01b0381166100d3576040517f08c379a000000000000000000000000000000000000000000000000000000000815260040180806020018281038252603f815260200180610791603f913960400191505060405180910390fd5b6100e3828261015e60201b60201c565b15610139576040517f08c379a000000000000000000000000000000000000000000000000000000000815260040180806020018281038252604f815260200180610742604f913960600191505060405180910390fd5b6001600160a01b0316600090815260209190915260409020805460ff19166001179055565b60006001600160a01b0382166101bf576040517f08c379a000000000000000000000000000000000000000000000000000000000815260040180806020018281038252603d8152602001806107d0603d913960400191505060405180910390fd5b506001600160a01b03166000908152602091909152604090205460ff1690565b610554806101ee6000396000f3fe608060405234801561001057600080fd5b50600436106100415760003560e01c806375487e9c14610046578063878e15641461008057806387cb6fb6146100a8575b600080fd5b61006c6004803603602081101561005c57600080fd5b50356001600160a01b03166100b0565b604080519115158252519081900360200190f35b6100a66004803603602081101561009657600080fd5b50356001600160a01b03166100c8565b005b6100a661011b565b60006100c2818363ffffffff61012616565b92915050565b6100d1336100b0565b61010f57604051600160e51b62461bcd0281526004018080602001828103825260408152602001806104176040913960400191505060405180910390fd5b61011881610190565b50565b610124336101d8565b565b60006001600160a01b03821661017057604051600160e51b62461bcd02815260040180806020018281038252603d815260200180610457603d913960400191505060405180910390fd5b506001600160a01b03166000908152602091909152604090205460ff1690565b6101a160008263ffffffff61022016565b6040516001600160a01b038216907fb158cf7b7032a567dfb9b3a9765efa092798b7cded378ed4ae353ef385f2e73590600090a250565b6101e960008263ffffffff6102d616565b6040516001600160a01b038216907f75ff978eb34dd8c30ffb904cdaf6badc758c2d5b8fb971ccf126f288f447761d90600090a250565b6001600160a01b03811661026857604051600160e51b62461bcd02815260040180806020018281038252603f8152602001806103d8603f913960400191505060405180910390fd5b6102728282610126565b156102b157604051600160e51b62461bcd02815260040180806020018281038252604f815260200180610389604f913960600191505060405180910390fd5b6001600160a01b0316600090815260209190915260409020805460ff19166001179055565b6001600160a01b03811661031e57604051600160e51b62461bcd0281526004018080602001828103825260438152602001806104946043913960600191505060405180910390fd5b6103288282610126565b61036657604051600160e51b62461bcd0281526004018080602001828103825260528152602001806104d76052913960600191505060405180910390fd5b6001600160a01b0316600090815260209190915260409020805460ff1916905556fe4552524f52204d6573736167653a2054686520616464647265737320676976656e2068617320616c72656164792074686520726f6c6520696e2066756e6374696f6e20616464206e657720726f6c654552524f52204d6573736167653a2041646472657373206163636f756e74206973206e756c6c20696e2066756e6374696f6e20616464206e657720726f6c654552524f52204d6573736167653a20546865206164647265737320646f65736ec2b474206d61746368207769746820616e79206461697279666163746f72792e4552524f52204d6573736167653a2041646472657373206163636f756e74206e756c6c20696e2066756e6374696f6e206861732074686520726f6c652e4552524f52204d6573736167653a204164647265737373206163636f756e74206973206e756c6c20696e2066756e6374696f6e2072656d6f7665207468652072756c654552524f52204d6573736167653a20546865206164647265737320676976656e20646f6573206e6f74206861732074686520726f6c6520696e2066756e6374696f6e2072656d6f76652074686520726f6c65a165627a7a7230582024a48f550b203dd74168432c6707a4d9a47e319e61866cb58b1869edd4615f5300294552524f52204d6573736167653a2054686520616464647265737320676976656e2068617320616c72656164792074686520726f6c6520696e2066756e6374696f6e20616464206e657720726f6c654552524f52204d6573736167653a2041646472657373206163636f756e74206973206e756c6c20696e2066756e6374696f6e20616464206e657720726f6c654552524f52204d6573736167653a2041646472657373206163636f756e74206e756c6c20696e2066756e6374696f6e206861732074686520726f6c652e",
  "source": "pragma solidity ^0.5.0;\n\n// Import the library 'Roles'\nimport \"./Roles.sol\";\n\n// Define a contract 'DairyfactoryRole' to manage this role - add, remove, check\ncontract DairyfactoryRole {\n  using Roles for Roles.Role;\n\n  // Define 2 events, one for Adding, and other for Removing\n  event DairyfactoryAdded(address indexed account);\n  event DairyfactoryRemoved(address indexed account);\n\n  // Define a struct 'dairyfactories' by inheriting from 'Roles' library, struct Role\n  Roles.Role private dairyfactorys;\n\n  // In the constructor make the address that deploys this contract the 1st farmer\n  constructor() public {\n    _addDairyfactory(msg.sender);\n  }\n\n  // Define a modifier that checks to see if msg.sender has the appropriate role\n  modifier onlyDairyfactory() {\n    require(isDairyfactory(msg.sender),\"ERROR Message: The address doesn´t match with any dairyfactory.\");\n    _;\n  }\n\n  // Define a function 'isDairyfactory' to check this role\n  function isDairyfactory(address account) public view returns (bool) {\n    return dairyfactorys.has(account);\n  }\n\n  // Define a function 'addDairyfactory' that adds this role\n  function addDairyfactory(address account) public onlyDairyfactory() {\n    _addDairyfactory(account);\n  }\n\n  // Define a function 'renounceDairyfactory' to renounce this role\n  function renounceDairyfactory() public {\n    _removeDairyfactory(msg.sender);\n  }\n\n  // Define an internal function '_addDairyfactory' to add this role, called by 'addDairyfactory'\n  function _addDairyfactory(address account) internal {\n    dairyfactorys.add(account);\n    emit DairyfactoryAdded(account);\n  }\n\n  // Define an internal function '_removeDairyfactory' to remove this role, called by 'removeDairyfactory'\n  function _removeDairyfactory(address account) internal {\n    dairyfactorys.remove(account);\n    emit DairyfactoryRemoved(account);\n  }\n}",
  "sourcePath": "C:\\Users\\saro\\Desktop\\DApp-for-Tracking-Items-through-Supply-Chain-master\\project\\contracts\\milkaccesscontrol\\DairyfactoryRole.sol",
  "compiler": {
    "name": "solc",
    "version": "0.5.8+commit.23d335f2.Emscripten.clang"
  },
  "schemaVersion": "3.0.9",
  "updatedAt": "2019-05-25T22:26:16.679Z",
  "devdoc": {
    "methods": {}
  },
  "userdoc": {
    "methods": {}
  }
}