{
  "contractName": "PoultererRole",
  "abi": [
    {
      "inputs": [],
      "payable": false,
      "stateMutability": "nonpayable",
      "type": "constructor"
    },
    {
      "anonymous": false,
      "inputs": [
        {
          "indexed": true,
          "name": "account",
          "type": "address"
        }
      ],
      "name": "PoultererAdded",
      "type": "event"
    },
    {
      "anonymous": false,
      "inputs": [
        {
          "indexed": true,
          "name": "account",
          "type": "address"
        }
      ],
      "name": "PoultererRemoved",
      "type": "event"
    },
    {
      "constant": true,
      "inputs": [
        {
          "name": "account",
          "type": "address"
        }
      ],
      "name": "isPoulterer",
      "outputs": [
        {
          "name": "",
          "type": "bool"
        }
      ],
      "payable": false,
      "stateMutability": "view",
      "type": "function"
    },
    {
      "constant": false,
      "inputs": [
        {
          "name": "account",
          "type": "address"
        }
      ],
      "name": "addPoulterer",
      "outputs": [],
      "payable": false,
      "stateMutability": "nonpayable",
      "type": "function"
    },
    {
      "constant": false,
      "inputs": [],
      "name": "renouncePoulterer",
      "outputs": [],
      "payable": false,
      "stateMutability": "nonpayable",
      "type": "function"
    }
  ],
  "bytecode": "0x608060405234801561001057600080fd5b506100203361002560201b60201c565b6101df565b61003d81600061007460201b6102201790919060201c565b6040516001600160a01b038216907f80eb921b55c0e61029c209b9cdd8e07e6c85a3ad0c9e4ae9e014e2437dbb72c290600090a250565b6001600160a01b0381166100d3576040517f08c379a000000000000000000000000000000000000000000000000000000000815260040180806020018281038252603f81526020018061078e603f913960400191505060405180910390fd5b6100e3828261015e60201b60201c565b15610139576040517f08c379a000000000000000000000000000000000000000000000000000000000815260040180806020018281038252604f81526020018061073f604f913960600191505060405180910390fd5b6001600160a01b0316600090815260209190915260409020805460ff19166001179055565b60006001600160a01b0382166101bf576040517f08c379a000000000000000000000000000000000000000000000000000000000815260040180806020018281038252603d8152602001806107cd603d913960400191505060405180910390fd5b506001600160a01b03166000908152602091909152604090205460ff1690565b610551806101ee6000396000f3fe608060405234801561001057600080fd5b50600436106100415760003560e01c80637efc6d2014610046578063af5e8dd51461006e578063b2f799aa146100a8575b600080fd5b61006c6004803603602081101561005c57600080fd5b50356001600160a01b03166100b0565b005b6100946004803603602081101561008457600080fd5b50356001600160a01b0316610103565b604080519115158252519081900360200190f35b61006c61011b565b6100b933610103565b6100f757604051600160e51b62461bcd02815260040180806020018281038252603d8152602001806103d8603d913960400191505060405180910390fd5b61010081610126565b50565b6000610115818363ffffffff61016e16565b92915050565b610124336101d8565b565b61013760008263ffffffff61022016565b6040516001600160a01b038216907f80eb921b55c0e61029c209b9cdd8e07e6c85a3ad0c9e4ae9e014e2437dbb72c290600090a250565b60006001600160a01b0382166101b857604051600160e51b62461bcd02815260040180806020018281038252603d815260200180610454603d913960400191505060405180910390fd5b506001600160a01b03166000908152602091909152604090205460ff1690565b6101e960008263ffffffff6102d616565b6040516001600160a01b038216907fbe5a87b3f05a81f6ef57d858a56ce5e5ef680ab81756b9770ce3f43c6b57e48690600090a250565b6001600160a01b03811661026857604051600160e51b62461bcd02815260040180806020018281038252603f815260200180610415603f913960400191505060405180910390fd5b610272828261016e565b156102b157604051600160e51b62461bcd02815260040180806020018281038252604f815260200180610389604f913960600191505060405180910390fd5b6001600160a01b0316600090815260209190915260409020805460ff19166001179055565b6001600160a01b03811661031e57604051600160e51b62461bcd0281526004018080602001828103825260438152602001806104916043913960600191505060405180910390fd5b610328828261016e565b61036657604051600160e51b62461bcd0281526004018080602001828103825260528152602001806104d46052913960600191505060405180910390fd5b6001600160a01b0316600090815260209190915260409020805460ff1916905556fe4552524f52204d6573736167653a2054686520616464647265737320676976656e2068617320616c72656164792074686520726f6c6520696e2066756e6374696f6e20616464206e657720726f6c654552524f52204d6573736167653a20546865206164647265737320646f65736ec2b474206d61746368207769746820616e7920706f756c74657265722e4552524f52204d6573736167653a2041646472657373206163636f756e74206973206e756c6c20696e2066756e6374696f6e20616464206e657720726f6c654552524f52204d6573736167653a2041646472657373206163636f756e74206e756c6c20696e2066756e6374696f6e206861732074686520726f6c652e4552524f52204d6573736167653a204164647265737373206163636f756e74206973206e756c6c20696e2066756e6374696f6e2072656d6f7665207468652072756c654552524f52204d6573736167653a20546865206164647265737320676976656e20646f6573206e6f74206861732074686520726f6c6520696e2066756e6374696f6e2072656d6f76652074686520726f6c65a165627a7a72305820651b96b152667648965cf8563a9b150b8c02f02cabdd1c0c108c5c0ebd5bb1f100294552524f52204d6573736167653a2054686520616464647265737320676976656e2068617320616c72656164792074686520726f6c6520696e2066756e6374696f6e20616464206e657720726f6c654552524f52204d6573736167653a2041646472657373206163636f756e74206973206e756c6c20696e2066756e6374696f6e20616464206e657720726f6c654552524f52204d6573736167653a2041646472657373206163636f756e74206e756c6c20696e2066756e6374696f6e206861732074686520726f6c652e",
  "source": "pragma solidity ^0.5.0;\n\n// Import the library 'Roles'\nimport \"./Roles.sol\";\n\n// Define a contract 'PoultererRole' to manage this role - add, remove, check\ncontract PoultererRole {\n  using Roles for Roles.Role;\n\n  // Define 2 events, one for Adding, and other for Removing\n  event PoultererAdded(address indexed account);\n  event PoultererRemoved(address indexed account);\n\n  // Define a struct 'poulterers' by inheriting from 'Roles' library, struct Role\n  Roles.Role private poulterers;\n\n  // In the constructor make the address that deploys this contract the 1st farmer\n  constructor() public {\n    _addPoulterer(msg.sender);\n  }\n\n  // Define a modifier that checks to see if msg.sender has the appropriate role\n  modifier onlyPoulterer() {\n    require(isPoulterer(msg.sender),\"ERROR Message: The address doesn´t match with any poulterer.\");\n    _;\n  }\n\n  // Define a function 'isPoulterer' to check this role\n  function isPoulterer(address account) public view returns (bool) {\n    return poulterers.has(account);\n  }\n\n  // Define a function 'addPoulterer' that adds this role\n  function addPoulterer(address account) public onlyPoulterer() {\n    _addPoulterer(account);\n  }\n\n  // Define a function 'renouncePoulterer' to renounce this role\n  function renouncePoulterer() public {\n    _removePoulterer(msg.sender);\n  }\n\n  // Define an internal function '_addPoulterer' to add this role, called by 'addPoulterer'\n  function _addPoulterer(address account) internal {\n    poulterers.add(account);\n    emit PoultererAdded(account);\n  }\n\n  // Define an internal function '_removePoulterer' to remove this role, called by 'removePoulterer'\n  function _removePoulterer(address account) internal {\n    poulterers.remove(account);\n    emit PoultererRemoved(account);\n  }\n}",
  "sourcePath": "C:\\Users\\saro\\Desktop\\DApp-for-Tracking-Items-through-Supply-Chain-master\\project\\contracts\\milkaccesscontrol\\PoultererRole.sol",
  "compiler": {
    "name": "solc",
    "version": "0.5.8+commit.23d335f2.Emscripten.clang"
  },
  "schemaVersion": "3.0.9",
  "updatedAt": "2019-05-25T22:26:16.679Z",
  "devdoc": {
    "methods": {}
  },
  "userdoc": {
    "methods": {}
  }
}