{
  "contractName": "SupplyChain",
  "abi": [
    {
      "constant": false,
      "inputs": [
        {
          "name": "account",
          "type": "address"
        }
      ],
      "name": "addConsumer",
      "outputs": [],
      "payable": false,
      "stateMutability": "nonpayable",
      "type": "function"
    },
    {
      "constant": false,
      "inputs": [],
      "name": "renounceSupermarket",
      "outputs": [],
      "payable": false,
      "stateMutability": "nonpayable",
      "type": "function"
    },
    {
      "constant": true,
      "inputs": [
        {
          "name": "account",
          "type": "address"
        }
      ],
      "name": "isRetailer",
      "outputs": [
        {
          "name": "",
          "type": "bool"
        }
      ],
      "payable": false,
      "stateMutability": "view",
      "type": "function"
    },
    {
      "constant": false,
      "inputs": [],
      "name": "renounceConsumer",
      "outputs": [],
      "payable": false,
      "stateMutability": "nonpayable",
      "type": "function"
    },
    {
      "constant": false,
      "inputs": [],
      "name": "renounceDistributor",
      "outputs": [],
      "payable": false,
      "stateMutability": "nonpayable",
      "type": "function"
    },
    {
      "constant": false,
      "inputs": [],
      "name": "renounceOwnership",
      "outputs": [],
      "payable": false,
      "stateMutability": "nonpayable",
      "type": "function"
    },
    {
      "constant": false,
      "inputs": [
        {
          "name": "account",
          "type": "address"
        }
      ],
      "name": "addDistributor",
      "outputs": [],
      "payable": false,
      "stateMutability": "nonpayable",
      "type": "function"
    },
    {
      "constant": true,
      "inputs": [
        {
          "name": "account",
          "type": "address"
        }
      ],
      "name": "isDairyfactory",
      "outputs": [
        {
          "name": "",
          "type": "bool"
        }
      ],
      "payable": false,
      "stateMutability": "view",
      "type": "function"
    },
    {
      "constant": false,
      "inputs": [
        {
          "name": "account",
          "type": "address"
        }
      ],
      "name": "addPoulterer",
      "outputs": [],
      "payable": false,
      "stateMutability": "nonpayable",
      "type": "function"
    },
    {
      "constant": true,
      "inputs": [
        {
          "name": "account",
          "type": "address"
        }
      ],
      "name": "isConsumer",
      "outputs": [
        {
          "name": "",
          "type": "bool"
        }
      ],
      "payable": false,
      "stateMutability": "view",
      "type": "function"
    },
    {
      "constant": false,
      "inputs": [
        {
          "name": "account",
          "type": "address"
        }
      ],
      "name": "addDairyfactory",
      "outputs": [],
      "payable": false,
      "stateMutability": "nonpayable",
      "type": "function"
    },
    {
      "constant": false,
      "inputs": [],
      "name": "renounceDairyfactory",
      "outputs": [],
      "payable": false,
      "stateMutability": "nonpayable",
      "type": "function"
    },
    {
      "constant": true,
      "inputs": [],
      "name": "owner",
      "outputs": [
        {
          "name": "",
          "type": "address"
        }
      ],
      "payable": false,
      "stateMutability": "view",
      "type": "function"
    },
    {
      "constant": false,
      "inputs": [
        {
          "name": "account",
          "type": "address"
        }
      ],
      "name": "addRetailer",
      "outputs": [],
      "payable": false,
      "stateMutability": "nonpayable",
      "type": "function"
    },
    {
      "constant": true,
      "inputs": [
        {
          "name": "account",
          "type": "address"
        }
      ],
      "name": "isDistributor",
      "outputs": [
        {
          "name": "",
          "type": "bool"
        }
      ],
      "payable": false,
      "stateMutability": "view",
      "type": "function"
    },
    {
      "constant": true,
      "inputs": [],
      "name": "isOwner",
      "outputs": [
        {
          "name": "",
          "type": "bool"
        }
      ],
      "payable": false,
      "stateMutability": "view",
      "type": "function"
    },
    {
      "constant": true,
      "inputs": [
        {
          "name": "account",
          "type": "address"
        }
      ],
      "name": "isSupermarket",
      "outputs": [
        {
          "name": "",
          "type": "bool"
        }
      ],
      "payable": false,
      "stateMutability": "view",
      "type": "function"
    },
    {
      "constant": true,
      "inputs": [
        {
          "name": "account",
          "type": "address"
        }
      ],
      "name": "isPoulterer",
      "outputs": [
        {
          "name": "",
          "type": "bool"
        }
      ],
      "payable": false,
      "stateMutability": "view",
      "type": "function"
    },
    {
      "constant": false,
      "inputs": [],
      "name": "renouncePoulterer",
      "outputs": [],
      "payable": false,
      "stateMutability": "nonpayable",
      "type": "function"
    },
    {
      "constant": false,
      "inputs": [
        {
          "name": "account",
          "type": "address"
        }
      ],
      "name": "addSupermarket",
      "outputs": [],
      "payable": false,
      "stateMutability": "nonpayable",
      "type": "function"
    },
    {
      "constant": false,
      "inputs": [],
      "name": "renounceRetailer",
      "outputs": [],
      "payable": false,
      "stateMutability": "nonpayable",
      "type": "function"
    },
    {
      "constant": false,
      "inputs": [
        {
          "name": "newOwner",
          "type": "address"
        }
      ],
      "name": "transferOwnership",
      "outputs": [],
      "payable": false,
      "stateMutability": "nonpayable",
      "type": "function"
    },
    {
      "inputs": [],
      "payable": true,
      "stateMutability": "payable",
      "type": "constructor"
    },
    {
      "anonymous": false,
      "inputs": [
        {
          "indexed": false,
          "name": "upc",
          "type": "uint256"
        },
        {
          "indexed": false,
          "name": "emiter",
          "type": "address"
        }
      ],
      "name": "Obtained",
      "type": "event"
    },
    {
      "anonymous": false,
      "inputs": [
        {
          "indexed": false,
          "name": "upc",
          "type": "uint256"
        },
        {
          "indexed": false,
          "name": "emiter",
          "type": "address"
        }
      ],
      "name": "Stored",
      "type": "event"
    },
    {
      "anonymous": false,
      "inputs": [
        {
          "indexed": false,
          "name": "upc",
          "type": "uint256"
        },
        {
          "indexed": false,
          "name": "emiter",
          "type": "address"
        },
        {
          "indexed": false,
          "name": "price",
          "type": "uint256"
        }
      ],
      "name": "ForSaleToDairyfactory",
      "type": "event"
    },
    {
      "anonymous": false,
      "inputs": [
        {
          "indexed": false,
          "name": "upc",
          "type": "uint256"
        },
        {
          "indexed": false,
          "name": "emiter",
          "type": "address"
        }
      ],
      "name": "SoldToDairyfactory",
      "type": "event"
    },
    {
      "anonymous": false,
      "inputs": [
        {
          "indexed": false,
          "name": "upc",
          "type": "uint256"
        },
        {
          "indexed": false,
          "name": "emiter",
          "type": "address"
        }
      ],
      "name": "ShippedToDairyfactory",
      "type": "event"
    },
    {
      "anonymous": false,
      "inputs": [
        {
          "indexed": false,
          "name": "upc",
          "type": "uint256"
        },
        {
          "indexed": false,
          "name": "emiter",
          "type": "address"
        }
      ],
      "name": "ReceivedByDairyfactory",
      "type": "event"
    },
    {
      "anonymous": false,
      "inputs": [
        {
          "indexed": false,
          "name": "upc",
          "type": "uint256"
        },
        {
          "indexed": false,
          "name": "emiter",
          "type": "address"
        },
        {
          "indexed": false,
          "name": "testResult",
          "type": "bool"
        }
      ],
      "name": "Tested",
      "type": "event"
    },
    {
      "anonymous": false,
      "inputs": [
        {
          "indexed": false,
          "name": "upc",
          "type": "uint256"
        },
        {
          "indexed": false,
          "name": "emiter",
          "type": "address"
        }
      ],
      "name": "Processed",
      "type": "event"
    },
    {
      "anonymous": false,
      "inputs": [
        {
          "indexed": false,
          "name": "upc",
          "type": "uint256"
        },
        {
          "indexed": false,
          "name": "emiter",
          "type": "address"
        }
      ],
      "name": "Returned",
      "type": "event"
    },
    {
      "anonymous": false,
      "inputs": [
        {
          "indexed": false,
          "name": "upc",
          "type": "uint256"
        },
        {
          "indexed": false,
          "name": "emiter",
          "type": "address"
        }
      ],
      "name": "Retaken",
      "type": "event"
    },
    {
      "anonymous": false,
      "inputs": [
        {
          "indexed": false,
          "name": "upc",
          "type": "uint256"
        },
        {
          "indexed": false,
          "name": "emiter",
          "type": "address"
        }
      ],
      "name": "ShippedToPoulterer",
      "type": "event"
    },
    {
      "anonymous": false,
      "inputs": [
        {
          "indexed": false,
          "name": "upc",
          "type": "uint256"
        },
        {
          "indexed": false,
          "name": "emiter",
          "type": "address"
        }
      ],
      "name": "ReceivedByPoulterer",
      "type": "event"
    },
    {
      "anonymous": false,
      "inputs": [
        {
          "indexed": false,
          "name": "upc",
          "type": "uint256"
        },
        {
          "indexed": false,
          "name": "emiter",
          "type": "address"
        }
      ],
      "name": "Destroyed",
      "type": "event"
    },
    {
      "anonymous": false,
      "inputs": [
        {
          "indexed": false,
          "name": "upc",
          "type": "uint256"
        },
        {
          "indexed": false,
          "name": "emiter",
          "type": "address"
        }
      ],
      "name": "Packed",
      "type": "event"
    },
    {
      "anonymous": false,
      "inputs": [
        {
          "indexed": false,
          "name": "upc",
          "type": "uint256"
        },
        {
          "indexed": false,
          "name": "emiter",
          "type": "address"
        },
        {
          "indexed": false,
          "name": "price",
          "type": "uint256"
        }
      ],
      "name": "ForSaleToDistributor",
      "type": "event"
    },
    {
      "anonymous": false,
      "inputs": [
        {
          "indexed": false,
          "name": "upc",
          "type": "uint256"
        },
        {
          "indexed": false,
          "name": "emiter",
          "type": "address"
        }
      ],
      "name": "SoldToDistributor",
      "type": "event"
    },
    {
      "anonymous": false,
      "inputs": [
        {
          "indexed": false,
          "name": "upc",
          "type": "uint256"
        },
        {
          "indexed": false,
          "name": "emiter",
          "type": "address"
        }
      ],
      "name": "ShippedToDistributor",
      "type": "event"
    },
    {
      "anonymous": false,
      "inputs": [
        {
          "indexed": false,
          "name": "upc",
          "type": "uint256"
        },
        {
          "indexed": false,
          "name": "emiter",
          "type": "address"
        }
      ],
      "name": "ReceivedByDistributor",
      "type": "event"
    },
    {
      "anonymous": false,
      "inputs": [
        {
          "indexed": false,
          "name": "upc",
          "type": "uint256"
        },
        {
          "indexed": false,
          "name": "emiter",
          "type": "address"
        },
        {
          "indexed": false,
          "name": "price",
          "type": "uint256"
        }
      ],
      "name": "ForSaleToRetailer",
      "type": "event"
    },
    {
      "anonymous": false,
      "inputs": [
        {
          "indexed": false,
          "name": "upc",
          "type": "uint256"
        },
        {
          "indexed": false,
          "name": "emiter",
          "type": "address"
        }
      ],
      "name": "SoldToRetailer",
      "type": "event"
    },
    {
      "anonymous": false,
      "inputs": [
        {
          "indexed": false,
          "name": "upc",
          "type": "uint256"
        },
        {
          "indexed": false,
          "name": "emiter",
          "type": "address"
        }
      ],
      "name": "ShippedToRetailer",
      "type": "event"
    },
    {
      "anonymous": false,
      "inputs": [
        {
          "indexed": false,
          "name": "upc",
          "type": "uint256"
        },
        {
          "indexed": false,
          "name": "emiter",
          "type": "address"
        }
      ],
      "name": "ReceivedByRetailer",
      "type": "event"
    },
    {
      "anonymous": false,
      "inputs": [
        {
          "indexed": false,
          "name": "upc",
          "type": "uint256"
        },
        {
          "indexed": false,
          "name": "emiter",
          "type": "address"
        },
        {
          "indexed": false,
          "name": "price",
          "type": "uint256"
        }
      ],
      "name": "ForSaleToSupermarket",
      "type": "event"
    },
    {
      "anonymous": false,
      "inputs": [
        {
          "indexed": false,
          "name": "upc",
          "type": "uint256"
        },
        {
          "indexed": false,
          "name": "emiter",
          "type": "address"
        }
      ],
      "name": "SoldToSupermarket",
      "type": "event"
    },
    {
      "anonymous": false,
      "inputs": [
        {
          "indexed": false,
          "name": "upc",
          "type": "uint256"
        },
        {
          "indexed": false,
          "name": "emiter",
          "type": "address"
        }
      ],
      "name": "ShippedToSupermarket",
      "type": "event"
    },
    {
      "anonymous": false,
      "inputs": [
        {
          "indexed": false,
          "name": "upc",
          "type": "uint256"
        },
        {
          "indexed": false,
          "name": "emiter",
          "type": "address"
        }
      ],
      "name": "ReceivedBySupermarket",
      "type": "event"
    },
    {
      "anonymous": false,
      "inputs": [
        {
          "indexed": false,
          "name": "upc",
          "type": "uint256"
        },
        {
          "indexed": false,
          "name": "emiter",
          "type": "address"
        },
        {
          "indexed": false,
          "name": "price",
          "type": "uint256"
        }
      ],
      "name": "ForSaleToConsumer",
      "type": "event"
    },
    {
      "anonymous": false,
      "inputs": [
        {
          "indexed": false,
          "name": "upc",
          "type": "uint256"
        },
        {
          "indexed": false,
          "name": "emiter",
          "type": "address"
        }
      ],
      "name": "SoldToConsumer",
      "type": "event"
    },
    {
      "anonymous": false,
      "inputs": [
        {
          "indexed": false,
          "name": "upc",
          "type": "uint256"
        },
        {
          "indexed": false,
          "name": "emiter",
          "type": "address"
        }
      ],
      "name": "PurchasedByConsumer",
      "type": "event"
    },
    {
      "anonymous": false,
      "inputs": [
        {
          "indexed": true,
          "name": "account",
          "type": "address"
        }
      ],
      "name": "ConsumerAdded",
      "type": "event"
    },
    {
      "anonymous": false,
      "inputs": [
        {
          "indexed": true,
          "name": "account",
          "type": "address"
        }
      ],
      "name": "ConsumerRemoved",
      "type": "event"
    },
    {
      "anonymous": false,
      "inputs": [
        {
          "indexed": true,
          "name": "account",
          "type": "address"
        }
      ],
      "name": "SupermarketAdded",
      "type": "event"
    },
    {
      "anonymous": false,
      "inputs": [
        {
          "indexed": true,
          "name": "account",
          "type": "address"
        }
      ],
      "name": "SupermarketRemoved",
      "type": "event"
    },
    {
      "anonymous": false,
      "inputs": [
        {
          "indexed": true,
          "name": "account",
          "type": "address"
        }
      ],
      "name": "RetailerAdded",
      "type": "event"
    },
    {
      "anonymous": false,
      "inputs": [
        {
          "indexed": true,
          "name": "account",
          "type": "address"
        }
      ],
      "name": "RetailerRemoved",
      "type": "event"
    },
    {
      "anonymous": false,
      "inputs": [
        {
          "indexed": true,
          "name": "account",
          "type": "address"
        }
      ],
      "name": "DistributorAdded",
      "type": "event"
    },
    {
      "anonymous": false,
      "inputs": [
        {
          "indexed": true,
          "name": "account",
          "type": "address"
        }
      ],
      "name": "DistributorRemoved",
      "type": "event"
    },
    {
      "anonymous": false,
      "inputs": [
        {
          "indexed": true,
          "name": "account",
          "type": "address"
        }
      ],
      "name": "DairyfactoryAdded",
      "type": "event"
    },
    {
      "anonymous": false,
      "inputs": [
        {
          "indexed": true,
          "name": "account",
          "type": "address"
        }
      ],
      "name": "DairyfactoryRemoved",
      "type": "event"
    },
    {
      "anonymous": false,
      "inputs": [
        {
          "indexed": true,
          "name": "account",
          "type": "address"
        }
      ],
      "name": "PoultererAdded",
      "type": "event"
    },
    {
      "anonymous": false,
      "inputs": [
        {
          "indexed": true,
          "name": "account",
          "type": "address"
        }
      ],
      "name": "PoultererRemoved",
      "type": "event"
    },
    {
      "anonymous": false,
      "inputs": [
        {
          "indexed": true,
          "name": "oldOwner",
          "type": "address"
        },
        {
          "indexed": true,
          "name": "newOwner",
          "type": "address"
        }
      ],
      "name": "TransferOwnership",
      "type": "event"
    },
    {
      "constant": false,
      "inputs": [],
      "name": "kill",
      "outputs": [],
      "payable": false,
      "stateMutability": "nonpayable",
      "type": "function"
    },
    {
      "constant": false,
      "inputs": [
        {
          "name": "_upc",
          "type": "uint256"
        },
        {
          "name": "_originPoultererID",
          "type": "address"
        },
        {
          "name": "_originFarmName",
          "type": "string"
        },
        {
          "name": "_originFarmInformation",
          "type": "string"
        },
        {
          "name": "_originFarmLatitude",
          "type": "string"
        },
        {
          "name": "_originFarmLongitude",
          "type": "string"
        },
        {
          "name": "_productNotes",
          "type": "string"
        }
      ],
      "name": "obtainItem",
      "outputs": [],
      "payable": false,
      "stateMutability": "nonpayable",
      "type": "function"
    },
    {
      "constant": false,
      "inputs": [
        {
          "name": "_upc",
          "type": "uint256"
        }
      ],
      "name": "storeItem",
      "outputs": [],
      "payable": false,
      "stateMutability": "nonpayable",
      "type": "function"
    },
    {
      "constant": false,
      "inputs": [
        {
          "name": "_upc",
          "type": "uint256"
        },
        {
          "name": "_price",
          "type": "uint256"
        }
      ],
      "name": "sellToDairyfactory",
      "outputs": [],
      "payable": false,
      "stateMutability": "nonpayable",
      "type": "function"
    },
    {
      "constant": false,
      "inputs": [
        {
          "name": "_upc",
          "type": "uint256"
        }
      ],
      "name": "buyItemByDairyfactory",
      "outputs": [],
      "payable": true,
      "stateMutability": "payable",
      "type": "function"
    },
    {
      "constant": false,
      "inputs": [
        {
          "name": "_upc",
          "type": "uint256"
        }
      ],
      "name": "shipItemToDairyfactory",
      "outputs": [],
      "payable": false,
      "stateMutability": "nonpayable",
      "type": "function"
    },
    {
      "constant": false,
      "inputs": [
        {
          "name": "_upc",
          "type": "uint256"
        }
      ],
      "name": "receiveItemByDairyfactory",
      "outputs": [],
      "payable": false,
      "stateMutability": "nonpayable",
      "type": "function"
    },
    {
      "constant": false,
      "inputs": [
        {
          "name": "_upc",
          "type": "uint256"
        },
        {
          "name": "_testResult",
          "type": "bool"
        }
      ],
      "name": "testMilk",
      "outputs": [],
      "payable": false,
      "stateMutability": "nonpayable",
      "type": "function"
    },
    {
      "constant": false,
      "inputs": [
        {
          "name": "_upc",
          "type": "uint256"
        }
      ],
      "name": "processMilk",
      "outputs": [],
      "payable": false,
      "stateMutability": "nonpayable",
      "type": "function"
    },
    {
      "constant": false,
      "inputs": [
        {
          "name": "_upc",
          "type": "uint256"
        }
      ],
      "name": "returnMilk",
      "outputs": [],
      "payable": false,
      "stateMutability": "nonpayable",
      "type": "function"
    },
    {
      "constant": false,
      "inputs": [
        {
          "name": "_upc",
          "type": "uint256"
        }
      ],
      "name": "retakeMilk",
      "outputs": [],
      "payable": false,
      "stateMutability": "nonpayable",
      "type": "function"
    },
    {
      "constant": false,
      "inputs": [
        {
          "name": "_upc",
          "type": "uint256"
        }
      ],
      "name": "shipItemToPoulterer",
      "outputs": [],
      "payable": false,
      "stateMutability": "nonpayable",
      "type": "function"
    },
    {
      "constant": false,
      "inputs": [
        {
          "name": "_upc",
          "type": "uint256"
        }
      ],
      "name": "receiveItemByPoulterer",
      "outputs": [],
      "payable": false,
      "stateMutability": "nonpayable",
      "type": "function"
    },
    {
      "constant": false,
      "inputs": [
        {
          "name": "_upc",
          "type": "uint256"
        }
      ],
      "name": "destroyMilk",
      "outputs": [],
      "payable": false,
      "stateMutability": "nonpayable",
      "type": "function"
    },
    {
      "constant": false,
      "inputs": [
        {
          "name": "_upc",
          "type": "uint256"
        }
      ],
      "name": "packMilk",
      "outputs": [],
      "payable": false,
      "stateMutability": "nonpayable",
      "type": "function"
    },
    {
      "constant": false,
      "inputs": [
        {
          "name": "_upc",
          "type": "uint256"
        },
        {
          "name": "_price",
          "type": "uint256"
        }
      ],
      "name": "sellToDistributor",
      "outputs": [],
      "payable": false,
      "stateMutability": "nonpayable",
      "type": "function"
    },
    {
      "constant": false,
      "inputs": [
        {
          "name": "_upc",
          "type": "uint256"
        }
      ],
      "name": "buyItemByDistributor",
      "outputs": [],
      "payable": true,
      "stateMutability": "payable",
      "type": "function"
    },
    {
      "constant": false,
      "inputs": [
        {
          "name": "_upc",
          "type": "uint256"
        }
      ],
      "name": "shipItemToDistributor",
      "outputs": [],
      "payable": false,
      "stateMutability": "nonpayable",
      "type": "function"
    },
    {
      "constant": false,
      "inputs": [
        {
          "name": "_upc",
          "type": "uint256"
        }
      ],
      "name": "receiveItemByDistributor",
      "outputs": [],
      "payable": false,
      "stateMutability": "nonpayable",
      "type": "function"
    },
    {
      "constant": false,
      "inputs": [
        {
          "name": "_upc",
          "type": "uint256"
        },
        {
          "name": "_price",
          "type": "uint256"
        }
      ],
      "name": "sellToRetailer",
      "outputs": [],
      "payable": false,
      "stateMutability": "nonpayable",
      "type": "function"
    },
    {
      "constant": false,
      "inputs": [
        {
          "name": "_upc",
          "type": "uint256"
        }
      ],
      "name": "buyItemByRetailer",
      "outputs": [],
      "payable": true,
      "stateMutability": "payable",
      "type": "function"
    },
    {
      "constant": false,
      "inputs": [
        {
          "name": "_upc",
          "type": "uint256"
        }
      ],
      "name": "shipItemToRetailer",
      "outputs": [],
      "payable": false,
      "stateMutability": "nonpayable",
      "type": "function"
    },
    {
      "constant": false,
      "inputs": [
        {
          "name": "_upc",
          "type": "uint256"
        }
      ],
      "name": "receiveItemByRetailer",
      "outputs": [],
      "payable": false,
      "stateMutability": "nonpayable",
      "type": "function"
    },
    {
      "constant": false,
      "inputs": [
        {
          "name": "_upc",
          "type": "uint256"
        },
        {
          "name": "_price",
          "type": "uint256"
        }
      ],
      "name": "sellToSuperMarket",
      "outputs": [],
      "payable": false,
      "stateMutability": "nonpayable",
      "type": "function"
    },
    {
      "constant": false,
      "inputs": [
        {
          "name": "_upc",
          "type": "uint256"
        }
      ],
      "name": "buyItemBySupermarket",
      "outputs": [],
      "payable": true,
      "stateMutability": "payable",
      "type": "function"
    },
    {
      "constant": false,
      "inputs": [
        {
          "name": "_upc",
          "type": "uint256"
        }
      ],
      "name": "shipItemToSupermarket",
      "outputs": [],
      "payable": false,
      "stateMutability": "nonpayable",
      "type": "function"
    },
    {
      "constant": false,
      "inputs": [
        {
          "name": "_upc",
          "type": "uint256"
        }
      ],
      "name": "receiveItemBySupermarket",
      "outputs": [],
      "payable": false,
      "stateMutability": "nonpayable",
      "type": "function"
    },
    {
      "constant": false,
      "inputs": [
        {
          "name": "_upc",
          "type": "uint256"
        },
        {
          "name": "_price",
          "type": "uint256"
        }
      ],
      "name": "sellToConsumer",
      "outputs": [],
      "payable": false,
      "stateMutability": "nonpayable",
      "type": "function"
    },
    {
      "constant": false,
      "inputs": [
        {
          "name": "_upc",
          "type": "uint256"
        }
      ],
      "name": "buyItemByConsumer",
      "outputs": [],
      "payable": true,
      "stateMutability": "payable",
      "type": "function"
    },
    {
      "constant": false,
      "inputs": [
        {
          "name": "_upc",
          "type": "uint256"
        }
      ],
      "name": "purchaseItemByConsumer",
      "outputs": [],
      "payable": false,
      "stateMutability": "nonpayable",
      "type": "function"
    },
    {
      "constant": true,
      "inputs": [
        {
          "name": "_upc",
          "type": "uint256"
        }
      ],
      "name": "fetchItemBufferPublic",
      "outputs": [
        {
          "name": "itemSKU",
          "type": "uint256"
        },
        {
          "name": "itemUPC",
          "type": "uint256"
        },
        {
          "name": "ownerID",
          "type": "address"
        },
        {
          "name": "originPoultererID",
          "type": "address"
        },
        {
          "name": "originFarmName",
          "type": "string"
        },
        {
          "name": "originFarmInformation",
          "type": "string"
        },
        {
          "name": "originFarmLatitude",
          "type": "string"
        },
        {
          "name": "originFarmLongitude",
          "type": "string"
        },
        {
          "name": "itemState",
          "type": "uint8"
        },
        {
          "name": "productPrice",
          "type": "uint256"
        },
        {
          "name": "distributorID",
          "type": "address"
        }
      ],
      "payable": false,
      "stateMutability": "view",
      "type": "function"
    },
    {
      "constant": true,
      "inputs": [
        {
          "name": "_upc",
          "type": "uint256"
        }
      ],
      "name": "fetchItemBufferDistributor",
      "outputs": [
        {
          "name": "itemSKU",
          "type": "uint256"
        },
        {
          "name": "itemUPC",
          "type": "uint256"
        },
        {
          "name": "ownerID",
          "type": "address"
        },
        {
          "name": "distributorID",
          "type": "address"
        },
        {
          "name": "originFarmName",
          "type": "string"
        },
        {
          "name": "originFarmInformation",
          "type": "string"
        },
        {
          "name": "originFarmLatitude",
          "type": "string"
        },
        {
          "name": "originFarmLongitude",
          "type": "string"
        },
        {
          "name": "productNotes",
          "type": "string"
        },
        {
          "name": "itemState",
          "type": "uint8"
        }
      ],
      "payable": false,
      "stateMutability": "view",
      "type": "function"
    },
    {
      "constant": true,
      "inputs": [
        {
          "name": "_upc",
          "type": "uint256"
        }
      ],
      "name": "fetchItemBufferConsumer",
      "outputs": [
        {
          "name": "itemSKU",
          "type": "uint256"
        },
        {
          "name": "itemUPC",
          "type": "uint256"
        },
        {
          "name": "ownerID",
          "type": "address"
        },
        {
          "name": "consumerID",
          "type": "address"
        },
        {
          "name": "originFarmName",
          "type": "string"
        },
        {
          "name": "productNotes",
          "type": "string"
        },
        {
          "name": "distributorID",
          "type": "address"
        },
        {
          "name": "itemState",
          "type": "uint8"
        }
      ],
      "payable": false,
      "stateMutability": "view",
      "type": "function"
    }
  ],
  "bytecode": "0x60806040819052600080546001600160a01b03191633178082556001600160a01b0316917f5c486528ec3e3f0ea91181cff8116f02bfa350e03b8b6f12e00765adbb5af85c908290a36200005933620000be60201b60201c565b6200006a336200011060201b60201c565b6200007b336200016260201b60201c565b6200008c33620001b460201b60201c565b6200009d336200020660201b60201c565b620000ae336200025860201b60201c565b600160088190556007556200041d565b620000d9816001620002aa60201b620066b21790919060201c565b6040516001600160a01b038216907f80eb921b55c0e61029c209b9cdd8e07e6c85a3ad0c9e4ae9e014e2437dbb72c290600090a250565b6200012b816002620002aa60201b620066b21790919060201c565b6040516001600160a01b038216907fb158cf7b7032a567dfb9b3a9765efa092798b7cded378ed4ae353ef385f2e73590600090a250565b6200017d816003620002aa60201b620066b21790919060201c565b6040516001600160a01b038216907fddbf200aa634dc3fb81cfd68583dd1040d1c751d335e1d86b631bde3e977fea890600090a250565b620001cf816004620002aa60201b620066b21790919060201c565b6040516001600160a01b038216907f71ae26cad02663e3d92efd6ec56031a80d74a20c0ab4183faa8bf262261c9baa90600090a250565b62000221816005620002aa60201b620066b21790919060201c565b6040516001600160a01b038216907f3e8b6c25714070dcebd930fe0d9592c40580e5afd0b4e8e3727181b801e733f590600090a250565b62000273816006620002aa60201b620066b21790919060201c565b6040516001600160a01b038216907f28b26e7a3d20aedbc5f8f2ebf7da671c0491723a2b78f47a097b0e46dee0714290600090a250565b6001600160a01b0381166200030b576040517f08c379a000000000000000000000000000000000000000000000000000000000815260040180806020018281038252603f81526020018062007391603f913960400191505060405180910390fd5b6200031d82826200039a60201b60201c565b1562000375576040517f08c379a000000000000000000000000000000000000000000000000000000000815260040180806020018281038252604f81526020018062007342604f913960600191505060405180910390fd5b6001600160a01b0316600090815260209190915260409020805460ff19166001179055565b60006001600160a01b038216620003fd576040517f08c379a000000000000000000000000000000000000000000000000000000000815260040180806020018281038252603d815260200180620073d0603d913960400191505060405180910390fd5b506001600160a01b03166000908152602091909152604090205460ff1690565b616f15806200042d6000396000f3fe6080604052600436106103605760003560e01c80638817872d116101c6578063b2f799aa116100f7578063df74dc3a11610095578063e5f6b1be1161006f578063e5f6b1be146113ad578063f2fde38b146113d7578063f7b37d1b1461140a578063f7b4677d1461143a57610360565b8063df74dc3a14611336578063e352858e14611360578063e507944c1461139057610360565b8063d2afc84a116100d1578063d2afc84a1461129a578063d34674bd146112c4578063d3fc786f146112ee578063db0e6a2f1461132157610360565b8063b2f799aa146110e5578063c37cb09e146110fa578063c3b714ee1461112457610360565b80638f32d59b11610164578063a2d7e5611161013e578063a2d7e56114611032578063ad8fe8b714611065578063af310dc514611082578063af5e8dd5146110b257610360565b80638f32d59b14610fc957806393d27ff814610fde578063982849f21461100857610360565b80638b37988e116101a05780638b37988e14610f085780638da5cb5b14610f325780638ec4f50514610f635780638f0c86fa14610f9657610360565b80638817872d14610e845780638870737914610eae57806389070e4114610ede57610360565b80635de87158116102a0578063744a71c21161023e578063834ff73911610218578063834ff73914610ddf57806384bdedf414610e12578063878e156414610e3c57806387cb6fb614610e6f57610360565b8063744a71c214610d4957806375487e9c14610d795780637efc6d2014610dac57610360565b80636b934ca31161027a5780636b934ca314610ca55780636cb1043f14610cd7578063715018a614610d015780637250e22414610d1657610360565b80635de8715814610a3757806361e6982d14610c7b578063644241db14610c9057610360565b80633b8f3fb01161030d57806348a584ee116102e757806348a584ee1461098c5780634a400241146109b65780635b893188146109d35780635da09b88146109f057610360565b80633b8f3fb01461071157806341c0e1b51461072e578063451816ca1461074357610360565b806314f6c3711161033e57806314f6c371146103ee5780631f19476c146104035780633ae6f1261461042d57610360565b806303f9ee2c14610365578063112940f91461039157806313942135146103c4575b600080fd5b34801561037157600080fd5b5061038f6004803603602081101561038857600080fd5b5035611464565b005b34801561039d57600080fd5b5061038f600480360360208110156103b457600080fd5b50356001600160a01b0316611681565b3480156103d057600080fd5b5061038f600480360360208110156103e757600080fd5b50356116d4565b3480156103fa57600080fd5b5061038f61189d565b34801561040f57600080fd5b5061038f6004803603602081101561042657600080fd5b50356118a8565b34801561043957600080fd5b5061038f600480360360e081101561045057600080fd5b8135916001600160a01b036020820135169181019060608101604082013564010000000081111561048057600080fd5b82018360208201111561049257600080fd5b803590602001918460018302840111640100000000831117156104b457600080fd5b91908080601f016020809104026020016040519081016040528093929190818152602001838380828437600092019190915250929594936020810193503591505064010000000081111561050757600080fd5b82018360208201111561051957600080fd5b8035906020019184600183028401116401000000008311171561053b57600080fd5b91908080601f016020809104026020016040519081016040528093929190818152602001838380828437600092019190915250929594936020810193503591505064010000000081111561058e57600080fd5b8201836020820111156105a057600080fd5b803590602001918460018302840111640100000000831117156105c257600080fd5b91908080601f016020809104026020016040519081016040528093929190818152602001838380828437600092019190915250929594936020810193503591505064010000000081111561061557600080fd5b82018360208201111561062757600080fd5b8035906020019184600183028401116401000000008311171561064957600080fd5b91908080601f016020809104026020016040519081016040528093929190818152602001838380828437600092019190915250929594936020810193503591505064010000000081111561069c57600080fd5b8201836020820111156106ae57600080fd5b803590602001918460018302840111640100000000831117156106d057600080fd5b91908080601f016020809104026020016040519081016040528093929190818152602001838380828437600092019190915250929550611a83945050505050565b61038f6004803603602081101561072757600080fd5b5035611dbd565b34801561073a57600080fd5b5061038f612039565b34801561074f57600080fd5b5061076d6004803603602081101561076657600080fd5b50356120a9565b604051808c81526020018b81526020018a6001600160a01b03166001600160a01b03168152602001896001600160a01b03166001600160a01b031681526020018060200180602001806020018060200188601e8111156107c957fe5b60ff168152602001878152602001866001600160a01b03166001600160a01b0316815260200185810385528c818151815260200191508051906020019080838360005b8381101561082457818101518382015260200161080c565b50505050905090810190601f1680156108515780820380516001836020036101000a031916815260200191505b5085810384528b5181528b516020918201918d019080838360005b8381101561088457818101518382015260200161086c565b50505050905090810190601f1680156108b15780820380516001836020036101000a031916815260200191505b5085810383528a5181528a516020918201918c019080838360005b838110156108e45781810151838201526020016108cc565b50505050905090810190601f1680156109115780820380516001836020036101000a031916815260200191505b5085810382528951815289516020918201918b019080838360005b8381101561094457818101518382015260200161092c565b50505050905090810190601f1680156109715780820380516001836020036101000a031916815260200191505b509f5050505050505050505050505050505060405180910390f35b34801561099857600080fd5b5061038f600480360360208110156109af57600080fd5b5035612615565b61038f600480360360208110156109cc57600080fd5b50356127e3565b61038f600480360360208110156109e957600080fd5b5035612a60565b3480156109fc57600080fd5b50610a2360048036036020811015610a1357600080fd5b50356001600160a01b0316612cce565b604080519115158252519081900360200190f35b348015610a4357600080fd5b50610a6160048036036020811015610a5a57600080fd5b5035612ce7565b604051808b81526020018a8152602001896001600160a01b03166001600160a01b03168152602001886001600160a01b03166001600160a01b03168152602001806020018060200180602001806020018060200187601e811115610ac157fe5b60ff16815260200186810386528c818151815260200191508051906020019080838360005b83811015610afe578181015183820152602001610ae6565b50505050905090810190601f168015610b2b5780820380516001836020036101000a031916815260200191505b5086810385528b5181528b516020918201918d019080838360005b83811015610b5e578181015183820152602001610b46565b50505050905090810190601f168015610b8b5780820380516001836020036101000a031916815260200191505b5086810384528a5181528a516020918201918c019080838360005b83811015610bbe578181015183820152602001610ba6565b50505050905090810190601f168015610beb5780820380516001836020036101000a031916815260200191505b5086810383528951815289516020918201918b019080838360005b83811015610c1e578181015183820152602001610c06565b50505050905090810190601f168015610c4b5780820380516001836020036101000a031916815260200191505b5086810382528851815288516020918201918a01908083836000831561094457818101518382015260200161092c565b348015610c8757600080fd5b5061038f613245565b348015610c9c57600080fd5b5061038f61324e565b348015610cb157600080fd5b5061038f60048036036040811015610cc857600080fd5b50803590602001351515613257565b348015610ce357600080fd5b5061038f60048036036020811015610cfa57600080fd5b503561340f565b348015610d0d57600080fd5b5061038f6135dd565b348015610d2257600080fd5b5061038f60048036036020811015610d3957600080fd5b50356001600160a01b031661366d565b348015610d5557600080fd5b5061038f60048036036040811015610d6c57600080fd5b50803590602001356136bd565b348015610d8557600080fd5b50610a2360048036036020811015610d9c57600080fd5b50356001600160a01b0316613890565b348015610db857600080fd5b5061038f60048036036020811015610dcf57600080fd5b50356001600160a01b03166138a3565b348015610deb57600080fd5b50610a2360048036036020811015610e0257600080fd5b50356001600160a01b03166138f3565b348015610e1e57600080fd5b5061038f60048036036020811015610e3557600080fd5b5035613906565b348015610e4857600080fd5b5061038f60048036036020811015610e5f57600080fd5b50356001600160a01b0316613ad4565b348015610e7b57600080fd5b5061038f613b24565b348015610e9057600080fd5b5061038f60048036036020811015610ea757600080fd5b5035613b2d565b348015610eba57600080fd5b5061038f60048036036040811015610ed157600080fd5b5080359060200135613d08565b348015610eea57600080fd5b5061038f60048036036020811015610f0157600080fd5b5035613edb565b348015610f1457600080fd5b5061038f60048036036020811015610f2b57600080fd5b50356140a9565b348015610f3e57600080fd5b50610f47614289565b604080516001600160a01b039092168252519081900360200190f35b348015610f6f57600080fd5b5061038f60048036036020811015610f8657600080fd5b50356001600160a01b0316614299565b348015610fa257600080fd5b50610a2360048036036020811015610fb957600080fd5b50356001600160a01b03166142e9565b348015610fd557600080fd5b50610a236142fc565b348015610fea57600080fd5b5061038f6004803603602081101561100157600080fd5b503561430d565b34801561101457600080fd5b5061038f6004803603602081101561102b57600080fd5b50356144ee565b34801561103e57600080fd5b50610a236004803603602081101561105557600080fd5b50356001600160a01b03166146b7565b61038f6004803603602081101561107b57600080fd5b50356146ca565b34801561108e57600080fd5b5061038f600480360360408110156110a557600080fd5b5080359060200135614938565b3480156110be57600080fd5b50610a23600480360360208110156110d557600080fd5b50356001600160a01b0316614b22565b3480156110f157600080fd5b5061038f614b35565b34801561110657600080fd5b5061038f6004803603602081101561111d57600080fd5b5035614b3e565b34801561113057600080fd5b5061114e6004803603602081101561114757600080fd5b5035614d19565b60405180898152602001888152602001876001600160a01b03166001600160a01b03168152602001866001600160a01b03166001600160a01b031681526020018060200180602001856001600160a01b03166001600160a01b0316815260200184601e8111156111ba57fe5b60ff168152602001838103835287818151815260200191508051906020019080838360005b838110156111f75781810151838201526020016111df565b50505050905090810190601f1680156112245780820380516001836020036101000a031916815260200191505b50838103825286518152865160209182019188019080838360005b8381101561125757818101518382015260200161123f565b50505050905090810190601f1680156112845780820380516001836020036101000a031916815260200191505b509a505050505050505050505060405180910390f35b3480156112a657600080fd5b5061038f600480360360208110156112bd57600080fd5b503561525d565b3480156112d057600080fd5b5061038f600480360360208110156112e757600080fd5b5035615426565b3480156112fa57600080fd5b5061038f6004803603602081101561131157600080fd5b50356001600160a01b03166155ed565b34801561132d57600080fd5b5061038f61563d565b34801561134257600080fd5b5061038f6004803603602081101561135957600080fd5b5035615646565b34801561136c57600080fd5b5061038f6004803603604081101561138357600080fd5b508035906020013561581f565b61038f600480360360208110156113a657600080fd5b50356159f2565b3480156113b957600080fd5b5061038f600480360360208110156113d057600080fd5b5035615c60565b3480156113e357600080fd5b5061038f600480360360208110156113fa57600080fd5b50356001600160a01b0316615e2d565b34801561141657600080fd5b5061038f6004803603604081101561142d57600080fd5b5080359060200135615e7c565b34801561144657600080fd5b5061038f6004803603602081101561145d57600080fd5b5035616066565b61146d33613890565b6114ab57604051600160e51b62461bcd028152600401808060200182810382526040815260200180616c246040913960400191505060405180910390fd5b600081815260096020526040902060020154819060ff1661150057604051600160e51b62461bcd028152600401808060200182810382526029815260200180616ce86029913960400191505060405180910390fd5b60008281526009602052604090206002015461010090046001600160a01b031633811461152c57600080fd5b60408051808201909152601681527f4d696c6b206973206e6f742070726f636573736564210000000000000000000060208201528390600990816000848152600960205260409020600b0154610100900460ff16601e81111561158b57fe5b14819061161957604051600160e51b62461bcd0281526004018080602001828103825283818151815260200191508051906020019080838360005b838110156115de5781810151838201526020016115c6565b50505050905090810190601f16801561160b5780820380516001836020036101000a031916815260200191505b509250505060405180910390fd5b506000868152600960205260409020600b018054600f919061ff0019166101008302179055506040805187815233602082015281517f808581d600d3c2d89b22159b03fea1400d722bba3ec46c85e5ade159f6fb8169929181900390910190a1505050505050565b61168a336138f3565b6116c857604051600160e51b62461bcd02815260040180806020018281038252603c815260200180616ba9603c913960400191505060405180910390fd5b6116d18161622f565b50565b6116dd33613890565b61171b57604051600160e51b62461bcd028152600401808060200182810382526040815260200180616c246040913960400191505060405180910390fd5b600081815260096020526040902060020154819060ff1661177057604051600160e51b62461bcd028152600401808060200182810382526029815260200180616ce86029913960400191505060405180910390fd5b6000828152600960205260409020600301546001600160a01b031633811461179757600080fd5b82600b604051806060016040528060258152602001616d546025913981601e8111156117bf57fe5b6000848152600960205260409020600b0154610100900460ff16601e8111156117e457fe5b14819061183557604051600160e51b62461bcd0281526020600482018181528351602484015283519092839260449091019190850190808383600083156115de5781810151838201526020016115c6565b506000868152600960205260409020600b018054600c919061ff0019166101008302179055506040805187815233602082015281517fe5d8358192f606c502a134584aaecdfc847e903576870b8a53177c2b1da32429929181900390910190a1505050505050565b6118a633616277565b565b6118b133612cce565b6118ef57604051600160e51b62461bcd02815260040180806020018281038252603c815260200180616ba9603c913960400191505060405180910390fd5b600081815260096020526040902060020154819060ff1661194457604051600160e51b62461bcd028152600401808060200182810382526029815260200180616ce86029913960400191505060405180910390fd5b6000828152600960205260409020600d01546001600160a01b031633811461196b57600080fd5b6040805180820190915260208082527f4d696c6b206973206e6f7420736f6c6420746f2073757065726d61726b657421908201528390601990816000848152600960205260409020600b0154610100900460ff16601e8111156119ca57fe5b148190611a1b57604051600160e51b62461bcd0281526020600482018181528351602484015283519092839260449091019190850190808383600083156115de5781810151838201526020016115c6565b506000868152600960205260409020600b018054601a919061ff0019166101008302179055506040805187815233602082015281517fee015a3ba9b08c68b9616e901511bc6d37c25b1ec9a38aa3d8f77ce3daa84b3b929181900390910190a1505050505050565b611a8c33614b22565b611aca57604051600160e51b62461bcd02815260040180806020018281038252603d815260200180616a5a603d913960400191505060405180910390fd5b611ad261681a565b6040518061026001604052806008548152602001898152602001600115158152602001886001600160a01b03168152602001886001600160a01b031681526020018781526020018681526020018581526020018481526020016008548a018152602001838152602001600081526020016000151581526020016000601e811115611b5857fe5b81526000602080830182905260408084018390526060808501849052608080860185905260a09586018590528e8552600984529382902086518155868401516001820155918601516002830180549288015160ff1990931691151591909117610100600160a81b0319166101006001600160a01b0393841602179055928501516003820180546001600160a01b031916919094161790925591830151805193945084939192611c0f926004850192909101906168cd565b5060c08201518051611c2b9160058401916020909101906168cd565b5060e08201518051611c479160068401916020909101906168cd565b506101008201518051611c649160078401916020909101906168cd565b5061012082015160088201556101408201518051611c8c9160098401916020909101906168cd565b50610160820151600a820155610180820151600b8201805460ff1916911515919091178082556101a0840151919061ff00191661010083601e811115611cce57fe5b02179055506101c0820151600b8201805475ffffffffffffffffffffffffffffffffffffffff00001916620100006001600160a01b03938416021790556101e0830151600c830180546001600160a01b0319908116928416929092179055610200840151600d840180548316918416919091179055610220840151600e84018054831691841691909117905561024090930151600f909201805490931691161790556008805460010190556040805189815233602082015281517f982e41a935e1da21f24c2070696f99a253473f3823546ff33a7d6e74a1bfd588929181900390910190a15050505050505050565b611dc6336142e9565b611e0457604051600160e51b62461bcd02815260040180806020018281038252603f815260200180616b22603f913960400191505060405180910390fd5b600081815260096020526040902060020154819060ff16611e5957604051600160e51b62461bcd028152600401808060200182810382526029815260200180616ce86029913960400191505060405180910390fd5b816010604051806060016040528060248152602001616b856024913981601e811115611e8157fe5b6000848152600960205260409020600b0154610100900460ff16601e811115611ea657fe5b148190611ef757604051600160e51b62461bcd0281526020600482018181528351602484015283519092839260449091019190850190808383600083156115de5781810151838201526020016115c6565b506000858152600960205260409020600a015434811115611f1757600080fd5b600086815260096020526040808220600281018054610100600160a81b03191633610100810291909117909155600c820180546001600160a01b0319169091179055600b8101805461ff0019166111001790819055600a9091015491518993620100009092046001600160a01b0316926108fc81150292909190818181858888f19350505050158015611fae573d6000803e3d6000fd5b506040805188815233602082015281517fc0fd849215106d6dd9cfcc27ba962518764ef3fb358c372bb674c52d02e6d42b929181900390910190a1600081815260096020526040808220600a0154905190913483900391339183156108fc02918491818181858888f1935050505015801561202d573d6000803e3d6000fd5b50505050505050505050565b306001600160a01b0316638da5cb5b6040518163ffffffff1660e01b815260040160206040518083038186803b15801561207257600080fd5b505afa158015612086573d6000803e3d6000fd5b505050506040513d602081101561209c57600080fd5b50516001600160a01b0316ff5b6000818152600960205260408120600201548190819081906060908190819081908590819081908c9060ff1661211357604051600160e51b62461bcd028152600401808060200182810382526029815260200180616ce86029913960400191505060405180910390fd5b61211b61681a565b60008e815260096020908152604091829020825161026081018452815481526001808301548285015260028084015460ff8116151584880152610100908190046001600160a01b03908116606086015260038601541660808501526004850180548851948116159092026000190190911691909104601f81018690048602830186019096528582529194929360a0860193919291908301828280156122015780601f106121d657610100808354040283529160200191612201565b820191906000526020600020905b8154815290600101906020018083116121e457829003601f168201915b505050918352505060058201805460408051602060026001851615610100026000190190941693909304601f81018490048402820184019092528181529382019392918301828280156122955780601f1061226a57610100808354040283529160200191612295565b820191906000526020600020905b81548152906001019060200180831161227857829003601f168201915b505050918352505060068201805460408051602060026001851615610100026000190190941693909304601f81018490048402820184019092528181529382019392918301828280156123295780601f106122fe57610100808354040283529160200191612329565b820191906000526020600020905b81548152906001019060200180831161230c57829003601f168201915b505050918352505060078201805460408051602060026001851615610100026000190190941693909304601f81018490048402820184019092528181529382019392918301828280156123bd5780601f10612392576101008083540402835291602001916123bd565b820191906000526020600020905b8154815290600101906020018083116123a057829003601f168201915b5050509183525050600882015460208083019190915260098301805460408051601f6002600019610100600187161502019094169390930492830185900485028101850182528281529401939283018282801561245b5780601f106124305761010080835404028352916020019161245b565b820191906000526020600020905b81548152906001019060200180831161243e57829003601f168201915b5050509183525050600a8201546020820152600b82015460ff8082161515604084015260609092019161010090910416601e81111561249657fe5b601e8111156124a157fe5b8152602001600b820160029054906101000a90046001600160a01b03166001600160a01b03166001600160a01b03168152602001600c820160009054906101000a90046001600160a01b03166001600160a01b03166001600160a01b03168152602001600d820160009054906101000a90046001600160a01b03166001600160a01b03166001600160a01b03168152602001600e820160009054906101000a90046001600160a01b03166001600160a01b03166001600160a01b03168152602001600f820160009054906101000a90046001600160a01b03166001600160a01b03166001600160a01b031681525050905080600001519c5080602001519b5080606001519a50806080015199508060a0015198508060c0015197508060e0015196508061010001519550806101a0015194508061016001519350806101e0015192508c8c8c8c8c8c8c8c8c8c8c9c509c509c509c509c509c509c509c509c509c509c50505091939597999b90929496989a50565b61261e33613890565b61265c57604051600160e51b62461bcd028152600401808060200182810382526040815260200180616c246040913960400191505060405180910390fd5b600081815260096020526040902060020154819060ff166126b157604051600160e51b62461bcd028152600401808060200182810382526029815260200180616ce86029913960400191505060405180910390fd5b60008281526009602052604090206002015461010090046001600160a01b03163381146126dd57600080fd5b826004604051806060016040528060248152602001616ec66024913981601e81111561270557fe5b6000848152600960205260409020600b0154610100900460ff16601e81111561272a57fe5b14819061277b57604051600160e51b62461bcd0281526020600482018181528351602484015283519092839260449091019190850190808383600083156115de5781810151838201526020016115c6565b506000868152600960205260409020600b0180546005919061ff0019166101008302179055506040805187815233602082015281517fc25ff97d9b1d89c7994f79e5873d0aa47574e6420094529d3911383680d8598e929181900390910190a1505050505050565b6127ec33613890565b61282a57604051600160e51b62461bcd028152600401808060200182810382526040815260200180616c246040913960400191505060405180910390fd5b600081815260096020526040902060020154819060ff1661287f57604051600160e51b62461bcd028152600401808060200182810382526029815260200180616ce86029913960400191505060405180910390fd5b816002604051806060016040528060258152602001616cc36025913981601e8111156128a757fe5b6000848152600960205260409020600b0154610100900460ff16601e8111156128cc57fe5b14819061291d57604051600160e51b62461bcd0281526020600482018181528351602484015283519092839260449091019190850190808383600083156115de5781810151838201526020016115c6565b506000858152600960205260409020600a01543481111561293d57600080fd5b600086815260096020526040808220600281018054610100600160a81b03191633610100810291909117909155600b8201805475ffffffffffffffffffffffffffffffffffffffff00001916620100009092029190911761ff0019166103001790556003810154600a90910154915189936001600160a01b039092169280156108fc0292909190818181858888f193505050501580156129e1573d6000803e3d6000fd5b506040805188815233602082015281517f6a0c6f1a96c55d493e5cecccdcaf0e666626c84ebe4519a8badcb9e4a73cd8a3929181900390910190a1600081815260096020526040808220600a0154905190913483900391339183156108fc02918491818181858888f1935050505015801561202d573d6000803e3d6000fd5b612a6933612cce565b612aa757604051600160e51b62461bcd02815260040180806020018281038252603c815260200180616ba9603c913960400191505060405180910390fd5b600081815260096020526040902060020154819060ff16612afc57604051600160e51b62461bcd028152600401808060200182810382526029815260200180616ce86029913960400191505060405180910390fd5b816014604051806060016040528060218152602001616a396021913981601e811115612b2457fe5b6000848152600960205260409020600b0154610100900460ff16601e811115612b4957fe5b148190612b9a57604051600160e51b62461bcd0281526020600482018181528351602484015283519092839260449091019190850190808383600083156115de5781810151838201526020016115c6565b506000858152600960205260409020600a015434811115612bba57600080fd5b600086815260096020526040808220600281018054610100600160a81b03191633610100810291909117909155600d820180546001600160a01b0319169091179055600b8101805461ff001916611500179055600c810154600a90910154915189936001600160a01b039092169280156108fc0292909190818181858888f19350505050158015612c4f573d6000803e3d6000fd5b506040805188815233602082015281517f1107334a46631f17a84bb332b2190ce4ac661bb878324dd995a9d5979f67208b929181900390910190a1600081815260096020526040808220600a0154905190913483900391339183156108fc02918491818181858888f1935050505015801561202d573d6000803e3d6000fd5b6000612ce160048363ffffffff6162bf16565b92915050565b600081815260096020526040812060020154819081908190606090819081908190819086908b9060ff16612d4f57604051600160e51b62461bcd028152600401808060200182810382526029815260200180616ce86029913960400191505060405180910390fd5b612d5761681a565b60008d815260096020908152604091829020825161026081018452815481526001808301548285015260028084015460ff8116151584880152610100908190046001600160a01b03908116606086015260038601541660808501526004850180548851948116159092026000190190911691909104601f81018690048602830186019096528582529194929360a086019391929190830182828015612e3d5780601f10612e1257610100808354040283529160200191612e3d565b820191906000526020600020905b815481529060010190602001808311612e2057829003601f168201915b505050918352505060058201805460408051602060026001851615610100026000190190941693909304601f8101849004840282018401909252818152938201939291830182828015612ed15780601f10612ea657610100808354040283529160200191612ed1565b820191906000526020600020905b815481529060010190602001808311612eb457829003601f168201915b505050918352505060068201805460408051602060026001851615610100026000190190941693909304601f8101849004840282018401909252818152938201939291830182828015612f655780601f10612f3a57610100808354040283529160200191612f65565b820191906000526020600020905b815481529060010190602001808311612f4857829003601f168201915b505050918352505060078201805460408051602060026001851615610100026000190190941693909304601f8101849004840282018401909252818152938201939291830182828015612ff95780601f10612fce57610100808354040283529160200191612ff9565b820191906000526020600020905b815481529060010190602001808311612fdc57829003601f168201915b5050509183525050600882015460208083019190915260098301805460408051601f600260001961010060018716150201909416939093049283018590048502810185018252828152940193928301828280156130975780601f1061306c57610100808354040283529160200191613097565b820191906000526020600020905b81548152906001019060200180831161307a57829003601f168201915b5050509183525050600a8201546020820152600b82015460ff8082161515604084015260609092019161010090910416601e8111156130d257fe5b601e8111156130dd57fe5b8152602001600b820160029054906101000a90046001600160a01b03166001600160a01b03166001600160a01b03168152602001600c820160009054906101000a90046001600160a01b03166001600160a01b03166001600160a01b03168152602001600d820160009054906101000a90046001600160a01b03166001600160a01b03166001600160a01b03168152602001600e820160009054906101000a90046001600160a01b03166001600160a01b03166001600160a01b03168152602001600f820160009054906101000a90046001600160a01b03166001600160a01b03166001600160a01b031681525050905080600001519b5080602001519a5080606001519950806101e0015198508060a0015197508060c0015196508060e00151955080610100015194508061014001519350806101a0015192508b8b8b8b8b8b8b8b8b8b9b509b509b509b509b509b509b509b509b509b5050509193959799509193959799565b6118a633616329565b6118a633616371565b61326033613890565b61329e57604051600160e51b62461bcd028152600401808060200182810382526040815260200180616c246040913960400191505060405180910390fd5b600082815260096020526040902060020154829060ff166132f357604051600160e51b62461bcd028152600401808060200182810382526029815260200180616ce86029913960400191505060405180910390fd5b60008381526009602052604090206002015461010090046001600160a01b031633811461331f57600080fd5b836005604051806060016040528060258152602001616dc26025913981601e81111561334757fe5b6000848152600960205260409020600b0154610100900460ff16601e81111561336c57fe5b1481906133bd57604051600160e51b62461bcd0281526020600482018181528351602484015283519092839260449091019190850190808383600083156115de5781810151838201526020016115c6565b5085156133e7576000878152600960205260409020600b01805461ff001916610700179055613406565b6000878152600960205260409020600b01805461ff0019166108001790555b50505050505050565b61341833614b22565b61345657604051600160e51b62461bcd02815260040180806020018281038252603d815260200180616a5a603d913960400191505060405180910390fd5b600081815260096020526040902060020154819060ff166134ab57604051600160e51b62461bcd028152600401808060200182810382526029815260200180616ce86029913960400191505060405180910390fd5b60008281526009602052604090206002015461010090046001600160a01b03163381146134d757600080fd5b82600c604051806060016040528060218152602001616ea56021913981601e8111156134ff57fe5b6000848152600960205260409020600b0154610100900460ff16601e81111561352457fe5b14819061357557604051600160e51b62461bcd0281526020600482018181528351602484015283519092839260449091019190850190808383600083156115de5781810151838201526020016115c6565b506000868152600960205260409020600b018054600d919061ff0019166101008302179055506040805187815233602082015281517f2dba714295451c62bec4bd6995a3dcdea9123d003ad91b2f10b3bcf84919f159929181900390910190a1505050505050565b6135e56142fc565b61362357604051600160e51b62461bcd028152600401808060200182810382526027815260200180616e5a6027913960400191505060405180910390fd5b600080546040516001600160a01b03909116907f5c486528ec3e3f0ea91181cff8116f02bfa350e03b8b6f12e00765adbb5af85c908390a3600080546001600160a01b0319169055565b613676336142e9565b6136b457604051600160e51b62461bcd02815260040180806020018281038252603f815260200180616b22603f913960400191505060405180910390fd5b6116d1816163b9565b6136c6336146b7565b61370457604051600160e51b62461bcd02815260040180806020018281038252603f815260200180616987603f913960400191505060405180910390fd5b600082815260096020526040902060020154829060ff1661375957604051600160e51b62461bcd028152600401808060200182810382526029815260200180616ce86029913960400191505060405180910390fd5b6000838152600960205260409020600e01546001600160a01b031633811461378057600080fd5b83601b604051806060016040528060248152602001616e816024913981601e8111156137a857fe5b6000848152600960205260409020600b0154610100900460ff16601e8111156137cd57fe5b14819061381e57604051600160e51b62461bcd0281526020600482018181528351602484015283519092839260449091019190850190808383600083156115de5781810151838201526020016115c6565b50600087815260096020908152604091829020600b8101805461ff001916611c00179055600a018890558151898152339181019190915280820188905290517f8d644cf87f130fab70df7f036f7be18536982c544a9824f05f517d1b1289c9d09181900360600190a150505050505050565b6000612ce160028363ffffffff6162bf16565b6138ac33614b22565b6138ea57604051600160e51b62461bcd02815260040180806020018281038252603d815260200180616a5a603d913960400191505060405180910390fd5b6116d181616401565b6000612ce160068363ffffffff6162bf16565b61390f33613890565b61394d57604051600160e51b62461bcd028152600401808060200182810382526040815260200180616c246040913960400191505060405180910390fd5b600081815260096020526040902060020154819060ff166139a257604051600160e51b62461bcd028152600401808060200182810382526029815260200180616ce86029913960400191505060405180910390fd5b60008281526009602052604090206002015461010090046001600160a01b03163381146139ce57600080fd5b826008604051806060016040528060248152602001616b616024913981601e8111156139f657fe5b6000848152600960205260409020600b0154610100900460ff16601e811115613a1b57fe5b148190613a6c57604051600160e51b62461bcd0281526020600482018181528351602484015283519092839260449091019190850190808383600083156115de5781810151838201526020016115c6565b506000868152600960205260409020600b018054600a919061ff0019166101008302179055506040805187815233602082015281517f67ffb28c0e498947b5c148a385ed64809190a87d2a053c40be021f28c69181ec929181900390910190a1505050505050565b613add33613890565b613b1b57604051600160e51b62461bcd028152600401808060200182810382526040815260200180616c246040913960400191505060405180910390fd5b6116d181616449565b6118a633616491565b613b3633612cce565b613b7457604051600160e51b62461bcd02815260040180806020018281038252603c815260200180616ba9603c913960400191505060405180910390fd5b600081815260096020526040902060020154819060ff16613bc957604051600160e51b62461bcd028152600401808060200182810382526029815260200180616ce86029913960400191505060405180910390fd5b6000828152600960205260409020600d01546001600160a01b0316338114613bf057600080fd5b6040805180820190915260208082527f4d696c6b206973206e6f74207368697070656420746f2072657461696c657221908201528390601690816000848152600960205260409020600b0154610100900460ff16601e811115613c4f57fe5b148190613ca057604051600160e51b62461bcd0281526020600482018181528351602484015283519092839260449091019190850190808383600083156115de5781810151838201526020016115c6565b506000868152600960205260409020600b0180546017919061ff0019166101008302179055506040805187815233602082015281517fdcdeb8cd18aaef34d5f5eb155c2389bd2829cf3532de9393d37e4d840f37c9e9929181900390910190a1505050505050565b613d1133612cce565b613d4f57604051600160e51b62461bcd02815260040180806020018281038252603c815260200180616ba9603c913960400191505060405180910390fd5b600082815260096020526040902060020154829060ff16613da457604051600160e51b62461bcd028152600401808060200182810382526029815260200180616ce86029913960400191505060405180910390fd5b6000838152600960205260409020600d01546001600160a01b0316338114613dcb57600080fd5b836017604051806060016040528060218152602001616add6021913981601e811115613df357fe5b6000848152600960205260409020600b0154610100900460ff16601e811115613e1857fe5b148190613e6957604051600160e51b62461bcd0281526020600482018181528351602484015283519092839260449091019190850190808383600083156115de5781810151838201526020016115c6565b50600087815260096020908152604091829020600b8101805461ff001916611800179055600a018890558151898152339181019190915280820188905290517f4aef2641ae9d0778279a0c5ad6af41fa2b5d543f48c22ab7f11c0c160cbc4fe09181900360600190a150505050505050565b613ee433614b22565b613f2257604051600160e51b62461bcd02815260040180806020018281038252603d815260200180616a5a603d913960400191505060405180910390fd5b600081815260096020526040902060020154819060ff16613f7757604051600160e51b62461bcd028152600401808060200182810382526029815260200180616ce86029913960400191505060405180910390fd5b60008281526009602052604090206002015461010090046001600160a01b0316338114613fa357600080fd5b82600d604051806060016040528060228152602001616c646022913981601e811115613fcb57fe5b6000848152600960205260409020600b0154610100900460ff16601e811115613ff057fe5b14819061404157604051600160e51b62461bcd0281526020600482018181528351602484015283519092839260449091019190850190808383600083156115de5781810151838201526020016115c6565b506000868152600960205260409020600b018054600e919061ff0019166101008302179055506040805187815233602082015281517ffb6c821edc933844040b011d310aae1f05eec43e926c3d9fd74a7c3c9a9faced929181900390910190a1505050505050565b6140b233614b22565b6140f057604051600160e51b62461bcd02815260040180806020018281038252603d815260200180616a5a603d913960400191505060405180910390fd5b600081815260096020526040902060020154819060ff1661414557604051600160e51b62461bcd028152600401808060200182810382526029815260200180616ce86029913960400191505060405180910390fd5b60408051808201909152601581527f4d696c6b206973206e6f74206f627461696e656421000000000000000000000060208201528290600090816000848152600960205260409020600b0154610100900460ff16601e8111156141a457fe5b1481906141f557604051600160e51b62461bcd0281526020600482018181528351602484015283519092839260449091019190850190808383600083156115de5781810151838201526020016115c6565b5060008581526009602052604090206002015461010090046001600160a01b031633811461422257600080fd5b6000868152600960205260409020600b0180546001919061ff0019166101008302179055506040805187815233602082015281517f72e92eb0e425b8335cb1af47d9215ead98fea0db2508f1155d0d113279dd81a6929181900390910190a1505050505050565b6000546001600160a01b03165b90565b6142a233612cce565b6142e057604051600160e51b62461bcd02815260040180806020018281038252603c815260200180616ba9603c913960400191505060405180910390fd5b6116d1816164d9565b6000612ce160038363ffffffff6162bf16565b6000546001600160a01b0316331490565b61431633613890565b61435457604051600160e51b62461bcd028152600401808060200182810382526040815260200180616c246040913960400191505060405180910390fd5b600081815260096020526040902060020154819060ff166143a957604051600160e51b62461bcd028152600401808060200182810382526029815260200180616ce86029913960400191505060405180910390fd5b6000828152600960205260409020600b01546201000090046001600160a01b03163381146143d657600080fd5b6040805180820190915260208082527f4d696c6b206973206e6f7420736f6c6420746f206469737472696275746f7221908201528390601190816000848152600960205260409020600b0154610100900460ff16601e81111561443557fe5b14819061448657604051600160e51b62461bcd0281526020600482018181528351602484015283519092839260449091019190850190808383600083156115de5781810151838201526020016115c6565b506000868152600960205260409020600b0180546012919061ff0019166101008302179055506040805187815233602082015281517f0286084355e9a81800b7148bc53bb820f41becf1122eb74b28a3e9f8e40bd4f3929181900390910190a1505050505050565b6144f7336146b7565b61453557604051600160e51b62461bcd02815260040180806020018281038252603f815260200180616987603f913960400191505060405180910390fd5b600081815260096020526040902060020154819060ff1661458a57604051600160e51b62461bcd028152600401808060200182810382526029815260200180616ce86029913960400191505060405180910390fd5b6000828152600960205260409020600e01546001600160a01b03163381146145b157600080fd5b82601a604051806060016040528060238152602001616a976023913981601e8111156145d957fe5b6000848152600960205260409020600b0154610100900460ff16601e8111156145fe57fe5b14819061464f57604051600160e51b62461bcd0281526020600482018181528351602484015283519092839260449091019190850190808383600083156115de5781810151838201526020016115c6565b506000868152600960205260409020600b018054601b919061ff0019166101008302179055506040805187815233602082015281517f240f9b9df3d4b912b2b06e8c4ac33297bb90f00e437602e3e3300fa6d028b511929181900390910190a1505050505050565b6000612ce160058363ffffffff6162bf16565b6146d3336146b7565b61471157604051600160e51b62461bcd02815260040180806020018281038252603f815260200180616987603f913960400191505060405180910390fd5b600081815260096020526040902060020154819060ff1661476657604051600160e51b62461bcd028152600401808060200182810382526029815260200180616ce86029913960400191505060405180910390fd5b816018604051806060016040528060248152602001616afe6024913981601e81111561478e57fe5b6000848152600960205260409020600b0154610100900460ff16601e8111156147b357fe5b14819061480457604051600160e51b62461bcd0281526020600482018181528351602484015283519092839260449091019190850190808383600083156115de5781810151838201526020016115c6565b506000858152600960205260409020600a01543481111561482457600080fd5b600086815260096020526040808220600281018054610100600160a81b03191633610100810291909117909155600e820180546001600160a01b0319169091179055600b8101805461ff001916611900179055600d810154600a90910154915189936001600160a01b039092169280156108fc0292909190818181858888f193505050501580156148b9573d6000803e3d6000fd5b506040805188815233602082015281517f9ffacabd4b959f342e16d587283f63fbbeff3060a30f21e052333fe2f8817c13929181900390910190a1600081815260096020526040808220600a0154905190913483900391339183156108fc02918491818181858888f1935050505015801561202d573d6000803e3d6000fd5b61494133614b22565b61497f57604051600160e51b62461bcd02815260040180806020018281038252603d815260200180616a5a603d913960400191505060405180910390fd5b600082815260096020526040902060020154829060ff166149d457604051600160e51b62461bcd028152600401808060200182810382526029815260200180616ce86029913960400191505060405180910390fd5b60008381526009602052604090206002015461010090046001600160a01b0316338114614a0057600080fd5b60408051808201909152601381527f4d696c6b206973206e6f742073746f726564210000000000000000000000000060208201528490600190816000848152600960205260409020600b0154610100900460ff16601e811115614a5f57fe5b148190614ab057604051600160e51b62461bcd0281526020600482018181528351602484015283519092839260449091019190850190808383600083156115de5781810151838201526020016115c6565b50600087815260096020908152604091829020600b8101805461ff001916610200179055600a018890558151898152339181019190915280820188905290517f0a45f8859db4ccba88d90e777f8ff1cc1a0d880a7a506203949ed770c0abb7579181900360600190a150505050505050565b6000612ce160018363ffffffff6162bf16565b6118a633616521565b614b47336142e9565b614b8557604051600160e51b62461bcd02815260040180806020018281038252603f815260200180616b22603f913960400191505060405180910390fd5b600081815260096020526040902060020154819060ff16614bda57604051600160e51b62461bcd028152600401808060200182810382526029815260200180616ce86029913960400191505060405180910390fd5b6000828152600960205260409020600c01546001600160a01b0316338114614c0157600080fd5b60408051808201909152601d81527f4d696c6b206973206e6f7420736f6c6420746f2072657461696c65722100000060208201528390601590816000848152600960205260409020600b0154610100900460ff16601e811115614c6057fe5b148190614cb157604051600160e51b62461bcd0281526020600482018181528351602484015283519092839260449091019190850190808383600083156115de5781810151838201526020016115c6565b506000868152600960205260409020600b0180546016919061ff0019166101008302179055506040805187815233602082015281517fa71e9ff4e9a4514eae5bd33767cd86c1bcffb5a08d8ad6482f01f7790d8f37af929181900390910190a1505050505050565b600081815260096020526040812060020154819081908190606090819083908190899060ff16614d7d57604051600160e51b62461bcd028152600401808060200182810382526029815260200180616ce86029913960400191505060405180910390fd5b614d8561681a565b60008b815260096020908152604091829020825161026081018452815481526001808301548285015260028084015460ff8116151584880152610100908190046001600160a01b03908116606086015260038601541660808501526004850180548851948116159092026000190190911691909104601f81018690048602830186019096528582529194929360a086019391929190830182828015614e6b5780601f10614e4057610100808354040283529160200191614e6b565b820191906000526020600020905b815481529060010190602001808311614e4e57829003601f168201915b505050918352505060058201805460408051602060026001851615610100026000190190941693909304601f8101849004840282018401909252818152938201939291830182828015614eff5780601f10614ed457610100808354040283529160200191614eff565b820191906000526020600020905b815481529060010190602001808311614ee257829003601f168201915b505050918352505060068201805460408051602060026001851615610100026000190190941693909304601f8101849004840282018401909252818152938201939291830182828015614f935780601f10614f6857610100808354040283529160200191614f93565b820191906000526020600020905b815481529060010190602001808311614f7657829003601f168201915b505050918352505060078201805460408051602060026001851615610100026000190190941693909304601f81018490048402820184019092528181529382019392918301828280156150275780601f10614ffc57610100808354040283529160200191615027565b820191906000526020600020905b81548152906001019060200180831161500a57829003601f168201915b5050509183525050600882015460208083019190915260098301805460408051601f600260001961010060018716150201909416939093049283018590048502810185018252828152940193928301828280156150c55780601f1061509a576101008083540402835291602001916150c5565b820191906000526020600020905b8154815290600101906020018083116150a857829003601f168201915b5050509183525050600a8201546020820152600b82015460ff8082161515604084015260609092019161010090910416601e81111561510057fe5b601e81111561510b57fe5b8152602001600b820160029054906101000a90046001600160a01b03166001600160a01b03166001600160a01b03168152602001600c820160009054906101000a90046001600160a01b03166001600160a01b03166001600160a01b03168152602001600d820160009054906101000a90046001600160a01b03166001600160a01b03166001600160a01b03168152602001600e820160009054906101000a90046001600160a01b03166001600160a01b03166001600160a01b03168152602001600f820160009054906101000a90046001600160a01b03166001600160a01b03166001600160a01b031681525050905080600001519950806020015198508060600151975080610240015196508060a001519550806101e0015193508061014001519450806101a0015192508989898989898989995099509950995099509950995099505050919395975091939597565b615266336142e9565b6152a457604051600160e51b62461bcd02815260040180806020018281038252603f815260200180616b22603f913960400191505060405180910390fd5b600081815260096020526040902060020154819060ff166152f957604051600160e51b62461bcd028152600401808060200182810382526029815260200180616ce86029913960400191505060405180910390fd5b6000828152600960205260409020600c01546001600160a01b031633811461532057600080fd5b826012604051806060016040528060238152602001616aba6023913981601e81111561534857fe5b6000848152600960205260409020600b0154610100900460ff16601e81111561536d57fe5b1481906153be57604051600160e51b62461bcd0281526020600482018181528351602484015283519092839260449091019190850190808383600083156115de5781810151838201526020016115c6565b506000868152600960205260409020600b0180546013919061ff0019166101008302179055506040805187815233602082015281517fcd2d1c9587a0a95c3508c624ef3d9777971750e472e0a31dd93535304c25b52f929181900390910190a1505050505050565b61542f33614b22565b61546d57604051600160e51b62461bcd02815260040180806020018281038252603d815260200180616a5a603d913960400191505060405180910390fd5b600081815260096020526040902060020154819060ff166154c257604051600160e51b62461bcd028152600401808060200182810382526029815260200180616ce86029913960400191505060405180910390fd5b6000828152600960205260409020600301546001600160a01b03163381146154e957600080fd5b82600a604051806060016040528060228152602001616da06022913981601e81111561551157fe5b6000848152600960205260409020600b0154610100900460ff16601e81111561553657fe5b14819061558757604051600160e51b62461bcd0281526020600482018181528351602484015283519092839260449091019190850190808383600083156115de5781810151838201526020016115c6565b506000868152600960205260409020600b908101805461ff0019166101008302179055506040805187815233602082015281517ff1a79569b790a7395e3cd390ad58143dcffe8b4f564c75014ea667c87cb02a5e929181900390910190a1505050505050565b6155f6336146b7565b61563457604051600160e51b62461bcd02815260040180806020018281038252603f815260200180616987603f913960400191505060405180910390fd5b6116d181616569565b6118a6336165b1565b61564f336138f3565b61568d57604051600160e51b62461bcd02815260040180806020018281038252603c815260200180616ba9603c913960400191505060405180910390fd5b600081815260096020526040902060020154819060ff166156e257604051600160e51b62461bcd028152600401808060200182810382526029815260200180616ce86029913960400191505060405180910390fd5b6000828152600960205260409020600f01546001600160a01b031633811461570957600080fd5b60408051808201909152601d8082527f4d696c6b206973206e6f7420736f6c6420746f20636f6e73756d65722100000060208301528491816000848152600960205260409020600b0154610100900460ff16601e81111561576657fe5b1481906157b757604051600160e51b62461bcd0281526020600482018181528351602484015283519092839260449091019190850190808383600083156115de5781810151838201526020016115c6565b506000868152600960205260409020600b018054601e919061ff0019166101008302179055506040805187815233602082015281517fcc304e5cd05a694f17244e4e7bc2f3d943d9291b68844e3eb6039071f695b095929181900390910190a1505050505050565b615828336142e9565b61586657604051600160e51b62461bcd02815260040180806020018281038252603f815260200180616b22603f913960400191505060405180910390fd5b600082815260096020526040902060020154829060ff166158bb57604051600160e51b62461bcd028152600401808060200182810382526029815260200180616ce86029913960400191505060405180910390fd5b6000838152600960205260409020600c01546001600160a01b03163381146158e257600080fd5b836013604051806060016040528060248152602001616a156024913981601e81111561590a57fe5b6000848152600960205260409020600b0154610100900460ff16601e81111561592f57fe5b14819061598057604051600160e51b62461bcd0281526020600482018181528351602484015283519092839260449091019190850190808383600083156115de5781810151838201526020016115c6565b50600087815260096020908152604091829020600b8101805461ff001916611400179055600a018890558151898152339181019190915280820188905290517fb26562dd29dade85de0d7fd9d81151ab4fa057a73e4506db8dd26a1c3e85798e9181900360600190a150505050505050565b6159fb336138f3565b615a3957604051600160e51b62461bcd02815260040180806020018281038252603c815260200180616ba9603c913960400191505060405180910390fd5b600081815260096020526040902060020154819060ff16615a8e57604051600160e51b62461bcd028152600401808060200182810382526029815260200180616ce86029913960400191505060405180910390fd5b81601c6040518060600160405280602181526020016169666021913981601e811115615ab657fe5b6000848152600960205260409020600b0154610100900460ff16601e811115615adb57fe5b148190615b2c57604051600160e51b62461bcd0281526020600482018181528351602484015283519092839260449091019190850190808383600083156115de5781810151838201526020016115c6565b506000858152600960205260409020600a015434811115615b4c57600080fd5b600086815260096020526040808220600281018054610100600160a81b03191633610100810291909117909155600f820180546001600160a01b0319169091179055600b8101805461ff001916611d00179055600e810154600a90910154915189936001600160a01b039092169280156108fc0292909190818181858888f19350505050158015615be1573d6000803e3d6000fd5b506040805188815233602082015281517f70f3c787155fbec8e11e57355c7e36179c9b3a7f042cfd2f774cd0edfbafe821929181900390910190a1600081815260096020526040808220600a0154905190913483900391339183156108fc02918491818181858888f1935050505015801561202d573d6000803e3d6000fd5b615c6933613890565b615ca757604051600160e51b62461bcd028152600401808060200182810382526040815260200180616c246040913960400191505060405180910390fd5b600081815260096020526040902060020154819060ff16615cfc57604051600160e51b62461bcd028152600401808060200182810382526029815260200180616ce86029913960400191505060405180910390fd5b60008281526009602052604090206002015461010090046001600160a01b0316338114615d2857600080fd5b826005604051806060016040528060278152602001616d796027913981601e811115615d5057fe5b6000848152600960205260409020600b0154610100900460ff16601e811115615d7557fe5b148190615dc657604051600160e51b62461bcd0281526020600482018181528351602484015283519092839260449091019190850190808383600083156115de5781810151838201526020016115c6565b506000868152600960208190526040909120600b01805461ff0019166101008302179055506040805187815233602082015281517f86a9fd0241dd7d84eb1203528b8f8827adf43f721495afbbcc8f3d01d25e00b9929181900390910190a1505050505050565b615e356142fc565b615e7357604051600160e51b62461bcd028152600401808060200182810382526027815260200180616e5a6027913960400191505060405180910390fd5b6116d1816165f9565b615e8533613890565b615ec357604051600160e51b62461bcd028152600401808060200182810382526040815260200180616c246040913960400191505060405180910390fd5b600082815260096020526040902060020154829060ff16615f1857604051600160e51b62461bcd028152600401808060200182810382526029815260200180616ce86029913960400191505060405180910390fd5b60008381526009602052604090206002015461010090046001600160a01b0316338114615f4457600080fd5b60408051808201909152601381527f4d696c6b206973206e6f74207061636b6564210000000000000000000000000060208201528490600f90816000848152600960205260409020600b0154610100900460ff16601e811115615fa357fe5b148190615ff457604051600160e51b62461bcd0281526020600482018181528351602484015283519092839260449091019190850190808383600083156115de5781810151838201526020016115c6565b50600087815260096020908152604091829020600b8101805461ff001916611000179055600a018890558151898152339181019190915280820188905290517fbe55594d1a1eedd30526362a86d14d6db60ca1bb7557e32d2a9ef904f1a712969181900360600190a150505050505050565b61606f33614b22565b6160ad57604051600160e51b62461bcd02815260040180806020018281038252603d815260200180616a5a603d913960400191505060405180910390fd5b600081815260096020526040902060020154819060ff1661610257604051600160e51b62461bcd028152600401808060200182810382526029815260200180616ce86029913960400191505060405180910390fd5b6000828152600960205260409020600301546001600160a01b031633811461612957600080fd5b826003604051806060016040528060218152602001616e396021913981601e81111561615157fe5b6000848152600960205260409020600b0154610100900460ff16601e81111561617657fe5b1481906161c757604051600160e51b62461bcd0281526020600482018181528351602484015283519092839260449091019190850190808383600083156115de5781810151838201526020016115c6565b506000868152600960205260409020600b0180546004919061ff0019166101008302179055506040805187815233602082015281517f101cd186fb40ceb4f619025da72d8b1d5c7ca75fc004814dd7961f8ccf42ac36929181900390910190a1505050505050565b61624060068263ffffffff6166b216565b6040516001600160a01b038216907f28b26e7a3d20aedbc5f8f2ebf7da671c0491723a2b78f47a097b0e46dee0714290600090a250565b61628860058263ffffffff61676816565b6040516001600160a01b038216907f15d2b381eb4092b28724b6b0527f13de7431b61db9e6f8ad6c171c35afbfb54490600090a250565b60006001600160a01b03821661630957604051600160e51b62461bcd02815260040180806020018281038252603d815260200180616c86603d913960400191505060405180910390fd5b506001600160a01b03166000908152602091909152604090205460ff1690565b61633a60068263ffffffff61676816565b6040516001600160a01b038216907fe3f5ed5f263f1f01764a96edfc7d025f511ec5f7d180e8816908b78bcf74f09890600090a250565b61638260038263ffffffff61676816565b6040516001600160a01b038216907f126174f6cf49c81cdb4a9214c6b8f037bef55b4ec31e4fc776cea2a1c8a88d5990600090a250565b6163ca60038263ffffffff6166b216565b6040516001600160a01b038216907fddbf200aa634dc3fb81cfd68583dd1040d1c751d335e1d86b631bde3e977fea890600090a250565b61641260018263ffffffff6166b216565b6040516001600160a01b038216907f80eb921b55c0e61029c209b9cdd8e07e6c85a3ad0c9e4ae9e014e2437dbb72c290600090a250565b61645a60028263ffffffff6166b216565b6040516001600160a01b038216907fb158cf7b7032a567dfb9b3a9765efa092798b7cded378ed4ae353ef385f2e73590600090a250565b6164a260028263ffffffff61676816565b6040516001600160a01b038216907f75ff978eb34dd8c30ffb904cdaf6badc758c2d5b8fb971ccf126f288f447761d90600090a250565b6164ea60048263ffffffff6166b216565b6040516001600160a01b038216907f71ae26cad02663e3d92efd6ec56031a80d74a20c0ab4183faa8bf262261c9baa90600090a250565b61653260018263ffffffff61676816565b6040516001600160a01b038216907fbe5a87b3f05a81f6ef57d858a56ce5e5ef680ab81756b9770ce3f43c6b57e48690600090a250565b61657a60058263ffffffff6166b216565b6040516001600160a01b038216907f3e8b6c25714070dcebd930fe0d9592c40580e5afd0b4e8e3727181b801e733f590600090a250565b6165c260048263ffffffff61676816565b6040516001600160a01b038216907fdb7176e79cffef81cb01767dd0447a0b24bb72ca9778d4b245581086b2a7e6db90600090a250565b6001600160a01b0381166166575760408051600160e51b62461bcd02815260206004820181905260248201527f4552524f52204d6573736167653a206e65772061646472657373206e756c6c21604482015290519081900360640190fd5b600080546040516001600160a01b03808516939216917f5c486528ec3e3f0ea91181cff8116f02bfa350e03b8b6f12e00765adbb5af85c91a3600080546001600160a01b0319166001600160a01b0392909216919091179055565b6001600160a01b0381166166fa57604051600160e51b62461bcd02815260040180806020018281038252603f815260200180616be5603f913960400191505060405180910390fd5b61670482826162bf565b1561674357604051600160e51b62461bcd02815260040180806020018281038252604f8152602001806169c6604f913960600191505060405180910390fd5b6001600160a01b0316600090815260209190915260409020805460ff19166001179055565b6001600160a01b0381166167b057604051600160e51b62461bcd028152600401808060200182810382526043815260200180616d116043913960600191505060405180910390fd5b6167ba82826162bf565b6167f857604051600160e51b62461bcd028152600401808060200182810382526052815260200180616de76052913960600191505060405180910390fd5b6001600160a01b0316600090815260209190915260409020805460ff19169055565b604051806102600160405280600081526020016000815260200160001515815260200160006001600160a01b0316815260200160006001600160a01b03168152602001606081526020016060815260200160608152602001606081526020016000815260200160608152602001600081526020016000151581526020016000601e8111156168a457fe5b815260006020820181905260408201819052606082018190526080820181905260a09091015290565b828054600181600116156101000203166002900490600052602060002090601f016020900481019282601f1061690e57805160ff191683800117855561693b565b8280016001018555821561693b579182015b8281111561693b578251825591602001919060010190616920565b5061694792915061694b565b5090565b61429691905b80821115616947576000815560010161695156fe4d696c6b206973206e6f7420666f722073616c6520746f20636f6e73756d6572214552524f52204d6573736167653a20546865206164647265737320646f65736ec2b474206d61746368207769746820616e792073757065726d61726b65742e4552524f52204d6573736167653a2054686520616464647265737320676976656e2068617320616c72656164792074686520726f6c6520696e2066756e6374696f6e20616464206e657720726f6c654d696c6b206973206e6f74207265636569766564206279206469737472696275746f72214d696c6b206973206e6f7420666f722073616c6520746f2072657461696c6572214552524f52204d6573736167653a20546865206164647265737320646f65736ec2b474206d61746368207769746820616e7920706f756c74657265722e4d696c6b206973206e6f74207368697070656420746f2073757065726d61726b6574214d696c6b206973206e6f74207368697070656420746f206469737472696275746f72214d696c6b206973206e6f742072656365697665642062792072657461696c6572214d696c6b206973206e6f7420666f722073616c6520746f2073757065726d61726b6574214552524f52204d6573736167653a20546865206164647265737320646f65736ec2b474206d61746368207769746820616e79206469737472696275746f722e4d696c6b206973206e6f74206661696c656420746865207175616c6974792074657374214d696c6b206973206e6f7420666f722073616c6520746f206469737472696275746f72214552524f52204d6573736167653a20546865206164647265737320646f65736ec2b474206d61746368207769746820616e792072657461696c65722e4552524f52204d6573736167653a2041646472657373206163636f756e74206973206e756c6c20696e2066756e6374696f6e20616464206e657720726f6c654552524f52204d6573736167653a20546865206164647265737320646f65736ec2b474206d61746368207769746820616e79206461697279666163746f72792e4d696c6b206973206e6f7420726563656976656420627920706f756c7465726572214552524f52204d6573736167653a2041646472657373206163636f756e74206e756c6c20696e2066756e6374696f6e206861732074686520726f6c652e4d696c6b206973206e6f7420666f722073616c6520746f206461697279666163746f727921546869732055504320646f6573206e6f7420657869737420696e206974656d73206d617070696e672e4552524f52204d6573736167653a204164647265737373206163636f756e74206973206e756c6c20696e2066756e6374696f6e2072656d6f7665207468652072756c654d696c6b206973206e6f7420726574616b656e20627920646169727920666163746f7279214d696c6b206973206e6f74207175616c696669656420746865207175616c6974792074657374214d696c6b206973206e6f742072657475726e656420746f20706f756c7465726572214d696c6b206973206e6f74207265636569766564206279206461697279666163746f7279214552524f52204d6573736167653a20546865206164647265737320676976656e20646f6573206e6f74206861732074686520726f6c6520696e2066756e6374696f6e2072656d6f76652074686520726f6c654d696c6b206973206e6f7420736f6c6420746f206461697279666163746f7279214552524f52204d6573736167653a2043616c6c6572206973206e6f7420746865206f776e6572214d696c6b206973206e6f742072656365697665642062792073757065726d61726b6574214d696c6b206973206e6f74207368697070656420746f20706f756c7465726572214d696c6b206973206e6f74207368697070656420746f206461697279666163746f727921a165627a7a72305820399b220bc759e280412adc6ec11090d7cc1b3d9eea961c88114da939ef136dfe00294552524f52204d6573736167653a2054686520616464647265737320676976656e2068617320616c72656164792074686520726f6c6520696e2066756e6374696f6e20616464206e657720726f6c654552524f52204d6573736167653a2041646472657373206163636f756e74206973206e756c6c20696e2066756e6374696f6e20616464206e657720726f6c654552524f52204d6573736167653a2041646472657373206163636f756e74206e756c6c20696e2066756e6374696f6e206861732074686520726f6c652e",
  "source": "pragma solidity ^0.5.0;\n\n// Import the `Roles` library\nimport \"../milkcore/Ownable.sol\";\nimport \"../milkaccesscontrol/PoultererRole.sol\";\nimport \"../milkaccesscontrol/DairyfactoryRole.sol\";\nimport \"../milkaccesscontrol/DistributorRole.sol\";\nimport \"../milkaccesscontrol/RetailerRole.sol\";\nimport \"../milkaccesscontrol/SupermarketRole.sol\";\nimport \"../milkaccesscontrol/ConsumerRole.sol\";\n\n// Define a contract 'Supplychain'\ncontract SupplyChain is Ownable, PoultererRole, DairyfactoryRole, DistributorRole, RetailerRole, SupermarketRole, ConsumerRole {\n\n  // Define 'owner'\n  //address owner;\n\n  // Define a variable called 'upc' for Universal Product Code (UPC)\n  uint  upc;\n\n  // Define a variable called 'sku' for Stock Keeping Unit (SKU)\n  uint  sku;\n\n  // Define a public mapping 'items' that maps the UPC to an Item.\n  mapping (uint => Item) items;\n\n  // Define a public mapping 'itemsHistory' that maps the UPC to an array of TxHash, \n  // that track its journey through the supply chain -- to be sent from DApp.\n  mapping (uint => string[]) itemsHistory;\n  \n  // Define enum 'State' with the following values:\n  enum State \n  { \n    Obtained,                  // 0\n    Stored,                    // 1\n    ForSaleToDairyfactory,     // 2\n    SoldToDairyfactory,        // 3\n    ShippedToDairyfactory,     // 4\n    ReceivedByDairyfactory,    // 5\n    Tested,                    // 6\n    Qualified,                 // 7\n    Failed,                    // 8\n    Processed,                 // 9\n    Returned,                  // 10\n    Retaken,                   // 11\n    ShippedToPoulterer,        // 12\n    ReceivedByPoulterer,       // 13\n    Destroyed,                 // 14\n    Packed,                    // 15\n    ForSaleToDistributor,      // 16\n    SoldToDistributor,         // 17\n    ShippedToDistributor,      // 18\n    ReceivedByDistributor,     // 19\n    ForSaleToRetailer,         // 20\n    SoldToRetailer,            // 21\n    ShippedToRetailer,         // 22\n    ReceivedByRetailer,        // 23\n    ForSaleToSupermarket,      // 24\n    SoldToSupermarket,         // 25 \n    ShippedToSupermarket,      // 26\n    ReceivedBySupermarket,     // 27\n    ForSaleToConsumer,         // 28\n    SoldToConsumer,            // 29\n    PurchasedByConsumer        // 30\n  }\n\n  State constant defaultState = State.Obtained;\n\n  // Define a struct 'Item' with the following fields:\n  struct Item {\n    uint    sku;  // Stock Keeping Unit (SKU)\n    uint    upc; // Universal Product Code (UPC), generated by the Poulterer, goes on the package, can be verified by the Consumer\n    bool    existItem; // Boolean to check the existence of the item easily\n    address payable ownerID;  // Metamask-Ethereum address of the current owner as the product moves through 31 stages\n    address payable originPoultererID; // Metamask-Ethereum address of the Poulterer\n    string  originFarmName; // Poulterer Name\n    string  originFarmInformation;  // Poulterer Information\n    string  originFarmLatitude; // Farm Latitude\n    string  originFarmLongitude;  // Farm Longitude\n    uint    productID;  // Product ID potentially a combination of upc + sku\n    string  productNotes; // Product Notes\n    uint    productPrice; // Product Price\n    bool    isQualified; // The quality status of the milk.\n    State   itemState;  // Product State as represented in the enum above\n    address payable dairyfactoryID;  // Metamask-Ethereum address of the Dairyfactory\n    address payable distributorID;  // Metamask-Ethereum address of the Distributor\n    address payable retailerID; // Metamask-Ethereum address of the Retailer\n    address payable supermarketID;  // Metamask-Ethereum address of the Supermarket\n    address payable consumerID; // Metamask-Ethereum address of the Consumer\n  }\n\n  // Define 15 events with the same 15 state values and accept 'upc' as input argument\n  event Obtained(uint upc, address emiter);\n  event Stored(uint upc, address emiter);\n  event ForSaleToDairyfactory(uint upc, address emiter, uint price);\n  event SoldToDairyfactory(uint upc, address emiter);\n  event ShippedToDairyfactory(uint upc, address emiter);\n  event ReceivedByDairyfactory(uint upc, address emiter);\n  event Tested(uint upc, address emiter, bool testResult);\n  event Processed(uint upc, address emiter);\n  event Returned(uint upc, address emiter);\n  event Retaken(uint upc, address emiter);\n  event ShippedToPoulterer(uint upc, address emiter);\n  event ReceivedByPoulterer(uint upc, address emiter);\n  event Destroyed(uint upc, address emiter);\n  event Packed(uint upc, address emiter);\n  event ForSaleToDistributor(uint upc, address emiter, uint price);\n  event SoldToDistributor(uint upc, address emiter);\n  event ShippedToDistributor(uint upc, address emiter);\n  event ReceivedByDistributor(uint upc, address emiter);\n  event ForSaleToRetailer(uint upc, address emiter, uint price);\n  event SoldToRetailer(uint upc, address emiter);\n  event ShippedToRetailer(uint upc, address emiter);\n  event ReceivedByRetailer(uint upc, address emiter);\n  event ForSaleToSupermarket(uint upc, address emiter, uint price);\n  event SoldToSupermarket(uint upc, address emiter);\n  event ShippedToSupermarket(uint upc, address emiter);\n  event ReceivedBySupermarket(uint upc, address emiter);\n  event ForSaleToConsumer(uint upc, address emiter, uint price);\n  event SoldToConsumer(uint upc, address emiter);\n  event PurchasedByConsumer(uint upc, address emiter);\n\n  // Define a modifer that verifies the Caller\n  modifier verifyCaller (address _address) {\n    require(msg.sender == _address); \n    _;\n  }\n\n  // Define a modifier that checks if the paid amount is sufficient to cover the price\n  modifier paidEnough(uint _price) { \n    require(msg.value >= _price); \n    _;\n  }\n  \n  // Define a modifier that checks the price and refunds the remaining balance\n  modifier checkValue(uint _upc) {\n    _;\n    uint _price = items[_upc].productPrice;\n    uint amountToReturn = msg.value - _price;\n    msg.sender.transfer(amountToReturn);\n  }\n\n  // Define a modifier that checks if an item.state of a upc is Sold\n  modifier checkItemState (uint _upc, State _state, string memory _errorMessage){\n    require(items[_upc].itemState == _state, _errorMessage);\n    _;\n  }\n\n  // Define a modifier that checks if a _upc is already in the items mapping\n  modifier checkUpcInItems(uint _upc) {\n    require(items[_upc].existItem, \"This UPC does not exist in items mapping.\");\n    _;\n  }\n\n  // In the constructor set 'owner' to the address that instantiated the contract\n  // and set 'sku' to 1\n  // and set 'upc' to 1\n  constructor() public payable {\n    sku = 1;\n    upc = 1;\n  }\n\n  // Define a function 'kill' if required\n  function kill() public {\n     selfdestruct(this.owner()); \n  }\n\n  // Define a function 'obtainItem' that allows a poulterer to mark an item 'Obtained'\n  function obtainItem(\n                  uint _upc, \n                  address payable _originPoultererID, \n                  string memory _originFarmName, \n                  string memory _originFarmInformation, \n                  string memory _originFarmLatitude, \n                  string memory _originFarmLongitude, \n                  string memory _productNotes) \n                  public onlyPoulterer()\n  {\n    // Add the new item as part of Obtain\n    Item memory newItem = Item(\n      sku,                      // Stock Keeping Unit (SKU)\n      _upc,                     // Universal Product Code (UPC)\n      true,                     // Boolean to check the existence of the item easily\n      _originPoultererID,       // Metamask-Ethereum address of the current owner\n      _originPoultererID,       // Metamask-Ethereum address of the Poulterer\n      _originFarmName,          // Poulterer Name\n      _originFarmInformation,   // Poulterer Information  \n      _originFarmLatitude,      // Farm Latitude     \n      _originFarmLongitude,     // Farm Longitude   \n      _upc + sku,               // Product ID\n      _productNotes,            // Product Note\n      0,                        // Product Price\n      false,                    // The quality status of milk.\n      State.Obtained,           // Product State\n      address(0),               // Metamask-Ethereum address of the Dairyfactory\n      address(0),               // Metamask-Ethereum address of the Distributor\n      address(0),               // Metamask-Ethereum address of the Retailer\n      address(0),               // Metamask-Ethereum address of the Supermarket\n      address(0)                // Metamask-Ethereum address of the Consumer\n    );\n    items[_upc] = newItem;\n    // Increment sku\n    sku = sku + 1;\n    // Emit the appropriate event\n    emit Obtained(_upc, msg.sender);\n  }\n\n  // Define a function 'StoreItem' that allows a poulterer to mark an item 'Stored'\n  function storeItem(uint _upc) public\n          onlyPoulterer()\n          checkUpcInItems (_upc)\n          checkItemState (_upc, State.Obtained, \"Milk is not obtained!\")\n          verifyCaller(items[_upc].ownerID) // Check the caller is the owner of the item\n  {\n    // Update the appropriate fields\n    items[_upc].itemState = State.Stored;\n    \n    // Emit the appropriate event\n    emit Stored(_upc, msg.sender);\n  }\n\n  // Define a function 'sellToDairyfactory' that allows a poulterer to mark an item 'ForSaleToDairyfactory'\n  function sellToDairyfactory(uint _upc, uint _price) public\n         onlyPoulterer()\n         checkUpcInItems (_upc)\n         verifyCaller(items[_upc].ownerID) // Check if caller is the owner of the item\n         checkItemState (_upc, State.Stored, \"Milk is not stored!\")\n  {\n      // Update the appropriate fields\n      items[_upc].itemState = State.ForSaleToDairyfactory;\n      items[_upc].productPrice = _price;\n  \n      // Emit the appropriate event\n      emit ForSaleToDairyfactory(_upc, msg.sender, _price);\n  }\n\n  // Define a function 'buyItemByDairyfactory' that allows the dairyfactory to mark an item 'SoldToDairyfactory'\n  // Use the above defined modifiers to check if the item is available for sale, if the buyer has paid enough, \n  // and any excess ether sent is refunded back to the buyer\n  function buyItemByDairyfactory(uint _upc) public payable\n          onlyDairyfactory()\n          checkUpcInItems (_upc)\n          checkItemState (_upc, State.ForSaleToDairyfactory, \"Milk is not for sale to dairyfactory!\")\n          paidEnough(items[_upc].productPrice) // Check if buyer has paid enough \n          checkValue(_upc) // Send any excess Ether back to buyer\n    {\n    // Update the appropriate fields - ownerID, dairyfactoryID, itemState\n    items[_upc].ownerID = msg.sender;\n    items[_upc].dairyfactoryID = msg.sender;\n    items[_upc].itemState = State.SoldToDairyfactory;\n    \n    // Transfer money to poulterer\n    items[_upc].originPoultererID.transfer(items[_upc].productPrice);\n    \n    // emit the appropriate event\n    emit SoldToDairyfactory(_upc, msg.sender);\n  }\n\n  // Define a function 'shipItemToDairyfactory' that allows the poulterer to mark an item 'ShippedToDairyfactory'\n  // Use the above modifers to check if the item is sold\n  function shipItemToDairyfactory(uint _upc) public\n         onlyPoulterer()\n         checkUpcInItems (_upc)\n         verifyCaller(items[_upc].originPoultererID) // Check if caller is the poulterer of the item\n         checkItemState (_upc, State.SoldToDairyfactory, \"Milk is not sold to dairyfactory!\")   \n    {\n    // Update the appropriate fields\n    items[_upc].itemState = State.ShippedToDairyfactory;\n\n    // Emit the appropriate event\n    emit ShippedToDairyfactory(_upc, msg.sender);\n  }\n\n  // Define a function 'receiveItemByDairyfactory' that allows the dairyfactory to mark an item 'ReceivedByDairyfactory'\n  // Use the above modifiers to check if the item is shipped\n  function receiveItemByDairyfactory(uint _upc) public\n         onlyDairyfactory()\n         checkUpcInItems (_upc)\n         verifyCaller(items[_upc].ownerID) // Check if caller is the owner of the item\n         checkItemState (_upc, State.ShippedToDairyfactory, \"Milk is not shipped to dairyfactory!\") \n    {\n    // Update the appropriate fields - ownerID, retailerID, itemState\n    items[_upc].itemState = State.ReceivedByDairyfactory;\n\n    // Emit the appropriate event\n    emit ReceivedByDairyfactory(_upc, msg.sender);\n  }\n\n  // Define a function 'testMilk' that allows the dairyfactory to mark an item 'Qualified or Failed'\n  // Use the above modifiers to check if the item is received\n  function testMilk(uint _upc, bool _testResult) public\n         onlyDairyfactory()\n         checkUpcInItems (_upc)\n         verifyCaller(items[_upc].ownerID) // Check if caller is the owner of the item\n         checkItemState (_upc, State.ReceivedByDairyfactory, \"Milk is not received by dairyfactory!\") \n    {\n      if  (_testResult) {\n        // Update the appropriate fields - ownerID, retailerID, itemState\n        items[_upc].itemState = State.Qualified;\n        // Emit the appropriate event\n        //emit Qualified(_upc, msg.sender);\n      } else {\n        // Update the appropriate fields - ownerID, retailerID, itemState\n        items[_upc].itemState = State.Failed;\n        // Emit the appropriate event\n        //emit Failed(_upc, msg.sender);\n      }\n  }\n\n  // Define a function 'processMilk' that allows the dairyfactory to mark an item 'Processed'\n  // Use the above modifiers to check if the item is qualified\n  function processMilk(uint _upc) public\n         onlyDairyfactory()\n         checkUpcInItems (_upc)\n         verifyCaller(items[_upc].ownerID) // Check if caller is the owner of the item\n         checkItemState (_upc, State.ReceivedByDairyfactory, \"Milk is not qualified the quality test!\") \n    {\n    // Update the appropriate fields - ownerID, retailerID, itemState\n    items[_upc].itemState = State.Processed;\n\n    // Emit the appropriate event\n    emit Processed(_upc, msg.sender);\n  }\n\n  // Define a function 'returnMilk' that allows the dairyfactory to mark an item 'Returned'\n  // Use the above modifiers to check if the item is qualified\n  function returnMilk(uint _upc) public\n         onlyDairyfactory()\n         checkUpcInItems (_upc)\n         verifyCaller(items[_upc].ownerID) // Check if caller is the owner of the item\n         checkItemState (_upc, State.Failed, \"Milk is not failed the quality test!\") \n    {\n    // Update the appropriate fields - ownerID, retailerID, itemState\n    items[_upc].itemState = State.Returned;\n\n    // Emit the appropriate event\n    emit Returned(_upc, msg.sender);\n  }\n\n  // Define a function 'retakeMilk' that allows the poulterer to mark an item 'Retaken'\n  function retakeMilk(uint _upc) public \n          onlyPoulterer()\n          checkUpcInItems (_upc)\n          verifyCaller(items[_upc].originPoultererID) // Check if caller is the poulterer of the item\n          checkItemState (_upc, State.Returned, \"Milk is not returned to poulterer!\")\n    {\n    // Update the appropriate fields - ownerID, dairyfactoryID, itemState\n    items[_upc].itemState = State.Retaken;\n    \n    // emit the appropriate event\n    emit Retaken(_upc, msg.sender);\n  }\n\n  // Define a function 'shipItemToPoulterer' that allows the dairy factory to mark an item 'ShippedToPoulterer'\n  // Use the above modifers to check if the item is retaken\n  function shipItemToPoulterer(uint _upc) public\n         onlyDairyfactory()\n         checkUpcInItems (_upc)\n         verifyCaller(items[_upc].originPoultererID) // Check if caller is the poulterer of the item\n         checkItemState (_upc, State.Retaken, \"Milk is not retaken by dairy factory!\")   \n    {\n    // Update the appropriate fields\n    items[_upc].itemState = State.ShippedToPoulterer;\n\n    // Emit the appropriate event\n    emit ShippedToPoulterer(_upc, msg.sender);\n  }\n\n  // Define a function 'receiveItemByPoulterer' that allows the dairyfactory to mark an item 'ReceivedByPoulterer'\n  // Use the above modifiers to check if the item is ShippedToPoulterer\n  function receiveItemByPoulterer(uint _upc) public\n         onlyPoulterer()\n         checkUpcInItems (_upc)\n         verifyCaller(items[_upc].ownerID) // Check if caller is the owner of the item\n         checkItemState (_upc, State.ShippedToPoulterer, \"Milk is not shipped to poulterer!\") \n    {\n    // Update the appropriate fields - ownerID, retailerID, itemState\n    items[_upc].itemState = State.ReceivedByPoulterer;\n\n    // Emit the appropriate event\n    emit ReceivedByPoulterer(_upc, msg.sender);\n  }\n\n  // Define a function 'destroyMilk' that allows the poulterer to mark an item 'Destroyed'\n  // Use the above modifiers to check if the item is ReceivedByPoulterer\n  function destroyMilk(uint _upc) public\n         onlyPoulterer()\n         checkUpcInItems (_upc)\n         verifyCaller(items[_upc].ownerID) // Check if caller is the owner of the item\n         checkItemState (_upc, State.ReceivedByPoulterer, \"Milk is not received by poulterer!\") \n    {\n    // Update the appropriate fields - ownerID, retailerID, itemState\n    items[_upc].itemState = State.Destroyed;\n\n    // Emit the appropriate event\n    emit Destroyed(_upc, msg.sender);\n  }\n\n  // Define a function 'packMilk' that allows the dairy factory to mark an item 'Packed'\n  // Use the above modifiers to check if the item is processed\n  function packMilk(uint _upc) public\n         onlyDairyfactory()\n         checkUpcInItems (_upc)\n         verifyCaller(items[_upc].ownerID) // Check if caller is the owner of the item\n         checkItemState (_upc, State.Processed, \"Milk is not processed!\") \n    {\n    // Update the appropriate fields - ownerID, retailerID, itemState\n    items[_upc].itemState = State.Packed;\n\n    // Emit the appropriate event\n    emit Packed(_upc, msg.sender);\n  }\n\n  // Define a function 'sellToDistributor' that allows a dairy factory to mark an item 'ForSaleToDistributor'\n  function sellToDistributor(uint _upc, uint _price) public\n         onlyDairyfactory()\n         checkUpcInItems (_upc)\n         verifyCaller(items[_upc].ownerID) // Check if caller is the owner of the item\n         checkItemState (_upc, State.Packed, \"Milk is not packed!\")\n  {\n      // Update the appropriate fields\n      items[_upc].itemState = State.ForSaleToDistributor;\n      items[_upc].productPrice = _price;\n  \n      // Emit the appropriate event\n      emit ForSaleToDistributor(_upc, msg.sender, _price);\n  }\n\n  // Define a function 'buyItemByDistributor' that allows the distributor to mark an item 'SoldToDistributor'\n  // Use the above defined modifiers to check if the item is available for sale, if the buyer has paid enough, \n  // and any excess ether sent is refunded back to the buyer\n  function buyItemByDistributor(uint _upc) public payable\n          onlyDistributor()\n          checkUpcInItems (_upc)\n          checkItemState (_upc, State.ForSaleToDistributor, \"Milk is not for sale to distributor!\")\n          paidEnough(items[_upc].productPrice) // Check if buyer has paid enough \n          checkValue(_upc) // Send any excess Ether back to buyer\n    {\n    // Update the appropriate fields - ownerID, dairyfactoryID, itemState\n    items[_upc].ownerID = msg.sender;\n    items[_upc].distributorID = msg.sender;\n    items[_upc].itemState = State.SoldToDistributor;\n    \n    // Transfer money to poulterer\n    items[_upc].dairyfactoryID.transfer(items[_upc].productPrice);\n    \n    // emit the appropriate event\n    emit SoldToDistributor(_upc, msg.sender);\n  }\n\n  // Define a function 'shipItemToDistributor' that allows the dairy factory to mark an item 'ShippedToDistributor'\n  // Use the above modifers to check if the item is sold\n  function shipItemToDistributor(uint _upc) public\n         onlyDairyfactory()\n         checkUpcInItems (_upc)\n         verifyCaller(items[_upc].dairyfactoryID) // Check if caller is the owner of the item\n         checkItemState (_upc, State.SoldToDistributor, \"Milk is not sold to distributor!\")   \n    {\n    // Update the appropriate fields\n    items[_upc].itemState = State.ShippedToDistributor;\n\n    // Emit the appropriate event\n    emit ShippedToDistributor(_upc, msg.sender);\n  }\n\n  // Define a function 'receiveItemByDistributor' that allows the distributor to mark an item 'ReceivedByDistributor'\n  // Use the above modifiers to check if the item is shipped\n  function receiveItemByDistributor(uint _upc) public\n         onlyDistributor()\n         checkUpcInItems (_upc)\n         verifyCaller(items[_upc].distributorID) // Check if caller is the owner of the item\n         checkItemState (_upc, State.ShippedToDistributor, \"Milk is not shipped to distributor!\") \n    {\n    // Update the appropriate fields - ownerID, retailerID, itemState\n    items[_upc].itemState = State.ReceivedByDistributor;\n\n    // Emit the appropriate event\n    emit ReceivedByDistributor(_upc, msg.sender);\n  }\n\n  // Define a function 'sellToRetailer' that allows a dairy factory to mark an item 'ForSaleToRetailer'\n  function sellToRetailer(uint _upc, uint _price) public\n         onlyDistributor()\n         checkUpcInItems (_upc)\n         verifyCaller(items[_upc].distributorID) // Check if caller is the owner of the item\n         checkItemState (_upc, State.ReceivedByDistributor, \"Milk is not received by distributor!\")\n  {\n      // Update the appropriate fields\n      items[_upc].itemState = State.ForSaleToRetailer;\n      items[_upc].productPrice = _price;\n  \n      // Emit the appropriate event\n      emit ForSaleToRetailer(_upc, msg.sender, _price);\n  }\n\n  // Define a function 'buyItemByRetailer' that allows the retailer to mark an item 'SoldToRetailer'\n  // Use the above defined modifiers to check if the item is available for sale, if the buyer has paid enough, \n  // and any excess ether sent is refunded back to the buyer\n  function buyItemByRetailer(uint _upc) public payable\n          onlyRetailer()\n          checkUpcInItems (_upc)\n          checkItemState (_upc, State.ForSaleToRetailer, \"Milk is not for sale to retailer!\")\n          paidEnough(items[_upc].productPrice) // Check if buyer has paid enough \n          checkValue(_upc) // Send any excess Ether back to buyer\n    {\n    // Update the appropriate fields - ownerID, dairyfactoryID, itemState\n    items[_upc].ownerID = msg.sender;\n    items[_upc].retailerID = msg.sender;\n    items[_upc].itemState = State.SoldToRetailer;\n    \n    // Transfer money to poulterer\n    items[_upc].distributorID.transfer(items[_upc].productPrice);\n    \n    // emit the appropriate event\n    emit SoldToRetailer(_upc, msg.sender);\n  }\n\n  // Define a function 'shipItemToRetailer' that allows the distributor to mark an item 'ShippedToRetailer'\n  // Use the above modifers to check if the item is sold\n  function shipItemToRetailer(uint _upc) public\n         onlyDistributor()\n         checkUpcInItems (_upc)\n         verifyCaller(items[_upc].distributorID) // Check if caller is the owner of the item\n         checkItemState (_upc, State.SoldToRetailer, \"Milk is not sold to retailer!\")   \n    {\n    // Update the appropriate fields\n    items[_upc].itemState = State.ShippedToRetailer;\n\n    // Emit the appropriate event\n    emit ShippedToRetailer(_upc, msg.sender);\n  }\n\n  // Define a function 'receiveItemByRetailer' that allows the retailer to mark an item 'ReceivedByRetailer'\n  // Use the above modifiers to check if the item is shipped\n  function receiveItemByRetailer(uint _upc) public\n         onlyRetailer()\n         checkUpcInItems (_upc)\n         verifyCaller(items[_upc].retailerID) // Check if caller is the owner of the item\n         checkItemState (_upc, State.ShippedToRetailer, \"Milk is not shipped to retailer!\") \n    {\n    // Update the appropriate fields - ownerID, retailerID, itemState\n    items[_upc].itemState = State.ReceivedByRetailer;\n\n    // Emit the appropriate event\n    emit ReceivedByRetailer(_upc, msg.sender);\n  }\n\n  // Define a function 'sellToSuperMarket' that allows a retailer to mark an item 'ForSaleToSupermarket'\n  function sellToSuperMarket(uint _upc, uint _price) public\n         onlyRetailer()\n         checkUpcInItems (_upc)\n         verifyCaller(items[_upc].retailerID) // Check if caller is the owner of the item\n         checkItemState (_upc, State.ReceivedByRetailer, \"Milk is not received by retailer!\")\n  {\n      // Update the appropriate fields\n      items[_upc].itemState = State.ForSaleToSupermarket;\n      items[_upc].productPrice = _price;\n  \n      // Emit the appropriate event\n      emit ForSaleToSupermarket(_upc, msg.sender, _price);\n  }\n\n  // Define a function 'buyItemBySupermarket' that allows the supermarket to mark an item 'SoldToSupermarket'\n  // Use the above defined modifiers to check if the item is available for sale, if the buyer has paid enough, \n  // and any excess ether sent is refunded back to the buyer\n  function buyItemBySupermarket(uint _upc) public payable\n          onlySupermarket()\n          checkUpcInItems (_upc)\n          checkItemState (_upc, State.ForSaleToSupermarket, \"Milk is not for sale to supermarket!\")\n          paidEnough(items[_upc].productPrice) // Check if buyer has paid enough \n          checkValue(_upc) // Send any excess Ether back to buyer\n    {\n    // Update the appropriate fields - ownerID, dairyfactoryID, itemState\n    items[_upc].ownerID = msg.sender;\n    items[_upc].supermarketID = msg.sender;\n    items[_upc].itemState = State.SoldToSupermarket;\n    \n    // Transfer money to poulterer\n    items[_upc].retailerID.transfer(items[_upc].productPrice);\n    \n    // emit the appropriate event\n    emit SoldToSupermarket(_upc, msg.sender);\n  }\n\n  // Define a function 'shipItemToSupermarket' that allows the retailer to mark an item 'ShippedToSupermarket'\n  // Use the above modifers to check if the item is sold\n  function shipItemToSupermarket(uint _upc) public\n         onlyRetailer()\n         checkUpcInItems (_upc)\n         verifyCaller(items[_upc].retailerID) // Check if caller is the owner of the item\n         checkItemState (_upc, State.SoldToSupermarket, \"Milk is not sold to supermarket!\")   \n    {\n    // Update the appropriate fields\n    items[_upc].itemState = State.ShippedToSupermarket;\n\n    // Emit the appropriate event\n    emit ShippedToSupermarket(_upc, msg.sender);\n  }\n\n  // Define a function 'receiveItemBySupermarket' that allows the retailer to mark an item 'ReceivedBySupermarket'\n  // Use the above modifiers to check if the item is shipped\n  function receiveItemBySupermarket(uint _upc) public\n         onlySupermarket()\n         checkUpcInItems (_upc)\n         verifyCaller(items[_upc].supermarketID) // Check if caller is the owner of the item\n         checkItemState (_upc, State.ShippedToSupermarket, \"Milk is not shipped to supermarket!\") \n    {\n    // Update the appropriate fields - ownerID, retailerID, itemState\n    items[_upc].itemState = State.ReceivedBySupermarket;\n\n    // Emit the appropriate event\n    emit ReceivedBySupermarket(_upc, msg.sender);\n  }\n\n  // Define a function 'sellToConsumer' that allows a supermarket to mark an item 'ForSaleToConsumer'\n  function sellToConsumer(uint _upc, uint _price) public\n         onlySupermarket()\n         checkUpcInItems (_upc)\n         verifyCaller(items[_upc].supermarketID) // Check if caller is the owner of the item\n         checkItemState (_upc, State.ReceivedBySupermarket, \"Milk is not received by supermarket!\")\n  {\n      // Update the appropriate fields\n      items[_upc].itemState = State.ForSaleToConsumer;\n      items[_upc].productPrice = _price;\n  \n      // Emit the appropriate event\n      emit ForSaleToConsumer(_upc, msg.sender, _price);\n  }\n\n  // Define a function 'buyItemByConsumer' that allows the supermarket to mark an item 'SoldToConsumer'\n  // Use the above defined modifiers to check if the item is available for sale, if the buyer has paid enough, \n  // and any excess ether sent is refunded back to the buyer\n  function buyItemByConsumer(uint _upc) public payable\n          onlyConsumer()\n          checkUpcInItems (_upc)\n          checkItemState (_upc, State.ForSaleToConsumer, \"Milk is not for sale to consumer!\")\n          paidEnough(items[_upc].productPrice) // Check if buyer has paid enough \n          checkValue(_upc) // Send any excess Ether back to buyer\n    {\n    // Update the appropriate fields - ownerID, dairyfactoryID, itemState\n    items[_upc].ownerID = msg.sender;\n    items[_upc].consumerID = msg.sender;\n    items[_upc].itemState = State.SoldToConsumer;\n    \n    // Transfer money to poulterer\n    items[_upc].supermarketID.transfer(items[_upc].productPrice);\n    \n    // emit the appropriate event\n    emit SoldToConsumer(_upc, msg.sender);\n  }\n\n  // Define a function 'purchaseItemByConsumer' that allows the consumer to mark an item 'PurchasedByConsumer'\n  // Use the above modifiers to check if the item is received\n  function purchaseItemByConsumer(uint _upc) public\n         onlyConsumer()\n         checkUpcInItems (_upc)\n         verifyCaller(items[_upc].consumerID) // Check if caller is the owner of the item\n         checkItemState (_upc, State.SoldToConsumer, \"Milk is not sold to consumer!\")\n    {\n    // Update the appropriate fields - ownerID, retailerID, itemState\n    items[_upc].itemState = State.PurchasedByConsumer;\n\n    // Emit the appropriate event\n    emit PurchasedByConsumer(_upc, msg.sender);\n  }\n\n  // Define a function 'fetchItemBufferPublic' that fetches the public data\n  function fetchItemBufferPublic(uint _upc) public checkUpcInItems(_upc) view returns \n  (\n      uint    itemSKU,\n      uint    itemUPC,\n      address ownerID,\n      address originPoultererID,\n      string  memory originFarmName,\n      string  memory originFarmInformation,\n      string  memory originFarmLatitude,\n      string  memory originFarmLongitude,\n      State   itemState,\n      uint    productPrice,\n      address distributorID\n  ) \n  {\n      // Assign values to the parameters\n      Item memory foundedItem = items[_upc];\n      itemSKU = foundedItem.sku;\n      itemUPC = foundedItem.upc;\n      ownerID = foundedItem.ownerID;\n      originPoultererID = foundedItem.originPoultererID;\n      originFarmName = foundedItem.originFarmName;\n      originFarmInformation = foundedItem.originFarmInformation;\n      originFarmLatitude = foundedItem.originFarmLatitude;\n      originFarmLongitude = foundedItem.originFarmLongitude;\n      itemState = foundedItem.itemState;\n      productPrice = foundedItem.productPrice;\n      distributorID = foundedItem.distributorID;\n      return \n      (\n      itemSKU,\n      itemUPC,\n      ownerID,\n      originPoultererID,\n      originFarmName,\n      originFarmInformation,\n      originFarmLatitude,\n      originFarmLongitude,\n      itemState,\n      productPrice,\n      distributorID\n      );\n  }\n\n  // Define a function 'fetchItemBufferForDistributor' that fetches the data only for distributor\n  function fetchItemBufferDistributor(uint _upc) public checkUpcInItems(_upc) view returns \n  (\n      uint    itemSKU,\n      uint    itemUPC,\n      address ownerID,\n      address distributorID,\n      string  memory originFarmName,\n      string  memory originFarmInformation,\n      string  memory originFarmLatitude,\n      string  memory originFarmLongitude,\n      string  memory productNotes,\n      State itemState\n  ) \n  {\n      // Assign values to the parameters\n      Item memory foundedItem = items[_upc];\n      itemSKU = foundedItem.sku;\n      itemUPC = foundedItem.upc;\n      ownerID = foundedItem.ownerID;\n      distributorID = foundedItem.distributorID;\n      originFarmName = foundedItem.originFarmName;\n      originFarmInformation = foundedItem.originFarmInformation;\n      originFarmLatitude = foundedItem.originFarmLatitude;\n      originFarmLongitude = foundedItem.originFarmLongitude;\n      productNotes = foundedItem.productNotes;\n      itemState = foundedItem.itemState;\n  return \n  (\n      itemSKU,\n      itemUPC,\n      ownerID,\n      distributorID,\n      originFarmName,\n      originFarmInformation,\n      originFarmLatitude,\n      originFarmLongitude,\n      productNotes,\n      itemState\n  );\n  }\n\n  // Define a function 'fetchItemBufferForConsumer' that fetches the data only for consumer\n  function fetchItemBufferConsumer(uint _upc) public checkUpcInItems(_upc) view returns \n  (\n      uint    itemSKU,\n      uint    itemUPC,\n      address ownerID,\n      address consumerID,\n      string  memory originFarmName,\n      string  memory productNotes,\n      address distributorID,\n      State itemState\n  ) \n  {\n      // Assign values to the parameters\n      Item memory foundedItem = items[_upc];\n      itemSKU = foundedItem.sku;\n      itemUPC = foundedItem.upc;\n      ownerID = foundedItem.ownerID;\n      consumerID = foundedItem.consumerID;\n      originFarmName = foundedItem.originFarmName;\n      distributorID = foundedItem.distributorID;\n      productNotes = foundedItem.productNotes;\n      itemState = foundedItem.itemState;\n  return \n  (\n      itemSKU,\n      itemUPC,\n      ownerID,\n      consumerID,\n      originFarmName,\n      productNotes,\n      distributorID,\n      itemState\n  );\n  }\n}\n",
  "sourcePath": "C:/Users/saro/Desktop/DApp-for-Tracking-Items-through-Supply-Chain-master/project/contracts/milkbase/SupplyChain.sol",
  "compiler": {
    "name": "solc",
    "version": "0.5.8+commit.23d335f2.Emscripten.clang"
  },
  "schemaVersion": "3.0.9",
  "updatedAt": "2019-05-25T20:51:42.242Z",
  "devdoc": {
    "methods": {}
  },
  "userdoc": {
    "methods": {
      "isOwner()": {
        "notice": "Check if the calling address is the owner of the contract"
      },
      "owner()": {
        "notice": "Look up the address of the owner"
      },
      "renounceOwnership()": {
        "notice": "Define a function to renounce ownerhip"
      },
      "transferOwnership(address)": {
        "notice": "Define a public function to transfer ownership"
      }
    }
  }
}